:020000040800F2
:10000000D0FD0020490300085B2F00083F200008B6
:10001000592F0008450C0008AD3100080000000011
:10002000000000000000000000000000890200083D
:10003000990C000800000000E5020008AD2F000840
:1000400063030008630300086303000863030008F8
:1000500063030008630300089D0C0008150D0008E9
:10006000510D0008630300086303000863030008E0
:1000700063030008630300086303000863030008C8
:100080006303000863030008630300080000000026
:1000900000000000000000000000000063030008F2
:1000A000B930000863030008630300086303000815
:1000B000C5300008630300086303000863030008F9
:1000C0006303000863030008630300086303000878
:1000D000630300087D3100088D3100080000000036
:1000E000D90C000863030008630300080000000047
:1000F0000000000000000000000000006303000892
:1001000000000000630300086303000863030008A5
:1001100000000000000000000000000000000000DF
:10012000490C0008550C0008570C00086303000830
:100130006303000800000000000000000000000051
:100140000000000000000000000000006303000841
:1001500063030008590C0008790C00089D31000861
:1001600063030008630300080000000000000000B3
:10017000000000000000000000000000000000007F
:100180000000000063030008000000000000000001
:10019000630300086303000800F002F800F065F84C
:1001A0000AA090E8000C82448344AAF10107DA45D2
:1001B00001D100F05AF8AFF2090EBAE80F0013F0BF
:1001C000010F18BFFB1A43F001031847EC050200AA
:1001D0000C0602000A444FF0000C10F8013B13F02B
:1001E000070408BF10F8014B1D1108BF10F8015B90
:1001F000641E05D010F8016B641E01F8016BF9D183
:1002000013F0080F1EBF10F8014BAD1C0C1B09D1D9
:100210006D1E58BF01F801CBFAD505E014F8016B4B
:1002200001F8016B6D1EF9D59142D6D370470000DD
:100230000023002400250026103A28BF78C1FBD8EF
:10024000520728BF30C148BF0B6070471FB51FF071
:10025000D4F89DE8030000F011FB00F0D9FA1FBDAF
:1002600010B5002000F072FB10BD00F0F2FB11464B
:10027000FFF7ECFF1BF0FCFD00F014FC03B4FFF7EC
:10028000EFFF03BC00F06EFC2C4B19680868B0E867
:10029000F04F80F30988BFF36F8F4FF0000080F3B9
:1002A000118870470000000008480068006880F36B
:1002B00008884FF0000080F3148862B661B6BFF37F
:1002C0004F8FBFF36F8F00DF00BF00BF08ED00E06E
:1002D000DFF80C00016841F470010160704700BF55
:1002E00088ED00E0EFF30980BFF36F8F134B1A68BE
:1002F0001EF0100F08BF20ED108A20E9F04F1060AB
:1003000009B44FF0500080F31188BFF34F8FBFF353
:100310006F8F1CF0F3FC4FF0000080F3118809BCD4
:1003200019680868B0E8F04F1EF0100F08BFB0EC75
:10033000108A80F30988BFF36F8F7047701F002009
:10034000EFF30580704700000948804709480047DF
:10035000FEE7FEE7FEE7FEE7FEE7FEE7FEE7FEE775
:10036000FEE7FEE704480549054A064B70470000D2
:100370009D30000899010008D09D0020D0FD00208C
:10038000D0DD0020D0DD002070B5064600F052FA26
:10039000056806F10B0020F00704B4429CBF002062
:1003A00070BD2B466A68BAB11068A04210D304F140
:1003B000080188423CBF5068586007D35168101943
:1003C00041601168091B016058601460101D70BD08
:1003D00013465268002AE7D12146284600F03AFA2F
:1003E0000028DED170BD53EA020C00F069802DE9CF
:1003F000F04B4FF00006002B1FBFB3FA83F503FA52
:1004000005F424FA05F65E4012BF1643B2FA82F5EF
:1004100002FA05F4C5F120051EBF22FA05FC44EAE4
:100420000C04203556EA044C4FEA144418BF641CEF
:100430004FF000084FF00009904271EB030C39D3E4
:10044000002919BFB1FA81F701FA07F6B0FA80F76F
:1004500000FA07F6C7F120071EBF20FA07FC46EA9C
:100460000C062037B6FBF4FCA7EB0507103F07F09E
:100470001F0BCBF120060CFA0BFB2CFA06F644BF3F
:10048000B3460026202FA4BF5E464FF0000B5BEA68
:10049000060C08BF4FF0010B19EB0B09ABFB027CFC
:1004A00048EB0608C01B06FB02CC0BFB03CC71EB30
:1004B0000C01C1E70B46024641464846BDE8F08BB9
:1004C00013B54FF000004FF00001AFF30080BDE81E
:1004D0001C407047B2F120030AD5C2F1200320FA74
:1004E00002F001FA03F341FA02F140EA0300704717
:1004F00041FA03F04FEAE171704710B54C1084EAFD
:10050000530404D54042C1F1000138BF491E1B42CB
:1005100004D55242C3F1000338BF5B1EFFF763FFEF
:1005200014F0804F04D04042C1F1000138BF491E91
:1005300014F0004F04D05242C3F1000338BF5B1ED9
:1005400010BD2DE9F041074615460E461020FFF775
:100550001BFF04000AD06760C4E9026500F072F96D
:100560000168216004600020BDE8F0810120FBE704
:1005700040EA0103024630B59B0710D14FF0013429
:1005800000E008C208C91D1B9D4315EAC41FF8D02E
:1005900013F0FF0102F8011B0DD01B0AF8E711F858
:1005A000013B002B02F8013B05D011F8013B002B69
:1005B00002F8013BF3D130BD10B5431C02E010F846
:1005C000011B71B18107FAD14FF0013202C88C1AB8
:1005D0008C4314EAC211F9D0C01A0A0603D0C01E17
:1005E00010BDC01A10BD0A0401D0801E10BD090242
:1005F000FCD0401E10BD032A40F2308010F0030CE6
:1006000000F0158011F8013BBCF1020F624498BF65
:1006100011F801CB00F8013B38BF11F8013BA2F102
:10062000040298BF00F801CB38BF00F8013B11F07D
:10063000030300F02580083AC0F0088051F8043B1D
:10064000083A51F804CBA0E80810F5E7121D5CBF8A
:1006500051F8043B40F8043BAFF30080D20724BFBD
:1006600011F8013B11F801CB48BF11F8012B24BF51
:1006700000F8013B00F801CB48BF00F8012B7047A0
:1006800010B5203AC0F00B80B1E81850203AA0E82D
:100690001850B1E81850A0E81850BFF4F5AF5FEA61
:1006A000027C24BFB1E81850A0E8185044BF18C914
:1006B00018C0BDE810405FEA827C24BF51F8043BBB
:1006C00040F8043B08BF7047D20728BF31F8023B0F
:1006D00048BF11F8012B28BF20F8023B48BF00F8A3
:1006E000012B704702F0FF0343EA032242EA024271
:1006F00000F002B84FF000020429C0F0128010F0A0
:10070000030C00F01B80CCF1040CBCF1020F18BFED
:1007100000F8012BA8BF20F8022BA1EB0C0100F080
:100720000DB85FEAC17C24BF00F8012B00F8012B53
:1007300048BF00F8012B70474FF0000200B5134688
:1007400094469646203922BFA0E80C50A0E80C50F1
:10075000B1F12001BFF4F7AF090728BFA0E80C50A2
:1007600048BF0CC05DF804EB890028BF40F8042B9B
:1007700008BF704748BF20F8022B11F0804F18BF08
:1007800000F8012B704700004FF0013C50F8042B9B
:1007900051F8043B9A4221D1A2EB0C03934313EA94
:1007A000CC1317D150F8042B51F8043B9A4215D1C1
:1007B000A2EB0C03934313EACC130BD150F8042B98
:1007C00051F8043B9A4209D1A2EB0C03934313EA7C
:1007D000CC13DBD04FF00000704700BFD01A01BA35
:1007E000B1FA81F101F0180122FA01F0CB40C1F118
:1007F0002001DBB2C0B2C01A2CFA01F3D11A914326
:1008000011EAC311E6D17047704770477047000086
:1008100070B5064C7C44064D7D4403E020682044BE
:100820008047241DAC42F9D170BD0000C0FF01001B
:10083000D0FF010000487047749D002000487047B9
:10084000A09D002000487047A49D0020704770477D
:100850007047704738B504460A4600206946AFF332
:100860000080002808BF38BD02460099204600F0ED
:1008700099F8012038BD012000F0AEB8F8B5AFF30B
:100880000080054600200C46102000BF0646A8192F
:10089000A0420DD9324669460020AFF30080070020
:1008A00008BF00F099F80098A04218BF0546C41987
:1008B000FFF7C0FF05600746F01D20F0070046194E
:1008C000284600F00AF8B44208BFF8BDA21B314622
:1008D0003868BDE8F84000F065B800210160C0E963
:1008E000011070471020704770B50446051FFFF7D0
:1008F000A1FF0068002C14BF446870BD002C18BF15
:10090000AC423CBF20466468F8D301680A18AA428A
:1009100018BF456003D12A68054611440160286864
:100920004119A1421CBF6C6070BD6168696021689B
:100930000844286070BD10B500F030F8006810BDA4
:1009400010B5044600F02AF8046010BD2DE9F0410E
:100950000646FFF777FF8046454613E016B1E0688C
:10096000B0420ED120682860D4E90101D8F80070A7
:1009700088472046FFF7B8FFD8F80000B842EBD10F
:1009800000E025462C68002CE8D1BDE8F08100F09D
:100990002AB80000004870476C9D0020004870474E
:1009A0006C9D0020034640688C46002818BF884292
:1009B0003CBF03464068F8D318681844884207D003
:1009C0000CF1030020F00700001D411A521A0146E5
:1009D000081D0A60FFF788BF10B500F07DF8BDE87C
:1009E000104000F073B810B500F00DF8016919B1AE
:1009F00000220261884701E08068804700F05BF8D0
:100A000010B500F058F870B500F048F804680546D5
:100A1000A4B92020FFF7B8FC040011D00949002038
:100A20002C60C4E900010849A16020732061606165
:100A30000649A06109B100F077F8E061204670BD79
:100A400000F039F800000000010A00080000000072
:100A500070477546FFF79EFFAE4605006946534650
:100A600020F00700854618B020B5FFF77BFCBDE8F5
:100A700020404FF000064FF000074FF000084FF005
:100A8000000B21F00701AC46ACE8C009ACE8C00996
:100A9000ACE8C009ACE8C0098D4670470048704713
:100AA000A89D002010B50446AFF300802046BDE8A5
:100AB0001040FFF7E3BB10B5002000F072F8FFF71D
:100AC000CFFBBDE81040012000F04CB8002801D059
:100AD00000F048B87047000010B5012805D000218B
:100AE00003A000F045F8012010BD09A1F8E70000BF
:100AF00053494752544D454D3A204F7574206F6607
:100B00002068656170206D656D6F7279000000006E
:100B10003A2048656170206D656D6F727920636F52
:100B2000727275707465640010B58820FFF72CFC34
:100B3000002801D00021017010BD802902D808B121
:100B4000017809B100207047012100F8081B7047A7
:100B500018B100F10802914201D000207047002135
:100B60000170704701491820ABBEFEE72600020065
:100B700070B505460C460A2000E06D1C00F018F820
:100B800035B128780028F8D102E0641C00F010F894
:100B900014B120780028F8D1BDE870400A2000F098
:100BA00007B810B500F00CF8BDE81040FFF78EBF95
:100BB00008B569468DF800000320ABBE08BD0000F3
:100BC00010B5002102A0FFF7D3FF012010BD0000E7
:100BD000534947414252543A2041626E6F726D61EF
:100BE0006C207465726D696E6174696F6E000000CF
:100BF00008B5124C124F4FF08046756A34F83C0F1E
:100C0000281AE0801CF02EFC0090012168461BF0A1
:100C1000CBFF38680168C969884744F80C5B2088B5
:100C2000401C24F8040B34F80A1C2068084444F8DB
:100C30000C09706A401B24F84009DEE7384B00209D
:100C4000481F0020FEE70000014800F05FBA0000E6
:100C5000D84A002070477047054830B40068062322
:100C60000122006B01684C6B0249A44630BC60470E
:100C70001800002000640240054830B400680723D3
:100C80000222806A01684C6B0249A44630BC60476E
:100C900018000020006402407047000010B50120D9
:100CA00005F004F800280FD008490120086001462B
:100CB000074804F0B7FEC2B2064800210068806C05
:100CC000BDE8104013F0FAB910BD0000143C01401B
:100CD000000402401800002010B54FF48064204644
:100CE00004F0E4FF00280ED00748214604600748BE
:100CF00004F098FEC2B2064803210068806CBDE88B
:100D0000104013F0DBB910BD143C01400004024058
:100D10001800002010B5022004F0C8FF00280FD0F2
:100D20000849022008600146074804F07BFEC2B271
:100D3000064801210068806CBDE8104013F0BEB980
:100D400010BD0000143C01400004024018000020C7
:100D500010B5042004F0AAFF00280FD00849042091
:100D600008600146074804F05DFEC2B20648022151
:100D70000068806CBDE8104013F0A0B910BD000001
:100D8000143C01400004024018000020704700009D
:100D900078B50024009490F83C20012A19D0012253
:100DA00080F83C200A6807230568092A13D9EE68F1
:100DB0000A3A02EB420293409E43EE600B788A6847
:100DC0000A3B03EB43039A400368DD682A43DA6079
:100DD00010E0022078BD2E6902EB420293409E4350
:100DE0002E610B788A6803EB43039A4003681D6900
:100DF0002A431A614A681F23072A13D205686E6BBB
:100E0000521E02EB820293409E436E630A8893B2A5
:100E10000A79521E02EB820293400268556B2B4303
:100E2000536327E005680D2A12D22E6BD21F02EB06
:100E3000820293409E432E630B790A88DB1F92B295
:100E400003EB83039A4003681D6B2A431A6311E086
:100E5000EE6A0D3A02EB820293409E43EE620B79FA
:100E60000A880D3B92B203EB83039A400368DD6A64
:100E70002A43DA621B4B0568194A9D420AD10D6864
:100E8000122D07D1556825F400055560556845F4C5
:100E90008005556005689D421DD1134D0B68AB421E
:100EA00001D0112B17D1536823F48003536053688A
:100EB00043F4000353600968A9420CD10B490C4A62
:100EC0000968B1FBF2F101EB8101490000E0491E24
:100ED00000910029FBD180F83C40002078BD000043
:100EE0000023014000200140120000106C1F002070
:100EF00040420F0070477047704770B504004FF0D4
:100F0000000503D0206C002610B107E0012070BD61
:100F1000204600F01DF8666484F83C60206CC00632
:100F200010D4206C20F4885040F002002064204649
:100F300005F0DAFA6664206C20F0020040F001004F
:100F4000206400E0012584F83C60284670BD000064
:100F500070B586B0064614216846FFF7EDFB1D49C3
:100F60003068884234D11C480025016841F4807102
:100F70000160006800F4807005901748143801681B
:100F800041F0010101600068694600F00100059030
:100F900003200090CDE90105104800F03BFA114C08
:100FA0000F48C4E900050015A560C4E903504000DE
:100FB00060618000A0614011E0614002C4E9080561
:100FC000204600F073F908B1FFF7E0FEB463A663B2
:100FD00006B070BD002001404438024000000240CD
:100FE00010640240D84A0020F8B5044600200E469E
:100FF000009094F83C10012907D0012184F83C109E
:1010000021688B68DB0702D011E00220F8BD8B68F5
:1010100043F001038B603649364B0968B1FBF3F1AD
:1010200001EB410100E0491E00910029FBD121683C
:101030008B68DB0503D58B6823F480738B60216894
:101040008B68DB0749D0236C40F20165AB4343F466
:10105000807323644968490505D5216C21F400514A
:1010600041F480512164216CC90404D5616C21F0E4
:101070000601616400E0606484F83C00A16B1F48D5
:101080001D4DC863A16B1E480864A16B1D48C86450
:1010900021686FF0220008602068416841F080619B
:1010A00041602068816841F4807181602168134645
:1010B00032464C31A06B00F063F96868C0062068C6
:1010C00002D01149884210D1816811F0405F0CD1E3
:1010D000816841F08041816007E0206C40F01000A1
:1010E0002064606C40F0010060640020F8BD0000E6
:1010F0006C1F002040420F0000230140114A0008ED
:101100001157000829420008002001402DE9F8434A
:1011100004464FF00009CDF8009063484FF4165193
:10112000A56D0068B0FBF1F72E6894F85C100820FC
:1011300000FA01F131420FD021680A6852070BD53D
:101140000A6822F004020A6094F85C108840A860E3
:10115000606D40F00100606594F85C104FF001088C
:1011600008FA01F0304208D021684969090604D51F
:10117000A860606D40F00200606594F85C10042087
:101180008840304208D021680968890704D5A860E2
:10119000606D40F00400606594F85C101020884099
:1011A000304218D021680968090714D5A860206862
:1011B0000168490304D50068000308D5A16C07E065
:1011C0000168C90503D4016821F008010160216CA0
:1011D00009B12046884794F85C10202088403042AE
:1011E00031D021680968C9062DD5A86094F835006A
:1011F00005282068016806D0490347D50068000328
:101200001DD4616C1CE021F0160101602068416969
:1012100021F080014161206C08B9A06C20B12068E8
:10122000016821F00801016094F85C103F208840BB
:10123000A86084F8358084F83490216D1FE0E16B5C
:1012400009B120468847606D00282BD0606DC0072B
:1012500014D0052084F835002068016821F00101D0
:1012600001600098401C0090B84203D820680068D4
:10127000C007F6D184F8358084F83490E16C0029F9
:1012800010D001B02046BDE8F04308470168C90509
:10129000D5D4016821F01001016084F8358084F80C
:1012A0003490CCE7BDE8F8836C1F00202DE9F041B5
:1012B000044600F0A7F906465CB1022084F8350028
:1012C000002584F834502068016821F00101016094
:1012D0000DE00120BDE8F08100F094F9801B0528A5
:1012E00005D920206065032084F83500F2E72068E6
:1012F0000068C007F0D12268116820480140D4E995
:1013000001031843D4E90336334318436369184390
:10131000A3691843E3691843236A18430843616AC1
:10132000042903D1D4E90B13194308431060206842
:101330004069666A20F0070130460E430127042801
:101340000CD1A06A0643E06A40B1204604F0C6F81A
:1013500020B14020606584F83570BAE720684661A6
:10136000204604F00DFC94F85C203F219140816000
:10137000656584F835700020ACE700003F8010F010
:101380002DE9F0410446866D90F8340000250128CF
:101390000DD0012084F8340094F835700020012F1E
:1013A00007D084F8340002252846BDE8F0810220E9
:1013B000FBE7022784F835706065204602F0C9FF1C
:1013C00094F85C103F208840B0602068016841F0CC
:1013D00016010160206C20B12068016841F008010D
:1013E00001602068016841F001010160DCE7000054
:1013F00070B5044600F006F90546601C02D00448AA
:101400000078044400F0FEF8401BA042FAD370BDFF
:10141000601F00202DE9F84FDFF8B8A10022012459
:101420000AF1040B03254FF00F090BF1040E00BF66
:101430000B6804FA02F63340B34273D10F7907F018
:101440000307012F01D0022F16D187684FEA420807
:1014500005FA08FC27EA0C07D1F80CC00CFA08FCC6
:101460004CEA070CC0F808C04768B7430E79C6F3CA
:10147000001696403E4346600E79F643B6070DD0FF
:10148000C768560005FA06FC27EA0C07D1F808C021
:101490000CFA06FC4CEA070CC0F80CC00E7906F0FA
:1014A0000306022E10D1D60800EB8608D8F820607B
:1014B00057074FEAD76C09FA0CF7BE430F6907FAD2
:1014C0000CF73743C8F8207006684FEA420C05FA5B
:1014D0000CF7BE430F7907F0030707FA0CF7374301
:1014E00007604E6816F4403F6DD03B4E376847F4B6
:1014F00080473760366822F0030706F4804600967E
:10150000364E07EB060CDCF8086897073F0F09FA20
:1015100007F826EA0806DFF8C880404503D14FF0F7
:1015200000081EE04FE0DFF8BC80404502D14FF0DC
:10153000010816E0DFF8B080404502D14FF0020804
:101540000FE0DFF8A880404502D14FF0030808E023
:10155000DFF89C80404502D14FF0040801E04FF0D5
:10156000070808FA07F848EA0608CCF80888DAF805
:1015700000605746D1F804C09E435FEACC3C00D5DA
:101580001E433E60DBF800605F46D1F804C09E4316
:101590005FEA8C3C00D51E433E60DEF80060774673
:1015A000D1F804C09E435FEACC2C00D51E433E60B8
:1015B000084F0C373E68D1F804C09E435FEA8C2C7C
:1015C00000D51E433E60521C102AFFF431AFBDE827
:1015D000F88F0000003C01404438024000300140D8
:1015E000000002400004024000080240000C0240DB
:1015F00000100240426921EA02030A4043EA024124
:10160000816170470148806870470000601F0020BA
:10161000024881680278114481607047601F002091
:101620000B4810B5016841F400710160016841F494
:1016300080610160016841F480710160032000F065
:101640008DF8002000F006F800F03EF8002010BDF4
:10165000003C024010B5014688B00022182000F07E
:101660005DF8182000F04CF813480024016841F49C
:1016700080310160006805A900F48030069068465A
:1016800000F07EF800F09CF80C490D4AB0FBF1F137
:101690000C48491E026040F2E732C0E90324C0E969
:1016A000011400F0A6FB10B1012008B010BD0548E0
:1016B00000F0CEFBF9E700004438024040420F0042
:1016C000004001408C4E00200C4882B0016841F47B
:1016D00080410160006800F4804000900748001FCE
:1016E000016841F0805101600068002200F08050E4
:1016F00000900F21901E02B000F010B84438024054
:10170000002809DB00F01F02012191404009800000
:1017100000F1E020C0F8001170470000F0B40E4B5B
:101720001B680C46C3F30223C3F10705042D00D93F
:101730000425191D072901D2002300E0DB1E012624
:1017400006FA05F1491E214099409E40761E16403A
:101750003143F0BC03F068BF0CED00E0064900F037
:10176000070208684FF6FF03184040EA0220034AC8
:1017700010430860704700000CED00E00000FA051F
:101780000F2202600C4A136803F0030343601368DE
:1017900003F0F0038360136803F4E053C36012683E
:1017A0004FF4E05303EAD20202610448006800F0FB
:1017B000070008607047000008380240003C024003
:1017C0000448054900680968044AC1F34231515C84
:1017D000C84070476C1F002008380240A2F501087D
:1017E00070B5040009D0606A002540B125616561CB
:1017F000A56294F8510040B10CE0012070BD606812
:10180000B0F5827FF4D0E561F2E784F850502046CD
:1018100000F044F8022084F851002068016821F0AB
:1018200040010160A088218900F4827001F4044124
:101830000843A18901F400610843217C01F0020101
:101840000843217D01F001010843218B01F400715F
:101850000843217F01F03801084394F8201001F07B
:1018600080010843218D01F400510843216808607C
:10187000A069042101EA104094F8241001F010013D
:101880000843216848602068C16921F40061C16192
:101890006565012084F85100002070BD70B586B0E8
:1018A000044614216846FEF747FF234E22680021B4
:1018B0002248022303240525B2421AD11F4A1432BA
:1018C000166846F480561660126802F4805205923B
:1018D000026842F001020260006802AA00F0010002
:1018E000059082E83200E020CDE900036946144803
:1018F0001DE0144EB2421CD1104A1032166846F454
:1019000080461660126802F480420592026842F036
:1019100002020260006802AA00F00200059082E85C
:1019200032004FF46040CDE9000369460648FFF7F6
:1019300071FD06B070BD000000300140303802403B
:101940000000024000380040000402402DE9F84F3A
:10195000044640680025984616460F464FF0040B93
:10196000B0F5827F01D1A06888B194F850000128B9
:1019700018D0012084F85000FFF744FE814694F807
:1019800051004FF0000A01280ED0022582E084F8B1
:1019900051B013460A462046CDF8008000F036F9D3
:1019A000BDE8F88F0220FBE7002F72D0002E70D028
:1019B00084F851B0C4F854A0A763A687E687C4F89A
:1019C00030A0A4F834A0A4F836A0C4F840A0C4F80D
:1019D00044A0A068B0F5004F09D12068016821F04B
:1019E000400101602068016821F4804101602068A5
:1019F0000168490603D4016841F040010160E068D4
:101A0000D8B139E020688168C90709D0007BA16B93
:101A10000870A06B401CA063E08F401EE0870CE0C4
:101A2000FFF7F0FDA0EB0901414503D3B8F1FF3FFB
:101A300003D036E0B8F1000F33D0E08F0028E1D1B9
:101A40001DE020688168C90709D0C068A16B0880C3
:101A5000A06B801CA063E08F401EE0870CE0FFF7C6
:101A6000D1FDA0EB0901414503D3B8F1FF3F03D0FD
:101A700017E0B8F1000F14D0E08F0028E1D14A46FA
:101A80004146204603F066FF08B120206065606D86
:101A900000B10125012084F8510084F850A02846A7
:101AA0007EE70325F6E72DE9F84F044690F850004D
:101AB00000271D461646894601280DD04FF0010B20
:101AC00084F850B0FFF79EFD804694F85100BA4666
:101AD000012804D0022793E00220BDE8F88FB9F175
:101AE000000F73D0002E71D0032084F85100C4F889
:101AF00054A0C4F83090A686E686C4F838A0A4F8AE
:101B00003CA0A4F83EA0C4F844A0C4F840A0A0683B
:101B1000B0F5004F09D12068016821F04001016053
:101B20002068016841F4804101602068016849062D
:101B300003D4016841F040010160E068B0F5006F36
:101B4000606803D030B3012E24D041E008B1012EEB
:101B50001CD1206B21680088C86006E0206881687D
:101B6000890709D5216B0988C160206B801C20631F
:101B7000E08E401EE08609E0FFF744FDA0EB080080
:101B8000A84202D3681C01D031E07DB3E08E00286A
:101B9000E4D120E0206B21680078087306E020681B
:101BA0008168890709D5216B09780173206B401C76
:101BB0002063E08E401EE0860AE0FFF723FDA0EBE5
:101BC0000800A84203D3681C02D010E017E06DB1F2
:101BD000E08E0028E3D142462946204603F0A4FFC8
:101BE00008B120206065A06818B106E0FFE7032770
:101BF00006E02068C16880680090606D00B1012730
:101C000084F851B084F850A0384666E72DE9F84FC3
:101C1000044690F8500000270A9E1D4692468B46C7
:101C20004FF0010901280ED0012084F85000FFF781
:101C3000E9FC804694F85100616801280CD0B1F5A8
:101C4000827F07D102E00220BDE8F88FA16809B9C0
:101C5000042801D00227C2E0BBF1000F27D0BAF15F
:101C6000000F24D01DB394F85100042802D00520A1
:101C700084F8510000206065C4F838A0E587A58786
:101C8000C4F830B0E586A5862064606420680168E9
:101C9000490603D4016841F040010160E068B0F5F5
:101CA000006F606805D0E8B3012D46D07FE00127C2
:101CB00095E008B1012D39D1206B21680088C860FA
:101CC000206B801C2063E08E401EE0862EE02068A2
:101CD000816889070FD5E18E69B1B9F1010F0AD189
:101CE000216B0988C160206B801C2063E08E401E40
:101CF000E0864FF0000920688168C9070CD0E18FA9
:101D000051B1C068A16B0880A06B801CA063E08FFC
:101D1000401EE0874FF00109FFF774FCA0EB0800BC
:101D2000B04200E009E001D3701C50D1E08E0028E1
:101D3000CDD1E08F0028CAD13FE0206B2168007828
:101D40000873206B401C2063E08E401EE0862EE06E
:101D50002068816889070FD5E18E69B1B9F1010F5B
:101D60000AD1216B09780173206B401C2063E08E3F
:101D7000401EE0864FF0000920688168C9070CD03A
:101D8000E18F51B1C068A16B0870A06B401CA063CB
:101D9000E08F401EE0874FF00109FFF733FCA0EB16
:101DA0000800B04202D3701C01D010E07EB1E08E7A
:101DB0000028CDD1E08F0028CAD1424631462046C6
:101DC00003F0B2FE28B101272020606507E0032759
:101DD00005E0A06818B92068C168806800900120FB
:101DE00084F85100002084F8500038462CE77047F2
:101DF000704710B5040003D094F83D0010B107E01F
:101E0000012010BD002084F83C00204600F01EF8A0
:101E1000022084F83D00211D206801F063F90120B3
:101E200084F8460084F83E0084F83F0084F84000BF
:101E300084F8410084F8420084F8430084F84400A8
:101E400084F8450084F83D00002010BD7047000074
:101E500090F83D10012901D001207047022180F83F
:101E60003D100168CA6842F00102CA6000680E496C
:101E700088420ED0B0F1804F0BD00C49884208D078
:101E80000B49884205D00B49884202D00A49884252
:101E900004D1816801F00701062903D0016841F0EF
:101EA0000101016000207047000001400004004073
:101EB00000080040000C004000400140704770B531
:101EC0000446006801694FF00005C943890715D42D
:101ED000C168C943890711D4E91E01610120207737
:101EE000206880698007204602D0FFF7E7FF04E002
:101EF00000F098F8204600F096F8257720680169F0
:101F0000C943490717D4C168C943490713D46FF0BF
:101F100004010161022020772068806910F4407F6D
:101F2000204602D0FFF7CAFF04E000F07BF820460D
:101F300000F079F8257720680169C943090716D4AC
:101F4000C168C943090712D46FF008010161042078
:101F500020772068C0698007204602D0FFF7AEFFD7
:101F600004E000F05FF8204600F05DF82577206877
:101F70000169C943C90617D4C168C943C90613D446
:101F80006FF010010161082020772068C06910F40B
:101F9000407F204602D0FFF791FF04E000F042F8B6
:101FA000204600F040F8257720680169C943C90739
:101FB00008D1C168C943C90704D1891E01612046FF
:101FC00000F032F820680169C943090609D4C168E4
:101FD000C943090605D46FF0800101612046FFF76F
:101FE00006FF20680169C943490609D4C168C9438D
:101FF000490605D46FF040010161204600F01EF84B
:1020000020680169C94389060BD4C168C9438906A0
:1020100007D46FF0200101612046BDE87040FFF752
:10202000E7BE70BD7047704700680349884201D120
:10203000FFF7EEBA70470000004001407047FEE72E
:1020400008B50F4C0F4F4FF08046756A2088281A4C
:10205000E0801BF007FA0090022168461AF0A4FD08
:1020600038680168096988472560A089401CA081FB
:10207000E188206908442061706A401BA080E4E781
:10208000384B0020481F002030B5264A002405792F
:102090000168131F85B371B345798DB1012D17D038
:1020A000022D18D0012483792BB31E4908310A1F51
:1020B000012B18D0022B20D0032B22D0012428E0A2
:1020C00015688D43156001681A680A431A60EAE7CB
:1020D0001D688D4301E01D680D431D600168136894
:1020E0000B431360DFE703680D689D430D600068D4
:1020F0001168014311600CE00DE0036815689D4311
:1021000002E0036815681D43156000680A68024311
:102110000A60204630BD1D688D431D60006811684F
:102120008143E7E7043C0140F0B50A680F2692FAC4
:10213000A2F2B2FA82F303248AE001279F4015EA53
:1021400007027DD04D68012D01D0022D1BD18D6875
:10215000876892FAA2FCBCFA8CFC4FEA4C0C04FA99
:102160000CFC27EA0C0792FAA2FCBCFA8CFC4FEAA2
:102170004C0C05FA0CF52F438760CD684768554332
:1021800097432F4347600F69D0F80CC092FAA2F52D
:10219000B5FA85F54FEA450E04FA0EF52CEA050C62
:1021A00092FAA2F5B5FA85F56D00AF404CEA070C3E
:1021B000C0F80CC04D68022D33D192FAA2F5B5FAE1
:1021C00085F5082D15D2D1F814C0056A92FAA2F748
:1021D000B7FA87F7BF0006FA07F7BD4392FAA2F7EE
:1021E000B7FA87F7BF000CFA07FC45EA0C05056251
:1021F00017E0D1F814E0476A150A95FAA5FCBCFA75
:102200008CFC4FEA8C0C06FA0CFC95FAA5F5B5FA95
:1022100085F5AD0027EA0C070EFA05FE47EA0E0722
:1022200047624D68076892FAA2FCBCFA8CFC4FEA40
:102230004C0C04FA0CFE27EA0E0792FAA2F200E018
:1022400005E0B2FA82F2520095402F4307605B1C12
:102250000A681546DA407FF470AF0020F0BD10B573
:10226000044603F04BFC206003F066FB606003F063
:1022700011FCA060606803F01BFCE06010BD000072
:1022800001490860704700006C1F0020F0B502682B
:102290001D4B1E4C9F031E4D1E4E984207D0B84248
:1022A00005D0A04203D0A84201D0B04205D1D1F858
:1022B00004C022F0700242EA0C02984210D0B842E8
:1022C0000ED0A0420CD0A8420AD0B04208D0124C86
:1022D000A04205D0114CA04202D0114CA04203D123
:1022E000CC6822F44072224302608A68C2620A8883
:1022F0008262984201D109690163416941F001019B
:1023000041610020F0BD00000000014000040040D9
:1023100000080040000C0040004001400044014023
:1023200000480140F0B501250023604C012908D088
:10233000102933D0B1F5807F64D0B1F5805F5FD1D3
:1023400090E0016A21F001010162016A4568866935
:10235000176826F073063E43176921F002013943DE
:10236000576821F001013943A04212D1546921F08C
:10237000080141EA8401946821F0040141EA8401E2
:1023800025F4807495692C43D56924F4007444EADB
:10239000450545608661D26842632FE0016A21F0FD
:1023A00010010162016A45688669176826F4E646ED
:1023B00046EA0726176921F0200141EA071157680C
:1023C00021F0100141EA0711A04213D1546921F014
:1023D000800141EA8411946821F0400141EA8411AE
:1023E00025F48064956944EA8504D56924F4006481
:1023F00044EAC50545608661D268826301621D4674
:102400002846F0BD016A21F480710162016A4568C5
:10241000C669176826F073063E43176921F40071F8
:1024200041EA0721576821F4807141EA0721A0425F
:1024300013D1546921F4006141EA8421946821F4A4
:10244000806141EA842125F48054956944EA0514A9
:10245000D56924F4005444EA45154560C661D26844
:10246000C263CBE7016A21F480510162056A4168C9
:10247000C669176826F4E64646EA0726176925F472
:10248000005545EA0735576825F4805545EA073574
:10249000A04204D1946921F4804141EA8411416051
:1024A000C661D16801640562A9E70000000001402F
:1024B0007FB50446C0680D460126C0F3403078BBA6
:1024C000E9686868AA690843296911430843E16813
:1024D00049F20C6291430843E060A868216921F445
:1024E0004051014321616869616921F440710143F0
:1024F00061616846FFF7B3FE0B48844207D00B4882
:10250000844201D1029903E00948844208D1039929
:1025100031B12B6823B100262046AA6903F05CF98B
:1025200004B0304670BD000000100140004400407F
:10253000001401401CB5DFF8048142F2107A4FF01C
:1025400000093F4C3F4F404E4FF6FF7B04F0B6F87A
:10255000054600F0A9FE0190208D281AE0851AF0AA
:1025600081FF0090142168461AF01EFBD8F8000085
:10257000016889698847A562208C30B1616A01EBE6
:1025800081014900B1FBF0F0A083A4F82090C4F8C9
:102590002490A0894D4630B1216901EB81014900A9
:1025A000B1FBF0F020812089B7FBF0F000EE100ABB
:1025B0003068B8EE400A00F65C201CF0B9FAA5813C
:1025C0002561208C30B1616A01EB81014900B1FBCA
:1025D000F0F0A083A18BBAFBF1F000EE100A306896
:1025E000B8EE400A00F684201CF0A2FA2584656249
:1025F000B4F8480038B1E16C01EB81014900B1FB4E
:10260000F0F0A4F84400B4F84400B7FBF0F000EE9A
:10261000100A3068B8EE400A00F527601CF088FA0E
:10262000A4F84850E564E08D00EB80010BEA41001E
:102630002086019802F0DCF9A08587E7481F00207A
:10264000384B002080969800340000207FB500258C
:102650001A480095019502951749039501600124D8
:102660004FF480310461C0E90115047680F82050F0
:102670001349C0E90A150226C661C56080F83040DA
:102680004461FEF73AFC08B1FEF780FB0720009595
:10269000CDE9014069460948FEF77AFB08B1FEF72B
:1026A00075FBCDE9004669460448FEF771FB00283A
:1026B00001D0FEF76BFB7FBD00200140904A002057
:1026C0000100000F234808B5016841F48001016052
:1026D0000068002200F48000009005213820FFF7F8
:1026E0001DF83820FFF70CF803F024FB0022052129
:1026F00003F02CF80146392002F076FF392002F071
:1027000004FE03F017FB0022052103F01FF8014629
:102710003A2002F069FF3A2002F0F7FD03F00AFBCD
:102720000022052103F012F80146452002F05CFF6B
:10273000452002F0EAFD03F0FDFA0022052103F036
:1027400005F80146462002F04FFFBDE8084046204C
:1027500002F0DBBD3038024010B59CB01C22164997
:102760006846FDF78DFF0021684619F0DBFD134C2C
:1027700011491C2220601C3107A8FDF781FF0021B0
:1027800007A819F0CFFD0C4960601C2238310EA853
:10279000FDF776FF00210EA819F0C4FD0649A060E0
:1027A0001C22543115A8FDF76BFF002115A819F064
:1027B000B9FDE0601CB010BD04F501084C1F0020FD
:1027C0002DE9F04389B00024069418216846079447
:1027D000FDF7B2FF042003F039FA802003F036FA47
:1027E000012003F033FA022003F030FA65484FF479
:1027F00000510A048261644E48F210173A04B26133
:10280000DFF8888141F238094FEA0943C8F81830E7
:1028100000910125CDE901546946CDE90345FFF753
:1028200083FC0097CDE9015469463046CDE9034564
:10283000FFF77AFCCDF80090CDE901546946404697
:10284000CDE90345FFF770FC4FF47021012003F040
:10285000BFF94FF47001012003F0BAF94FF0706135
:10286000012003F0B5F94A49012003F0B1F98DF8D0
:102870001C508DF81D40032606958DF81E6006A895
:10288000FFF702FC02208DF81C5006908DF81D40C9
:102890008DF81E6006A8FFF7F7FB04208DF81C508A
:1028A00006908DF81D408DF81E6006A8FFF7ECFB22
:1028B0008DF81C50AF028DF81D4006978DF81E60F4
:1028C00006A8FFF7E1FB01221146404602F069FE2F
:1028D00001220221404602F064FE0122042140460A
:1028E00002F05FFE01223946404602F05AFE002205
:1028F0000121404602F01CFE00220221404602F067
:1029000017FE00220421404602F012FE0022394642
:10291000404602F00DFE03F005FA0022052102F008
:10292000FCFE0146062002F04FFE062002F0E0FC0D
:1029300003F0F8F90022052102F0EFFE014607201E
:1029400002F042FE072002F0D3FC03F0EBF9002274
:10295000052102F0E2FE0146082002F035FE0820C3
:1029600002F0C6FC03F0DEF90022052102F0D5FEDC
:102970000146282002F028FE282002F0B9FC09B008
:10298000BDE8F0830008024000000240000402405D
:102990000200000F0F4810B50D4901604FF482711D
:1029A000416000218160C1604FF400720161C0E9A3
:1029B0000512C1610162416281620A21C162FEF7B2
:1029C0000FFF002803D0BDE81040FEF7DFB910BDAF
:1029D00000300140DC4D00200F4810B50D4901606A
:1029E0004FF48271416000218160C1604FF4007238
:1029F0000161C0E90512C1610162416281620A217F
:102A0000C162FEF7EDFE002803D0BDE81040FEF7DE
:102A1000BDB910BD00380040344E002010B586B05E
:102A200014216846FDF788FE012003F027F92048AD
:102A30000068C0F30220C0F10701042900D9042175
:102A4000021D072A01D2002000E0C01E01228A4098
:102A5000521E02F005018140164A0020090182F849
:102A600000144FF0E0224FF08051C2F800116321B2
:102A7000ADF8001010494FF08044CDE901010390FA
:102A800069462046FFF702FC206820F080002060A5
:102A9000A06844F207018843A060606820F07000DD
:102AA0006060A06820F08000A06006B010BD00004B
:102AB0000CED00E01CE000E0FF45C323F0B595B04D
:102AC00014210EA8FDF738FE20216846FDF734FEDC
:102AD000182108A8FDF730FE042003F0CFF863208A
:102AE000ADF83800002442F20F70CDE90F403B4DA5
:102AF0000EA928461194FFF7C9FB286840F0800012
:102B00002860A86844F207018843A860012128468C
:102B100003F072F86020CDE9000440F2DC56CDE904
:102B200002466A46012128460494FFF7FBFB012177
:102B3000284602F085FF1021284603F05DF8019435
:102B40006A46102128460294FFF7ECFB1021284624
:102B500002F076FFAF153946284603F04DF84FF4E2
:102B60007A70CDE902406A46394601942846FFF75B
:102B7000D9FB3946284602F063FFAF143946284690
:102B800003F03AF8CDE902466A46394628460194F0
:102B9000FFF7C8FB3946284602F052FF686820F06C
:102BA00070006860A86820F08000A8600C48016888
:102BB00041F002010160006808A900F002001390D2
:102BC0004FF4707008900220CDE90904CDE90C4063
:102BD0000B940448FFF7A8FA15B0F0BD00080040B8
:102BE0003038024000040240F0B58DB01C21684628
:102BF000FDF7A2FD182107A8FDF79EFD102003F0A8
:102C000049F8012003F02EF84FF4C060079002202D
:102C1000089003200024CDE909040720CDE90B40EA
:102C200007A94548FFF780FA444E4FF000652A4651
:102C30000221304603F06CF800220221304603F0F6
:102C4000DBF900220221304603F0F2F800220221D3
:102C5000304601F093FB00220221304602F0AEFF25
:102C60006F143A460221304602F09EFF00220221F4
:102C7000304602F0A7FD00220221304602F098FD06
:102C80000221304602F030FF2A460721304603F089
:102C90003FF840220721304603F0AEF90022072119
:102CA000304603F0C5F800220721304601F066FBEC
:102CB00000220721304602F081FF3A4607213046C4
:102CC00002F072FF00220721304602F07BFD002255
:102CD0000721304602F06CFD0721304602F004FF68
:102CE000174800680022C0F30220052102F047FDCA
:102CF0000146252002F088FC252002F013FB4FF44A
:102D0000E130CDE900040C200294CDE903400594A4
:102D100006940C4C69462046FFF7CAFB206920F454
:102D200090402061606920F02A006061E06840F412
:102D30000050E0600DB0F0BD0000024000640240B1
:102D40000CED00E00010014030B58FB01C2168464A
:102D5000FDF7F2FC182107A8FDF7EEFC22480168F8
:102D600041F400310160006800F400300D90012052
:102D700002F078FF0C250220CDE907500320002443
:102D8000CDE909040720CDE90B4007A91748FFF753
:102D9000CBF9174800680022C0F30220052102F099
:102DA000EEFC0146262002F02FFC262002F0BAFAA3
:102DB0004FF4E130CDE900040294CDE903450594D8
:102DC00006940C4C69462046FFF772FB206920F4FC
:102DD00090402061606920F02A006061E06840F462
:102DE0000050E0600FB030BD4038024000000240AB
:102DF0000CED00E000440040F0B58DB01C216846A9
:102E0000FDF79AFC182107A8FDF796FC202002F098
:102E100041FF012002F026FF4FF4C050079002202E
:102E2000089003200024CDE909040820CDE90B40D7
:102E300007A94548FFF778F9444E4FF020652A4628
:102E40000121304602F064FF00220121304603F0E8
:102E5000D3F800220121304602F0EAFF00220121CE
:102E6000304601F08BFA00220121304602F0A6FE26
:102E700037153A460121304602F096FE0022012124
:102E8000304602F09FFC00220121304602F090FC07
:102E90000121304602F028FE2A460621304602F083
:102EA00037FF40220621304603F0A6F80022062113
:102EB000304602F0BDFF00220621304601F05EFAE6
:102EC00000220621304602F079FE3A4606213046BD
:102ED00002F06AFE00220621304602F073FC002256
:102EE0000621304602F064FC0621304602F0FCFD6B
:102EF000174800680022C0F30220052102F03FFCC1
:102F00000146472002F080FB472002F00BFA4FF405
:102F1000E130CDE900040C200294CDE90340059492
:102F200006940C4C69462046FFF7C2FA206920F44B
:102F300090402061606920F02A006061E06840F400
:102F40000050E0600DB0F0BD00000240006402409F
:102F50000CED00E000140140FEE77047114C00BF8B
:102F600000F0A2F9064603F0A9FB0546A08A281A3C
:102F700080B2608304280CD30B480068016849695B
:102F800088476561208C401C2084618B606A0844FE
:102F90006062012019F08EF8304601F029FD20838F
:102FA000DEE70000384B0020481F002010B55020FD
:102FB00080F31188BFF34F8FBFF36F8F1AF058FA69
:102FC00018B104494FF080500860002080F3118848
:102FD00010BD000004ED00E02A4810B5016821F0A2
:102FE000070141F00301016000682748016841F4CE
:102FF000404101602548016841F480310160016869
:10300000C1F340410029FAD02049214A091D0B682B
:10301000204C23401A430A600A6822F440320A60B6
:10302000016841F0807101600168C1F340610029CD
:10303000FAD016480830016821F0F00101600168FB
:1030400021F4E05141F480510160016821F46041B4
:103050000160016821F0030141F002010160016893
:1030600001F00C010829FAD10B48FFF709F90020FB
:10307000FEF7F0FA05488C30016821F0807101609C
:1030800010BD0000003C02400070004000380240CB
:103090000C1840000080BFFF00E1F50505480168FD
:1030A00041F47001016003494FF00060803908600D
:1030B0007047000088ED00E00148FEF700BF000007
:1030C0008C4E0020054810B5006840680168C9684A
:1030D000884703480168491C016010BD1C0000209E
:1030E0005C1F0020F0B502681D4B1E4C9F031E4D57
:1030F0001E4E984207D0B84205D0A04203D0A84245
:1031000001D0B04204D122F0700C4A6842EA0C02AD
:10311000984210D0B8420ED0A0420CD0A8420AD09B
:10312000B04208D0124CA04205D0124CA04202D0AE
:10313000114CA04203D122F44074CA6822434C6966
:1031400022F08002224302608A68C2620A688262B8
:10315000984201D10969016301214161F0BD00007C
:10316000000001400004004000080040000C004046
:10317000004001400044014000480140024800680E
:10318000806A0168C9680847180000200248006882
:10319000C06A0168C9680847180000200248006832
:1031A0000168C96808470000E01F0020FEE7000032
:1031B0002DE9FC412E4C07460E466068002500783C
:1031C00010B30A4639462BA001F0DCFF012018F0AD
:1031D00071FF60680178B9B15421801C05F07EFA56
:1031E000B5EEC00AF1EE10FA09DDCDE900762AA3AA
:1031F00003220121002003F077FABDE8FC8160681A
:10320000007808B1322700E005274FF496780026B1
:10321000012003F0FDF86068007800284FF03200CC
:1032200002D018F047FF01E0FEF7E2F8002003F0BB
:10323000EFF86068007800284FF0320002D018F0F4
:1032400039FF01E0FEF7D4F8761CF6B2052EDFD385
:10325000606800780028404602D018F02BFF01E09B
:10326000FEF7C6F86D1CEDB2BD42D0D3C5E7000035
:10327000D81F00200D0A0D0A3E202323232041736E
:1032800073657274202573206174206C696E653AD1
:103290002025640D0A000000234153534552542059
:1032A00025732040256400000148C068406A7047CB
:1032B000D81F002001460248006812F0BBBF000082
:1032C0002000002001460248006812F0BFBF000045
:1032D0002000002013460A4601460248006812F00A
:1032E000C3BF00002000002030B590ED041AD0EDDF
:1032F000081AD0ED070AD0ED052A21EE210A90ED3B
:10330000002A04468BB000EEE20A0D4620EE020AC7
:1033100090ED032A22EE213AD0ED061A62EE200A41
:1033200002EEE13AD0ED012A41EE610A94ED021A73
:1033300009A802EEC30A01EE200A8DED090A03F086
:103340007EF818B9099817F0A8F910B100200BB051
:1033500030BDDDED090AB7EE001A94ED044A81EEA6
:10336000200A94ED082AD4ED072AD4ED053A64EE3C
:10337000020A00204FEA0D0142EEE30A60EE800AE5
:10338000CDED000AD4ED021A94ED011A61EEA20A05
:1033900041EE420A60EE800ACDED010A61EE230A99
:1033A00041EEC40A60EE800ACDED020AD4ED060AB1
:1033B000D4ED034A23EEA03A04EEC23A23EE003ADB
:1033C0008DED033A94ED003A23EE022A01EEE02A55
:1033D00064EEA11A43EE631A22EE002A8DED042A50
:1033E00061EE801ACDED051A64EEA21A40EEC41A01
:1033F00060EE810A43EE620A61EE801ACDED061A94
:1034000060EE800ACDED070A63EE040A44EEC10ABD
:1034100020EE800A8DED080A01EB800292ED000A91
:1034200005EB8002401CC0B282ED000A0928F3D3EC
:1034300001208CE710B50C462DED108B94B0D0ED2B
:10344000053A90ED0A1AD0ED0F0AD0ED0B2A23EEC3
:10345000810A90ED092A63EEA21A90ED063A60EE19
:10346000205A90ED0E0A90ED074A41EEC05A62EEE6
:10347000031A41EEE05A62EE041A41EE805AD0ED92
:103480000D1A61EE834A44EEA25A61EE844A44EE7C
:10349000C15ACDED005ACDED105AD0ED045AD0ED01
:1034A000088A90ED0C8A65EEC14A65EE827A25EEB7
:1034B000A27A28EE835A64EEA0FA67EEA07A28EE8C
:1034C000A39A28EE846A47EE00FA47EE617A68EE26
:1034D000034A68EE046A45EE20FA49EE607A46EE49
:1034E00040FA46EE217A28EE236A44EEE2FA46EEEE
:1034F000227A46EE81FA46EEC27A65EEC26ACDEDD8
:1035000004FA26EE807A65EE816ACDED087A06EE41
:10351000A17A09EE007A05EE617A06EE417A04EEB0
:10352000827A8DED0C7A90ED015AD0ED026A65EE4B
:10353000414A25EE226A62EE26EA61EEA6CA64EEF0
:10354000A04A46EE004A90ED036A62EE069A4EEEFD
:10355000A04ACDED119A49EEC04A21EE869A28EE96
:10356000A6CA68EE86BA28EE26BA68EE06AA4CEE1F
:10357000E24A25EE04EA23EEA6FA49EE014ACDED31
:10358000014AD0ED004A24EE81DA24EEA2AA6DEEC3
:10359000209A4AEE409A4CEE609A4BEE809A4BEE9F
:1035A000229A4AEEC19ACDED059A64EEC29A69EE6E
:1035B000A0DA68EE059A24EE828A4AEE21DA28EE35
:1035C00085AA28EE008A65EE868A0DEE618A4AEEAB
:1035D00020DA24EEA3DA0AEE408A4BEEE1DA0CEEB2
:1035E000218A49EEE2DA09EE818A4AEE82DA0BEEAE
:1035F000428ACDED09DA63EE86DA8DED0D8A25EE8D
:10360000038A28EE208A0EEE408A0FEE608A0DEEC5
:10361000808A0CEE848A64EE84CA09EE438A25EE21
:10362000A69A65EE855A8DED028A24EEC38A28EEAD
:10363000208A0CEE808A09EE208A08EEC08A0BEE02
:10364000448A0AEE838A8DED068A2DEE208A0CEEDE
:10365000E18A05EEE08A64EEE30A60EE800A08EE95
:10366000A18A09EE848A0AEEE38A8DED0A8A24EEA5
:10367000838A48EE210A45EE800A49EE610A49EE46
:10368000C30A4BEE230A25EE430A12A820EE220AB3
:10369000CDED0E0ADDED119A0EEE010A0FEE220AB3
:1036A0000DEEC10A0EEEC40A09EE830A8DED030A7F
:1036B00028EE220A0CEEC10A09EE620A08EE810A1F
:1036C0000CEE040A0BEEC30A8DED070A24EEE30AA2
:1036D00020EE220A0CEE820A05EEA20A08EEC20AC9
:1036E0000AEE440A0BEEA30A8DED0B0A2DEE010A39
:1036F00008EE420A05EEC10A09EE020A0AEE030AC2
:103700000CEE630A8DED0F0ADDED105A24EEA50ACA
:1037100005EE2F0A06EEA70A06EE070A8DED120A3D
:1037200002F08DFE18B9129816F0B7FF20B10020F4
:1037300014B0BDEC108B10BD9DED120AF7EE000A1F
:10374000002080EE801A69468DED121A01EB80028E
:10375000DDED120A92ED000A04EB8002401C20EE1F
:10376000200AC0B2102882ED000AEFD30120DFE763
:10377000074B10B51A881144902901D9002010BDBB
:10378000044C04EB820202601980012010BD00008D
:10379000682300202C9B002000220260024802883F
:1037A000511A018070470000682300202DE9F74F6F
:1037B000814610EE100A2DED020B82B08A46C0F34E
:1037C0001600072901D94FF0070A10EE101A090E4A
:1037D0000A0601D5012700E0002749060A0E10EE6F
:1037E000101A090C090601D5521CD2B252EA000186
:1037F0001DD0FF2A2DD00AB140F40000D108554B4E
:1038000002F00702C2F10F0213F901B0203353F89E
:103810002110A0FB0101FCF75DFE064600200446D6
:1038200000900D464C4845F6F32130221BE047F04E
:103830000201002089F80010302204E009EB0001A9
:10384000401C4A70C0B25045F8D9002007B0BDE80E
:10385000F08F10B147F00807CEE747F00407CBE739
:1038600008F10102D2B29046331A65EB01021E46FE
:1038700015461B1E72F10002F2DA36184D410A227B
:103880000023FCF73AFE009AFAB9B8F1300F13D0D2
:1038900001220092069AA2B10BF1010252B2012A52
:1038A00000DA0122069B1A44521ED2B21346069237
:1038B0009A450AD99A4608E0ABF101024FFA82FB19
:1038C000D2E70AF1010202F0FF0A641CE4B2B8F187
:1038D0003A0F18D209F804805445A6D30A23A0FB56
:1038E000032801FB03814FF0000C00FB0C1040107B
:1038F0004FEA3201711A65EB0005B1EB0C0075F16E
:10390000000009DA22E02046392103E009F800101E
:10391000401EC0B20028F9D13020BCB119F8041003
:10392000491CCAB209F804203A2A0FD1012C04D04C
:1039300009F80400641EE4B2EFE731210BF1010045
:1039400089F801104FFA80FB47F0100789F80070E2
:1039500058467BE72CFE010800407A100C480D49C0
:103960000068401E484300EE100A0C48B8EE401AAA
:103970009FED090AC068C1EE000A406A01EE100A14
:10398000B8EE411AC1EE001A31EEA00A70470000ED
:103990005C1F00200046C32300007A44D81F00208B
:1039A0002DE9F04786B015468A4606464FF00109D4
:1039B00012FB05F10C4601A8FFF7DAFE002874D0CF
:1039C000214602A8FFF7D4FE00286ED0214603A8A6
:1039D000FFF7CEFE002868D001AF009597E80E00F3
:1039E000304601F0ADFC00285FD0214604A8FFF767
:1039F000BFFE00287DD0A10088460498FCF79CFEFD
:103A00002A460499019801F033FC41460198FCF7DD
:103A100093FEDDE901366C1E39D4B7EE000A00BF13
:103A200004FB054006EB800103EB8000D1ED000AAA
:103A300080EE201A80ED001A601E26D400FB05429D
:103A4000214603EB820210E000FB051706EB870717
:103A500097ED001A01FB054703EB8707491ED7EDD9
:103A6000001A41EE610AC2ED000AD2ED000A81425D
:103A7000EADC00FB050106EB8101401E91ED001A16
:103A8000C0EE811AC2ED001AD8D5641EC8D5DDE992
:103A900001022B46049902F0DFFCDDE902012B460E
:103AA000019A02F0D9FC002618E022E0002411E07F
:103AB00016FB0541019850F8210020F00041C1F1AA
:103AC000FF41C90F02D116F0E8FD08B14FF000091F
:103AD000641CE4B2AC42EBD3761CF6B2AE42E5D342
:103AE000424650460199FCF7CBFD0349002008806F
:103AF000484606B0BDE8F0876823002090ED000A34
:103B0000F6EE000AB5EEC00AF1EE10FA03DD30EE73
:103B1000200A17F015BA30EE600A17F03FB800001F
:103B20002DE9F05F0D462DED068B90ED010AF8EEC4
:103B3000C00A9FEDFE0A20EE801AFD4C84ED001AAB
:103B4000D0ED020AF8EEE00A20EE800A84ED010AC8
:103B5000D0ED000AF8EEE00ADFEDF61A60EEA10AF9
:103B6000C4ED020A9FEDF48ADFF8D093F7EE008AE5
:103B700009F1680089ED008AA0F1340AC0ED008ADD
:103B8000A0F54370CAED008A4E46574680ED008A84
:103B9000DFEDEB0AC4ED090AC4ED080AC4ED070A1B
:103BA000F0EE080AC4ED0A0ADFEDE60A20EE200A6C
:103BB00061EE200A84ED0B0AC4ED0C0A17F038FE02
:103BC00084ED0D0A94ED0C0A17F032FE84ED0E0A16
:103BD00094ED0B0A17F018F884ED0F0A94ED0C0A17
:103BE00017F012F884ED100AD4ED0E0A20EE000A48
:103BF00060EEA00AC4ED110A84ED120A94ED0D0ADC
:103C000086ED010A94ED0F0A87ED010A94ED020A90
:103C100094ED071AB4EE410AF1EE10FA08D194EDD2
:103C2000000A94ED081AB4EE410AF1EE10FA77D0CA
:103C3000DFEDC59A9FEDC59AB0EE490A00EEE90A9C
:103C400016F001FD84ED130AD4ED020A20EE800A7D
:103C500084ED140A70EE090A9FEDBDAA30EE0A1A2F
:103C600080EE810A60EE000AC4ED150A94ED110A97
:103C700094ED121A00EE810A16F0E5FC94ED0E1A8E
:103C8000C1EE000AB0EE680AC4ED160A00EEE00AC2
:103C900017F096FE84ED170AD4ED110A9FEDAD1AC8
:103CA0009FEDAD0AF0EE001A00EEC10AD4ED130A42
:103CB00020EEA01AC0EE010A94ED020A94ED141A47
:103CC00020EE000A01EE210A30EE800A84ED180A87
:103CD00017F076FE84ED190A94ED120AD4ED110A5C
:103CE00020EE090A00EE8A0A16F0ADFC84ED1A0AED
:103CF000D4ED020A30EE801AD4ED190AC1EE201A72
:103D000020EE800AC4ED1B1A94ED101AD4ED0E1AA1
:103D100021EE291A21EE211AC1EE000AC4ED1C0A77
:103D200094ED010AD4ED090AB4EE600AF1EE10FA3E
:103D300022D0022049465246C4F8100002EB80030C
:103D400091ED010A53ED010A01EB8006D2ED011A53
:103D500020EE200A16ED011A401C0C2801EE810A03
:103D600086ED000A21EEA00AD1ED010A00EEC10A9B
:103D700083ED000AE2DD20616D4A92ED190ADFED64
:103D8000770A02F180010120C0EE801AB0EE480AE5
:103D9000B0EE401AB0EE403AF0EE402AC2ED1D1AE5
:103DA00061EEA10AC2ED1E0A81ED020A81ED010A4F
:103DB00081ED000A82ED1F0AD060D1ED065AD1EDE7
:103DC000043A91ED054A91ED032AD2ED164AD2ED5F
:103DD0000A7AC96992ED175AD2ED008A92ED089AD3
:103DE000D2ED026A92ED077A00220124431C93FB74
:103DF000F4F660EEA10A9AE1F4EE476AF1EE10FAE9
:103E000004D1F4EE498AF1EE10FA7CD0904219D137
:103E100002EB820301EB800703EBC20307EB83078E
:103E200017ED0E2A62EE053AC7ED003A4C4F07EB4C
:103E3000830303EB800353ED0E3A63EE853A44EEC1
:103E4000823AE2E001286FD05DDD90425BD0831EB4
:103E50009A4209DD02EB820701EB800307EBC20700
:103E600003EB870303ED028A831E9A420ADD02EB0D
:103E7000820303EBC2073A4B03EB870303EB800398
:103E800003ED028A02EB820301EB800703EBC2031E
:103E900007EB830717ED012A324F07EB830707EB88
:103EA000800C22EE242ADCED003A01EB800C0CEBB6
:103EB000830C1CED024A01EB800C0CEB830C03EE2F
:103EC000C42A8CED002ADFF898C00CEB830C0CEBB5
:103ED000800818ED012A01EB800808EB830322EE2D
:103EE000242A53ED013A07EB800305EE632AD3ED54
:103EF000003A0CEB800313ED024A0CEB800303EE57
:103F0000C42A83ED002A02EB8203DFF85C8003EB16
:103F1000C20708EB870303EB800308F5297B93EDC9
:103F2000002A0BEB870321E05EE0000095BFD6334B
:103F3000C82200206F12833A00000000909A0020EF
:103F400000007AC435FA8E3C00FA84482F2F1B4CAF
:103F50003B251A4C80ADA0555724BC589A19C7452B
:103F6000EC97002020FB0108D8F5010803EB800343
:103F7000002AD3ED003AA74B07EEA32A03EB870CE8
:103F80000CEB800C8CED002A18D000BF00EB800CED
:103F90000CEBC00E08EB8E0C0CEB820C1CED012A16
:103FA0000BEB8E0C0CEB820C5CED013A03EB8E0CF0
:103FB0000CEB820C07EEA32A0CED012A01EB800C1E
:103FC0000CEB870C9CED002A22EE202A20D103EB7B
:103FD0008003DAED003A93ED004A99ED006A64EE51
:103FE000233A24EE064A4EE0002A8CD191ED002AB5
:103FF000894F62EE243A07F10403C1ED013AD7ED8F
:10400000003A63EEA43A45EE423AC3ED003A7AE74D
:1040100002EB820C0CEBC20C9B4603EB8C0303EB14
:104020008003D3ED003A0AEB820393ED004A00EBE4
:10403000800303EBC00C0BEB8C0C0CEB820363EEE8
:10404000843A13ED014A09EB820393ED006A02EB17
:10405000820303EBC2080BEB880303EB800344EEFF
:10406000063A93ED004A09EB820393ED006A0CEBEC
:10407000820324EE064A13ED016A0AEB8203D3EDB4
:10408000009A06EE694A644B60EEA39A03EB87033D
:1040900003EB8003614F93ED006AB5EEC05A57F809
:1040A000223009EEC60A06EE103AA7F13403B8EE44
:1040B000C66A53F8203026EE046A06EE023A06EE8F
:1040C000103AB8EEC66A26EE236A46EE022AF1EEF0
:1040D00010FA2AD1012A28D1012852D0A7F5297334
:1040E00003EB800393ED006A4D4B03EB800C5CED1A
:1040F000029A03EB800C03EB80035CED015A65EE42
:10410000A45A46EE695A00BFC3ED005A444B97EDDE
:10411000016A03EB8003B8EEC66AD3ED005A65EE80
:10412000A05A26EE046A06EE251A2244761E002EB8
:104130003FF762AE401C0C287FF756AE394BA3F117
:104140008001C3ED065A83ED021AC3ED043A83EDF4
:10415000054A83ED032A83ED000A83ED013AC1EDA0
:104160001F2A8E61C1E90302C1ED1E0A4C61D1ED27
:10417000171AF5EEC01AF1EE10FA09D183ED011A03
:104180000AE0DFF89CC00CF10403DCED005ABBE749
:10419000C3EE210AC3ED010A91ED1B2AD1ED1C0AE1
:1041A00020EE421A02EEE01A60EE200A85ED001AB7
:1041B00021EE010AD3ED011A42EEC20AC5ED011A41
:1041C00001EEA10AC5ED020A00EEA00A17F0F8FB05
:1041D00085ED050A95ED000AD5ED010A20EE000AED
:1041E00000EEA00A17F0ECFB85ED060AD5ED000AFB
:1041F00095ED010A16F0AAFB85ED030AD5ED060A36
:1042000095ED020A16F0A2FB85ED040ABDEC068BC3
:10421000BDE8F09F48950020EC970020F8FD0108CC
:10422000F89A00204823002010B5806B40210164DB
:10423000416C41F004014164FCF75EFE10BD0000DA
:104240007CB505460C4648686968401A00EE100ABD
:104250002046B8EEC00A8DED000A00F0CDFFA06840
:10426000A968401A00EE900A01A96846F8EEE00A33
:1042700020EE200A8DED010A02F074F8DFED020A4B
:1042800020EE200A7CBD00008262363C0A4810B550
:10429000016849F269038AB25A4302EB1141016095
:1042A000426844F2506493B2634303EB12424260AB
:1042B00002EB014080B210BD0C20002070B5082A2E
:1042C00035D0102A3AD000252A46064620F00100B3
:1042D000801C42F1000462084FEA30031B1862415F
:1042E0001C0944EA0274E31842EB12104FEA13224D
:1042F00042EA0062D21840EB10244FEA124040EA32
:104300000440801844EB1443C0186B41000940EA94
:1043100003701A09434203EB830306EB4303303374
:1043200001F8013B50EA0203CFD1084670BD00F00E
:10433000070230320A70C008F9D1F6E700F00F0228
:104340003032392A00D9D21D01F8012B0009F5D1EC
:10435000EBE730B50468256825F4802525600468FE
:1043600063608368402B036803D099600068C26073
:1043700030BD9A600068C16030BD0000034B595CDD
:10438000435823F4907313434350704782F5010858
:104390002DE9F04F85B088464FEA000B1BF8016B02
:1043A000002E7DD0252E02D00A2E08D00DE01BF85D
:1043B000016B252E09D000273D463C460EE0FD4806
:1043C000006801688A690D219047FA480068016811
:1043D0008A6931469047E1E7202F0BD22B2E1BD064
:1043E00004DC202E1AD0232E04D11DE02D2E18D04F
:1043F000302E0ED0802F34D2A6F1300009281ED8DE
:10440000C0B2790613D504EB840100EB4100C4B2BD
:1044100023E047F0010720E047F0020747F00407D8
:104420001BE047F0080718E047F0100715E005EB20
:10443000850100EB4100C5B247F020070DE02E2EAC
:1044400004D06C2E07D0682E07D00AE0780627D457
:1044500047F0400701E047F080071BF8016B002E92
:10446000BAD1A6F14500022804D8203647F010073B
:10447000F6B205E0A6F16500022871D827F0100712
:1044800008F1070020F00700B0EC020B804651EC69
:10449000100B1AF0E7FD00EE100A780602D400E0D7
:1044A000F3E1062427F0C007652E18D0662E19D038
:1044B0000CB1641EE4B238061AD5F0EEC00A10EE54
:1044C000900ABD49884205DD27F0800040F0400792
:1044D00038060DD507213C2C07D2601C06E047F0BA
:1044E0004007E8E747F08007E5E73C20C0B204E07A
:1044F0000A2C00D90A24214600208146024668463B
:10450000FFF754F906469DF800A0002004905FEAEA
:10451000CA7004D05FEA0A7001D42D2006E0B80703
:1045200001D52B2002E0780701D5202004901AF055
:104530000C0F32D0049808B1042000E0032085421B
:104540000FD9281AC5B238070CD49A4C20680168D4
:104550008A69202190476D1E15F0FF05F6D101E014
:1045600010E10025049828B19248006801688A6922
:104570000499904791A45FEA0A7000D590A48D4EEB
:10458000217800296FD0F80601D52039C9B23068EA
:10459000026892699047641CF2E738061AD509EB65
:1045A000060000F0FF095FEACA6007D59DF8010028
:1045B000312803D1A9F1010000F0FF094FFA89F079
:1045C000012801DA012003E0B9F1080F1FD9082002
:1045D00081461CE0780620D4A64204DC16F1040FC4
:1045E00001DB47F0800768461CB101194978302982
:1045F00008D0380611D5601C00F0FF09B44204DD74
:10460000A01B03E0641EE4B2EEE70020C4B2002E5B
:1046100001DD701C02E0012000E00520049901B1D9
:10462000401C0CB12044401C854201DD281A00E0EA
:104630000020C5B217F0090F08D009E05D480068F6
:1046400001688A69202190476D1EEDB2002DF5D1D9
:10465000049828B15748006801688A69049990470E
:10466000380709D50AE08CE05248006801688A6979
:10467000302190476D1EEDB2002DF5D1380635D5AD
:10468000002E01DD374601E0002707E0781C05D148
:104690004848006801688A692E219047B74208DCC3
:1046A000A6EB0900B84204DAF11B684608444178D9
:1046B00000E0302160427F1E874206DB29B13D4881
:1046C0000068026892699047E0E7B74209D19DF817
:1046D0000100352803D804D15FEACA6001D4312132
:1046E00001E000294DD03348006847E09DF80110F3
:1046F000312901D02AF0100A2E4800680268926918
:104700009047B4B12B48006801688A692E21904710
:104710004FF0020927481DF8091009F1010200684D
:1047200002F0FF09026892699047641E14F0FF04CA
:10473000F0D1F80601D5452100E065211D4C206827
:104740000268926990472B21002E03DB04D15FEAB7
:10475000CA6001D576422D2120680268926990478F
:10476000302102E0491CC9B20A3E0A2EFADA20685A
:1047700002689269904730362068F1B20268926907
:10478000904710E1532E34D0632E1BD0732E20D0CF
:10479000642E59D0692E57D0752E67D027F00607A2
:1047A000582E73D06F2E65D0702E65D0782E6CD1B8
:1047B00064E00000E01F00207F96184B696E6600E1
:1047C0006E616E0018F8041B8DF80010E946012692
:1047D0000CE058F8049B4846FBF7EEFE06467806C8
:1047E00001D44FF0FF34A64200D9264627F08000BE
:1047F0000EE058F8049B4846FBF7DEFE06467806B6
:1048000001D44FF0FF34A64200D9264647F080007D
:10481000000715D46B4CAE4212D2206801688A6939
:10482000202190476D1EEDB2F5E7206819F8011BB5
:104830000268926990470DB16D1EEDB2761E00E0E0
:10484000604C002EF1D1AEE058F8040B27F0900632
:10485000002802DA404246F080060A226946FFF745
:104860002DFD6946401AC0B2814621E027F01007AD
:104870000A2111E008210FE047F01007F80601D5E2
:1048800047F00407102107E000E098E0F80601D5A2
:1048900047F006074FF40471CAB258F8040B694692
:1048A000FFF70CFD6946401AC0B2814627F080062A
:1048B000074670060AD526F00106A74206D227460B
:1048C000F00613D5700703D426F01006F0060DD5B8
:1048D00001EB090010F8010C302804D07F1CFFB256
:1048E000700706D407E026F0160604E016F0860FDF
:1048F00001D07F1CFFB2300715D4F00706D04C461C
:10490000AF4203D2E81B4844C4B22F46DFF8B4A03C
:10491000AF4208D2DAF8000001688A692021904786
:104920007F1CFFB2F4E7AF4201D2E81B00E0002099
:10493000C5B2F0060ED5234F386801688A69302168
:104940009047700715D5B00701D5582100E07821B0
:1049500038680BE016F0860F0BD02021B00700D589
:104960002B21300600D52D21164800680268926977
:104970009047144E4C4507D9306801688A69302148
:104980009047641EE4B2F5E74FEA0D043068A9F1E0
:10499000010101F0FF09026814F8091092699047BB
:1049A000B9F1000FF2D1074C002D3FF414AD20688F
:1049B00001688A69202190476D1EEDB2F4E705B0C9
:1049C000BDE8F08FE01F00200A88504080EA001008
:1049D000C0B2120A82EA002282EAC00282EA101001
:1049E0000880704700B5034601F068FEC01A00BD9C
:1049F0000549C968496A814201D9081A7047034AC2
:104A0000101A084470470000D81F0020FF45C32338
:104A100010B50146806B026C12F0500F05D0026C8D
:104A2000D20626D5FCF768FA10BD016C41F400717E
:104A3000016401688A6812F0405F17D1027EAAB94A
:104A4000CA6A12F4700F02D08A6852050ED44A68FE
:104A500022F020024A60016C21F480710164016C33
:104A6000C90403D4016C41F001010164FCF742FA6E
:104A700010BD806BC26CBDE81040084610470000B6
:104A80002DE9FF4F85B09B4682460024A1F1010924
:104A9000079800785FEA0008079800F10100079086
:104AA00078D0B8F1250F03D0B8F10A0F0BD011E080
:104AB000079810F8018B0790B8F1250F0AD000274E
:104AC0003E463D460FE04C4504DA0D210AF804103D
:104AD000641CE4B24C45DBDA0AF80480641CE4B2DE
:104AE000D6E7202F0FD24046B8F12B0F1DD005DCA2
:104AF00020281CD0B8F1230F05D11EE02D2819D095
:104B0000B8F1300F0ED0802F3AD2A8F1300009282A
:104B10001ED8C0B2790613D505EB850100EB410024
:104B2000C5B226E047F0010723E047F0020747F04F
:104B300004071EE047F008071BE047F0100718E0E5
:104B400006EB860100EB4100C6B247F0200710E0FB
:104B5000B8F12E0F06D0B8F16C0F08D0B8F1680F7D
:104B600007D00DE0780615D447F0400701E047F084
:104B70008007079810F8011B0790B1F10008B0D129
:104B8000A8F14500022806D8653047F0100700F06C
:104B9000FF0806E028E2A8F16500022879D827F08E
:104BA00010070BF1070020F00700B0EC020B834662
:104BB00051EC100B1AF056FA00EE100A780600D4E9
:104BC000062527F0C007B8F1650F19D0B8F1660FB8
:104BD00019D00DB16D1EEDB238061AD5F0EEC00A2F
:104BE00010EE900AFD49884205DD27F0800040F074
:104BF000400738060DD507213C2D07D2681C06E07A
:104C000047F04007E8E747F08007E5E73C20C0B2FF
:104C100004E00A2D00D90A252946002080460246D4
:104C20006846FEF7C3FD9DF800200023D10703D09E
:104C3000110701D42D2306E0B90701D52B2302E08B
:104C4000790700D5202312F00C0F32D00BB10420CD
:104C500000E0032086420FD9301AC6B238070CD4C0
:104C600020204C4503DA0AF80400641CE4B2761EE6
:104C700016F0FF06F5D100E000262BB14C4503DA13
:104C80000AF80430641CE4B2D5A011070DD5D5A0F4
:104C90000BE00DE1FA0601D52039C9B24C4503DA23
:104CA0000AF80410641CE4B2401C01780029F1D118
:104CB00013E2390619D508EB000101F0FF08D1060F
:104CC00007D59DF80110312903D1A8F1010101F0A8
:104CD000FF084FFA88F1012901DA012103E0B8F158
:104CE000080F22D9082188461FE0790623D4A8425C
:104CF00004DC10F1040F01DB47F08007694635B191
:104D000001EB050C9CF801C0BCF1300F08D039064E
:104D100011D5691C01F0FF08854204DD291A03E062
:104D20006D1EEDB2EBE70021CDB2002801DD411C84
:104D300002E0012100E0052103B1491C0DB1294425
:104D4000491C8E4201DD711A00E00021CEB217F03D
:104D5000090F09D00BE04C4503DA0AF80410641C73
:104D6000E4B2761EF6B200E02021002EF3D12BB182
:104D70004C4503DA0AF80430641CE4B239070AD45B
:104D8000302146B14C4503DA0AF80410641CE4B241
:104D9000761EF6B2F5E7390638D5002801DD014662
:104DA00001E0002108E04B1C06D14C4504DA2E2717
:104DB0000AF80470641CE4B2814208DCA0EB08032A
:104DC0008B4204DA471A6B463B445B7800E03023A1
:104DD0006F42491EB94207DB33B14C45E3DA0AF8AA
:104DE0000430641CE4B2DEE7814208D19DF8010082
:104DF000352802D803D1D00601D4312301E0002B9D
:104E000055D04C4553DA0AF804304EE09DF80110B5
:104E1000312901D022F010024C4503DA0AF80410BF
:104E2000641CE4B2B5B14C4504DA2E210AF8041032
:104E3000641CE4B202216B464C4507DA13F801808A
:104E4000491C0AF80480641CC9B2E4B26D1E15F056
:104E5000FF05F1D14C4508DAF90601D5452100E0FE
:104E600065210AF80410641CE4B22B21002802DB3F
:104E700003D1D20601D540422D214C4503DA0AF870
:104E80000410641CE4B2302102E0491CC9B20A38A3
:104E90000A28FADA4C4503DA0AF80410641CE4B272
:104EA0004C4504DA30300AF80400641CE4B214E122
:104EB0004046B8F1530F2FD0632817D0B8F1730FC5
:104EC0001BD0B8F1640F52D0B8F1690F4FD0B8F1D0
:104ED000750F5DD027F00607582867D06F285BD084
:104EE00070285BD0B8F1780F7ED159E01BF8041B15
:104EF0008DF80010E84601200BE05BF8048B40467B
:104F0000FBF75AFB790601D44FF0FF35A84200D9D0
:104F1000284627F080010DE05BF8048B4046FBF744
:104F20004BFB790601D44FF0FF35A84200D9284643
:104F300047F08001090717D42021B04214D24C4514
:104F400003DA0AF80410641CE4B2761EF6B2F4E741
:104F50004C4505DA18F8012B0AF80420641CE4B269
:104F60000EB1761EF6B2401E0028F1D1B5E05BF816
:104F7000040B27F09007002802DA404247F0800730
:104F80000A226946FFF79AF96946401AC1B21EE043
:104F900027F010070A210FE008210DE047F0100765
:104FA000F80601D547F00407102105E0F80601D501
:104FB00047F006074FF40471CAB25BF8040B694668
:104FC000FFF77CF96946401AC1B227F0800708460E
:104FD0007A0612D527F00107A84206E07F96184B03
:104FE000696E66006E616E0084E006D22846FA069D
:104FF00013D57A0703D427F01007FA060DD50DEB69
:10500000010212F8012C302A04D0401CC0B27A07E9
:1050100006D407E027F0160704E017F0860F01D04A
:10502000401CC0B23A0714D4FA0706D00D46B0426D
:1050300003D2301A0844C5B230462022B04208D20A
:105040004C4503DA0AF80420641CE4B2401CC0B2E8
:10505000F4E7B04201D2301A00E00020C6B2F806F0
:1050600012D54C4504DA30200AF80400641CE4B27E
:10507000780719D54C4517DAB80701D5582200E052
:1050800078220AF804200DE017F0860F0CD02020BB
:10509000BA0700D52B203A0600D52D204C4503DA5F
:1050A0000AF80400641CE4B230208D4208D94C4553
:1050B00003DA0AF80400641CE4B26D1EEDB2F4E7F2
:1050C00068464C4509DA491E11F0FF01435C0AF8B5
:1050D000043004F10104E4B2F3D12020002E3FF4A7
:1050E000FFAC4C4503DA0AF80400641CE4B2761EF7
:1050F000F6B2F3E709B0BDE8F08F90ED000AD1ED0C
:10510000000A10EE100A20F00040C0F1FF40002815
:1051100008D592ED000A30EE800AF6EE000A20EE85
:10512000200A7047B4EEE00AF1EE10FA06D3D2ED91
:10513000000AB4EEE00AF1EE10FAF2DDB0EE600A19
:10514000704770B5064614460D46B0F9000019F0D8
:10515000BAFF15F0ABFA48B1B5F90000B4F9001088
:10516000084400EBD07040F34F0070BDB6F900006A
:10517000B5F90010884203DBB4F900108842F4DD71
:10518000084670BD0FB430B5124CA1B060684078CD
:10519000002819D080216846FBF7CEFA25AB802184
:1051A0006846249AFFF76CFC0021A06916F08EFF78
:1051B000050008D080226946FBF71DFA2946A06940
:1051C00017F006F820B1002021B030BC5DF814FBC8
:1051D0000120F9E7D81F002001460248006801F0CD
:1051E0002FBC0000DC1F002001460248006801F0CF
:1051F0007DBC0000DC1F00207CB5184C05464068D3
:105200002168091A00D54942154A914202DA94ED03
:10521000010A7CBD00EE100ADFED120AB8EEC00AEA
:1052200020EE200ADFED100A20EE200A15F0ECFC3B
:1052300084ED010A9FED0D0A08488DED000AB7EED6
:10524000000A8DED010A01AA6946001DFFF755FF0E
:1052500084ED010A686820607CBD00001C200020ED
:10526000A086010095BFD63335FA8E3C0AD7233C81
:10527000F0B5002339E000BF03FB023400EB8405E6
:10528000F7EE000A95ED000A01EB840480EE801A27
:1052900084ED001A5C1C25E004FB02361D4601EB80
:1052A000860610E004FB025700EB8707D7ED000AE3
:1052B00005FB023701EB87076D1C97ED001A00EE26
:1052C000C10A86ED000A96ED000AA542EADB04FB5E
:1052D000024500EB8505641CD5ED000A80EE201A1E
:1052E00086ED001A9442D7DB5B1C9342C4DBF0BD11
:1052F000002809DB00F01F020121914040098000D5
:1053000000F1E020C0F800117047002809DB00F030
:105310001F02012191404009800000F1E020C0F807
:1053200000117047002809DB00F01F0201219140A5
:105330004009800000F1E020C0F800117047000033
:105340002DE9F84F0D460A9C824604FB04F84FEA0B
:1053500088079946164639462846FBF7EDF939463F
:105360003046FBF7E9F939464846FBF7E5F92246AE
:105370004946504601F0E2F941466846FEF7F8F921
:10538000002876D0234651464846009A01F064F83A
:105390000020B7EE000A07E000FB040105EB8101E5
:1053A000401C81ED000AC0B2A042F5D3002059E0B4
:1053B000002153E0814221D801FB0402009B03EB52
:1053C000820393ED000A06EB8203002283ED000ABC
:1053D00012E000BF01FB042705EB8707D7ED000AA9
:1053E00002FB040706EB8707521C97ED001AD2B2A6
:1053F00000EEC10A83ED000A8A42EBD381422BD32F
:1054000001FB0402009B03EB820393ED000A05EB12
:105410008203002283ED000A12E000BF01FB042793
:1054200005EB8707D7ED000A02FB040706EB8707A9
:10543000521C97ED001AD2B200EEC10A83ED000AA9
:105440008242EBD300FB040206EB8202D2ED000A9B
:1054500080EE201A83ED001A491CC9B2A142A9D3DB
:10546000401CC0B2A042A3D341466846FEF794F95F
:105470000120BDE8F88F002901D0FBF7BCB87047C8
:1054800030B585B098B101250A1DAB1E01F10804A5
:10549000012810D0022813D003280AD1CDE90151E8
:1054A000CDF80050CDE903240222012110E081EC67
:1054B000030A05B030BD0095CDE901310123F1E7C4
:1054C00002AD022085E81600CDE900030122114655
:1054D000002000F06DFAECE70120704710B501469E
:1054E00000208B698A6A4FF0C07453B1B3F5005F36
:1054F00015D072B1012A0CD0022A0AD0032A09D190
:1055000004E01AB1012A06D0022A03D1C96AC901EE
:1055100000D5012010BDC96AA142FAD010BD002AF1
:10552000F7D0012AF2D0022AF3D0032AF3D010BD1B
:1055300030B5036891FAA1F4B4FA84F46500032449
:10554000AC4091FAA1F1B1FA81F14900A3438A403C
:105550001343036030BD30B5036891FAA1F4B4FA87
:1055600084F465000324AC4091FAA1F1B1FA81F111
:105570004900A3438A401343036030BD30B503683C
:1055800091FAA1F4B4FA84F465000324AC4091FAD2
:10559000A1F1B1FA81F14900A3438A4013430360AA
:1055A00030BD30B5C36891FAA1F4B4FA84F4650053
:1055B0000324AC4091FAA1F1B1FA81F14900A3436F
:1055C0008A401343C36030BD0907090E002804DB7D
:1055D00000F1E02080F80014704700F00F0000F1A7
:1055E000E02080F8141D70470907090E002804DB2D
:1055F00000F1E02080F80014704700F00F0000F187
:10560000E02080F8141D70470907090E002804DB0C
:1056100000F1E02080F80014704700F00F0000F166
:10562000E02080F8141D70470907090E002804DBEC
:1056300000F1E02080F80014704700F00F0000F146
:10564000E02080F8141D70472DE9F04115460E4604
:10565000070003D13D210CA0FDF7AAFD164C2780C1
:105660001EB9402108A0FDF7A3FD26611DB9432105
:1056700005A0FDF79DFD00211048656116F02CFD89
:10568000A061BDE8F08100002E2E5C2E2E5C4465EA
:105690007653747564696F5C4672616D655C436FC7
:1056A00072655C476C6F62616C46756E5F537973AF
:1056B0002E63707000000000D81F0020B4F50108B0
:1056C000FEB5104D0024A969C9B10022684616F044
:1056D00037FDDDE90006202811D180210A48FBF7BB
:1056E0002BF8802231460848FAF785FF3146A86931
:1056F00016F020FD044905A000F05CFE01242046C0
:10570000FEBD0000D81F002050930020257300002C
:1057100010B5806BFBF7EFFB10BD30B500F0070351
:10572000C3F10704042C00D90424181D072801D252
:10573000002300E0DB1E012505FA04F0401E0840AE
:1057400098409D406D1E1540284330BD30B500F097
:105750000703C3F10704042C00D90424181D0728EB
:1057600001D2002300E0DB1E012505FA04F0401EF3
:10577000084098409D406D1E1540284330BD30B50F
:1057800000F00703C3F10704042C00D90424181DFA
:10579000072801D2002300E0DB1E012505FA04F0F2
:1057A000401E084098409D406D1E1540284330BD66
:1057B000034B595C435823F4C04313434350704791
:1057C00082F50108034B595C435823F4C05313433B
:1057D0004350704782F501082DE9F0410646192033
:1057E000A1FB00011F46002364243225B2F5004FBF
:1057F00027D0BB0FBA00FAF7F6FD0146B0FBF4F074
:105800006FF01802504301EB800005EB0010B0FB75
:10581000F4F000F0F002B1FBF4F002EB0012B1FB87
:10582000F4F06FF01803584301EB800005EB001013
:10583000B0FBF4F000F00F00104480B2B060BDE89F
:10584000F081FA195B41FAF7CEFD0146B0FBF4F0A6
:105850000201B1FBF4F06FF01803584301EB800034
:1058600005EBC000B0FBF4F000F0F80002EB4002E2
:10587000B1FBF4F0584301EB800005EBC000B0FB36
:10588000F4F000F00700D7E72DE9F04106461920B3
:10589000A1FB00011F46002364243225B2F5004F0E
:1058A00027D0BB0FBA00FAF79EFD0146B0FBF4F01B
:1058B0006FF01802504301EB800005EB0010B0FBC5
:1058C000F4F000F0F002B1FBF4F002EB0012B1FBD7
:1058D000F4F06FF01803584301EB800005EB001063
:1058E000B0FBF4F000F00F00104480B2B060BDE8EF
:1058F000F081FA195B41FAF776FD0146B0FBF4F04E
:105900000201B1FBF4F06FF01803584301EB800083
:1059100005EBC000B0FBF4F000F0F80002EB400231
:10592000B1FBF4F0584301EB800005EBC000B0FB85
:10593000F4F000F00700D7E704490968044A01F0D1
:10594000F0010909515CC840704700000838024066
:1059500092F50108F8B5044640684FF48273984206
:1059600021D1A0684FF48065B0F5004F01D0A84266
:105970000AD12068066826F04006066060689842F2
:1059800011D1A068A8420ED000920B4600228021BF
:10599000204600F057FA002804D0606D40F0200047
:1059A00060650320F8BD00920B4600220121EFE75D
:1059B000FEB502EE101A0AAF6946B8EEC22A97E8A1
:1059C000700020EE020A01EB8000DDED091A089F4D
:1059D00080ED000A00EE103A01EB8200B8EEC00A3A
:1059E00020EE800A80ED000AB8EEE10A01EB8700A4
:1059F00021EE000A80ED000A9DED000A84ED000A08
:105A00009DED010A85ED000A9DED020A86ED000A72
:105A1000FEBD000002490A6802430A6070470000A8
:105A2000003C01400069814301D000207047012003
:105A300070470069814301D0002070470120704702
:105A4000012919D0042919D0102919D0402919D0B9
:105A5000B1F5807F18D0B1F5806F17D006210C4AC0
:105A60001830525C10440268094BDB1D5B5C04215A
:105A700099408A43026070470021F0E70121EEE778
:105A80000221ECE70321EAE70421E8E70521E6E744
:105A900074F5010804490968044A01F4E05102EB75
:105AA00091210978C840704708380240A2F50108E2
:105AB00004490968044A01F4604102EB5131097854
:105AC000C840704708380240A2F50108054808B5EB
:105AD000016841F004010160006800F004000090DA
:105AE00008BD000030380240034A1430515C0A58A7
:105AF00022F004020A50704782F501080748006846
:105B000010F00C01064807D0042904D0082903D15D
:105B1000082000F0D5B8034870470000083802405C
:105B20000024F40040787D0138B504461248134B38
:105B30000068B0FBF3F04FF47A735843009060684C
:105B4000B0F5827F0DD10B460092002280212046C5
:105B500000F078F970B1606D40F0200060650320BE
:105B600038BD009830B1401E009020688068C04366
:105B70000006F6D5002038BD6C1F002000366E01EF
:105B800001681823CAB2103AB2FBF3F2054B6FF367
:105B90000901032A9B5CC36500D9091D816508467C
:105BA000704700008AF50108034B595C435823F401
:105BB000806313434350704782F50108034B595CDF
:105BC000435823F4007313434350704782F5010890
:105BD0000A06930D074A1A44D2F8083823EA1143FB
:105BE000090C91FAA1F1B1FA81F188400343C2F89E
:105BF0000838704700300140012919D0042919D014
:105C0000102919D0402919D0B1F5807F18D0B1F5ED
:105C1000806F17D006210C4A1830525C104402687D
:105C2000094BDB1D5B5C082199400A430260704709
:105C30000021F0E70121EEE70221ECE70321EAE78A
:105C40000421E8E70521E6E774F50108044908B5F1
:105C50000A6802430A6009680140009108BD00001B
:105C600030380240044908B50A6802430A600968EE
:105C70000140009108BD000030380240044908B5D9
:105C80000A6802430A6009680140009108BD0000EB
:105C900040380240044908B50A6802430A600968AE
:105CA0000140009108BD00004438024003490968E2
:105CB000884301D00020704701207047143C014008
:105CC00010B5104A04460020116811F480030E49F3
:105CD00003D0B3F5800F00D10C49082C11D1106806
:105CE00000F03F00B1FBF0F01168C1F388114843A8
:105CF0001168012201F4403102EB11414900B0FB6F
:105D0000F1F010BD043802400024F40040787D0119
:105D1000034B595C435823F060631343435070476F
:105D200082F5010802480068C0F3022070470000B5
:105D30000CED00E002480068C0F30220704700004C
:105D40000CED00E00249C0EB001001EBC000704711
:105D5000589400202DE9F04F91B01446DDE91A89DE
:105D6000DDE91FBE0D46DDE92621DDF884C0249F54
:105D7000CDE90038ADF810B00646DDF870A0ADF8FA
:105D800012E02F98ADF814C0229BCDE9029AADF82D
:105D90001630239BADF81830259BADF81C30ADF8BC
:105DA0002010ADF81E202899ADF822102A99ADF8E0
:105DB00024102B99ADF826102C99ADF828102D99A8
:105DC000ADF81A70ADF82A102E99ADF82C10ADF878
:105DD0002E003098ADF830003198ADF8320032988E
:105DE000ADF834003398ADF836001D988DF83800C2
:105DF0001E988DF8390029988DF83A0034988DF85E
:105E00003B0035988DF83C0036988DF83D003E22D9
:105E1000694604F10800FAF733FC7620E0713E236E
:105E20002A463146204616F04DF811B0BDE8F08FF5
:105E3000034B595C435823F440331343435070479A
:105E400082F501082DE9F8431E469146884604462E
:105E5000089DFBF7D7FB401B351AFBF7D3FB074622
:105E600025480068C0F3CB30684338E0701C37D059
:105E7000FBF7C8FBC01BA84203D215B1009860B362
:105E80002CE02068416821F0E00141606068B0F5D5
:105E9000827F0BD1A068B0F5004F02D0B0F5806FC3
:105EA00004D12068016821F040010160A06AB0F5CA
:105EB000005F09D12068016821F400510160206869
:105EC000016841F400510160012084F85100002074
:105ED00084F850000320BDE8F8830025401E0090A0
:105EE0002068816838EA010004D000214945BDD10D
:105EF0000020F0E70121F9E76C1F002090ED000A77
:105F0000F0EE000A15F062B910B50C462DED028BCB
:105F1000FFF7F4FFB0EE408A2046FFF7EFFF38EEC0
:105F2000000ABDEC028B10BD70B514462DED028B3E
:105F30000D46FFF7E3FFB0EE408A2846FFF7DEFF8D
:105F400038EE008A2046FFF7D9FF38EE000ABDEC94
:105F5000028B70BDF0B59DB0DC8E0DF1640C93F832
:105F60003D7093F83C6093F83B508CE8F000B3F937
:105F70002E400DF1540C9F8E5E8E1D8E8CE8F0002D
:105F8000B3F926400DF1440CB3F92C70B3F92A6033
:105F9000B3F928508CE8F0001C8C0DF1340CB3F9E7
:105FA000247093F83A605D8C8CE8F000B3F91840E7
:105FB0000DF1240CB3F91E70B3F91C60B3F91A503B
:105FC0008CE8F0001C8A0DF1140CDF8A9E8A5D8A31
:105FD0008CE8F00093F8397093F83860D3E9024503
:105FE0000DF1040C8CE8F0005C6800941B68FFF76E
:105FF000B1FE1DB0F0BD0000034B595C435823F0C7
:10600000C00313434350704782F501082DE9F04F58
:1060100091B00D460646DDE92D011446DDE92172F9
:10602000DDE91AABDDE91C89DDF878E0DDF880C038
:1060300000938DED010ACDE90201CDED040A8DED4D
:10604000051AADF818A0ADF81AB0ADF820E01F9809
:10605000ADF82820ADF822002398ADF82A00ADF85D
:106060001C802498ADF81E90ADF82C002598ADF852
:106070002E00ADF824C02698ADF82670ADF830009B
:106080002798ADF832002898ADF834003198ADF873
:10609000360029988DF838002A988DF839002B9809
:1060A0008DF83A002C988DF83B002F988DF83C0025
:1060B00030988DF83D003E22694604F10800FAF759
:1060C000DFFA7420E0713E232A463146204615F05F
:1060D000F9FE11B0BDE8F08F70B5C5780E460446E4
:1060E0000B2D00D30B250B213046FAF725FB2A4652
:1060F00004F108013046BDE87040FAF7C1BAF0B5C6
:1061000099B00DF1500CDC68DF8E93F83D6093F888
:106110003C508CE8F00093F839400DF1400C93F8B6
:106120003B6093F83A509F688CE8F0001C8E0DF1AC
:10613000300C93F83870B3F93460B3F932508CE80E
:10614000F000B3F928400DF1200CDF8D9E8D5D8DA0
:106150008CE8F000B3F920400DF1100CB3F9267073
:10616000B3F92460B3F922508CE8F000B3F9184079
:10617000B3F91E70B3F91C60B3F91A508DE8F00042
:1061800093ED051AD3ED040A93ED010A1B68FFF79E
:106190003DFF19B0F0BDD0ED000A91ED000AF4EE1C
:1061A000C00AF1EE10FA01DDB0EE600A7047D0EDE2
:1061B000000A91ED000AF4EEC00AF1EE10FA01D2E5
:1061C000B0EE600A70472DE9F04F91B00D46DDE961
:1061D0001CABDDE91E79DDE91A8C144606463299BE
:1061E000ADF808A02B9A35980093ADF80AB0ADF839
:1061F0000C70209BADF80E90ADF81030219BADF8DF
:106200001230229BDDF8A4E0ADF81430ADF8048024
:10621000239BADF806C0ADF81630249BADF81830BE
:10622000259BADF81A30269BADF81C30279BADF8A6
:1062300024202D9AADF81E30ADF826202E9AADF808
:1062400028202A9B2F9AADF820E0ADF82230ADF837
:106250002A20309AADF82C20319AADF82E20ADF8D6
:1062600030103399ADF832103499ADF83410ADF8E0
:1062700036003698ADF838003798ADF83A002898CF
:106280008DF83C002C988DF83D003E22694604F1C3
:106290000800FAF7F5F97520E0713E232A463146E9
:1062A000204615F00FFE11B0BDE8F08FF0B59FB09D
:1062B0009C8E0DF1680CB3F93A70B3F93860DD8E3D
:1062C0008CE8F0009C8D0DF1580C5F8EB3F93060B6
:1062D000DD8D8CE8F00093F83D400DF1480CB3F9EA
:1062E0002A70B3F92860B3F926508CE8F00093F8CF
:1062F0003C400DF1380CB3F92470B3F92260B3F9C6
:1063000020508CE8F000B3F918400DF1280CB3F9D7
:106310001E70B3F91C60B3F91A508CE8F000B3F9A1
:1063200010400DF1180CB3F91670B3F91460B3F9FD
:1063300012508CE8F000B3F908400DF1080CB3F9E5
:106340000E70B3F90C60B3F90A508CE8F000B3F9A1
:106350000650B3F90440CDE900451B68FFF733FF51
:106360001FB0F0BD10B5FFF7CFFDBDE8104015F030
:1063700027BB10B5FFF7D8FDBDE8104015F020BBD6
:10638000DFED020A20EE200A70470000E02E654291
:10639000DFED020A20EE200A70470000E02E654281
:1063A0000FB4802110B504AB039AFEF769FB10BC53
:1063B0005DF814FB0FB410B503A90298FDF7E8FFD0
:1063C000064CA06818B9BE2105A0FCF7F1FEA06834
:1063D0000168096A884710BC5DF814FBD81F0020CB
:1063E0002E2E5C2E2E5C44657653747564696F5C4A
:1063F0004672616D655C436F72655C476C6F62618C
:106400006C46756E5F5379732E63707000000000E8
:106410000449D1E9042110B10804906170479161E9
:1064200070470000D81F0020032A04D0042A04D09B
:10643000D2B2FDF7B5BAFCF757BFFCF7FBBF90ED42
:10644000000AB0EEC00A10EE100AB0F1505F01DA97
:1064500001207047002070472DE9F0411C460E4690
:106460000746154613FB04F081001046FAF764F95D
:10647000002223E000211DE0002012FB041305EBA5
:10648000830313E093ED000A12FB040C07EB8C0C62
:10649000DCED000A10FB041C06EB8C0C401C9CED90
:1064A000001AC0B200EE810A83ED000AA042E9D3CF
:1064B000491CC9B2A142DFD3521CD2B2A242D9D3E5
:1064C000BDE8F08110B500F0B5F810EE100A0449EF
:1064D000884203DDDFED030A30EE600A10BD0000E4
:1064E000DB0F4940DB0FC940464910B54A6822F42A
:1064F00040324A604A6843681A434A6001684A6801
:1065000022F480724A6001684A68036942EA032201
:106510004A6001684A6822F040724A6001684A682D
:1065200083681A434A6001688A6822F400628A60BC
:1065300001688A68C3681A438A60816A6FF0706272
:10654000D14201688A6822F070628A6001688A68B4
:106550000CD0836A1A438A6001688A6822F040522C
:106560008A6001688A68C36A1A4301E022F04052D7
:106570008A6001688A6822F002028A6001688A687B
:10658000037E42EA43028A6090F8201000290168E5
:106590004A680FD042F400624A6001684A6822F4F7
:1065A00060424A6001684A68174C436A04EB43330F
:1065B0001A4301E022F400624A600168CA6A22F4C8
:1065C0007002CA620168CA6A838B104C04EB0353E1
:1065D0001A43CA6201688A6822F400728A600168FC
:1065E0008A6890F8303042EA43228A6001688A68FB
:1065F00022F480628A6001688A68406942EA8020E9
:10660000886010BD0023014000E0FFFF0000F0FFA4
:1066100090ED000AD1ED000A30EE600AB0EEC00A3B
:1066200010EE100AB0F1505F01DA0120704700202F
:106630007047000010B52DED028B9FED098A90ED9B
:10664000000AF0EE480A14F0B3FCB5EEC00AF1EE11
:1066500010FA01D230EE080ABDEC028B10BD00002A
:10666000DB0FC94010B52DED028B9FED098A90ED2F
:10667000000AF0EE480A14F09BFCB5EEC00AF1EEF9
:1066800010FA01D230EE080ABDEC028B10BD0000FA
:106690000000B44330B50749CB685A6A06498C1AE2
:1066A000596A914201D38D1A00E065188542F7D3EB
:1066B000881A30BDD81F0020FF45C3230748094A68
:1066C00001680748491E41434FF47A70B1FBF0F16D
:1066D000D268526AB2FBF0F0084470475C1F002099
:1066E0000046C323D81F00200FB470B50C460546E2
:1066F000164632210D48FAF71FF808AB32210B4835
:10670000079AFEF7BDF91DB1084909A0FEF73AFD49
:10671000002C07D0084832460449406800F2346033
:1067200006F00DF870BC5DF814FB0000D09300205B
:106730000D0A3E2025730000D81F0020F0B500246C
:1067400014E09C4201D1012500E0002500EE105A22
:10675000B8EE400A14FB023501EB85055B1C85EDA4
:10676000000ADBB29342ECD3641CE4B294424FF0D3
:106770000003F7D336E01D462C4617E004FB023633
:1067800000EB860696ED000A05FB023600EB860656
:10679000B0EEC00AD6ED000AF0EEE00AB4EEE00A70
:1067A000F1EE10FA00DD2546641CE4B29442E5D314
:1067B0009D4215D0002411E013FB024605FB024761
:1067C00001EB870701EB8606D7ED000A96ED000A7C
:1067D000C6ED000A641C87ED000AE4B29442EBD3D4
:1067E0005B1CDBB29342C6D3F0BD000090ED000A03
:1067F00010EE100A20F00040C0F1FF40002802D542
:106800009FED0A0A704710EE100AB0F17E5F02DBBE
:106810009FED070A704710EE100A10F1814F02D366
:106820009FED040A704713F0FBBF0000000000005A
:10683000DB0FC93FDB0FC9BF10B590ED000A15F0A3
:10684000BFF810EE100A20F00040C0F1FF40002811
:1068500001D59FED010A10BD0000000038B50446C7
:10686000002000900A21204600F00CFA8DF800006C
:106870000B21204600F006FA8DF801000C2120467D
:1068800000F000FA8DF802006946204600F07BF91E
:1068900038BD000010B50446D0F8700718B9B12112
:1068A00005A0FCF785FCD4F870070088400401D4EB
:1068B000012010BD002010BD2E2E5C2E2E5C4465E4
:1068C0007653747564696F5C4672616D655C436F85
:1068D00072655C4672616D65436F72652E637070A0
:1068E000000000000F290DD002290BD003290BD086
:1068F00004290BD0C5290BD0C7290BD006A000BF97
:10690000FEF740BC05A0FBE705A0F9E705A0F7E707
:1069100005A0F5E705A0F3E723000000470000000D
:1069200048000000500000007400000075000000E6
:1069300038B50446002094F87A2706E0231893F827
:106940007B378B421FD0401CC0B28242F6D8102A3F
:1069500013D204F27B700CA3115494F87A07052229
:10696000401C84F87A07009101210846FFF7BCFE1D
:106970002046BDE8384000F011B82046BDE8384058
:10698000C62100F05DB838BD4572726F7220256473
:1069900020626C6F636B65640000000010B50446F4
:1069A0000020A4F87807034602461121204600F093
:1069B000A1F9012300221946204600F0CDF9BDE8D7
:1069C000104001A0FEF7DEBB0D0A3E20436C65615E
:1069D0007220476C6F62616C206572726F72206109
:1069E0006E64204F564620466C61672E0000000002
:1069F00010B50446D0F8700718B9BB2105A0FCF704
:106A0000D7FBD4F870070088800401D4002010BDA3
:106A1000012010BD2E2E5C2E2E5C446576537475BD
:106A200064696F5C4672616D655C436F72655C465C
:106A300072616D65436F72652E63707000000000B7
:106A400070B5044600780D46002835D0002394F830
:106A50007A0708E0E11891F87B17A9422CD05B1C5B
:106A6000DBB2102B01D29842F4D8C02D04D2B4F876
:106A70007807401CA4F878070121204600F028F987
:106A8000A84219D001232A461946204600F064F98D
:106A900029462046FFF726FF084800231A46CA2148
:106AA000006811F0FFFB002806D1BDE870404FF4EC
:106AB0009D7103A0FCF77CBB70BD0000F41F00209B
:106AC0002E2E5C2E2E5C44657653747564696F5C63
:106AD0004672616D655C436F72655C4672616D659F
:106AE000436F72652E6370700000000070B505463C
:106AF00000780C4600281AD00021284600F0E8F85B
:106B0000A04214D0012322460021284600F024F997
:106B1000074800231A46CA21006811F0C3FB002869
:106B200005D1BDE87040FE2102A0FCF741BB70BD5D
:106B3000F41F00202E2E5C2E2E5C44657653747557
:106B400064696F5C4672616D655C436F72655C463B
:106B500072616D65436F72652E6370700000000096
:106B6000FEB51C4615460E460746FFF7A7FD0090EA
:106B70008DF80A600195ADF80840694607F2346067
:106B800005F08EFEFEBD002210468B5C9340034351
:106B9000521CD2B2D8B2042AF7D37047B0F8781793
:106BA000202907D90021A0F878170B4601221121CE
:106BB00000F0A0B87047000070B514460E000546FE
:106BC00003D1652106A0FCF7F3FA1CB9662104A0E5
:106BD000FCF7EEFAC5F86867C5F86C4770BD0000B1
:106BE0002E2E5C2E2E5C44657653747564696F5C42
:106BF0004672616D655C436F72655C4672616D657E
:106C0000436F72652E63707000000000C0F870174B
:106C10007047000070B50C00054603D115210EA089
:106C2000FCF7C6FAC5F864472078012808D0022886
:106C30000CD01D2108A0FCF7BBFA0120687070BDC4
:106C400005F5DE60616809F0BBF9F6E705F234701E
:106C5000A16807F075FAF0E72E2E5C2E2E5C4465D5
:106C60007653747564696F5C4672616D655C436FE1
:106C700072655C4672616D65436F72652E637070FC
:106C80000000000070B50C460546602903D36E2154
:106C900004A0FCF78DFAD5F8680704EB840110F81E
:106CA000210070BD2E2E5C2E2E5C446576537475CB
:106CB00064696F5C4672616D655C436F72655C46CA
:106CC00072616D65436F72652E6370700000000025
:106CD00070B50C460546082903D374210448FCF717
:106CE00067FAD5F86C0704EB840110F8210070BD39
:106CF000A46C000870B51D4614460E46FFF7C2FF8F
:106D0000A04201D1002D0ED0074823463246C821AB
:106D1000006811F0C7FA002805D1BDE870408D2148
:106D200002A0FCF745BA70BDF41F00202E2E5C2E89
:106D30002E5C44657653747564696F5C4672616D50
:106D4000655C436F72655C4672616D65436F726529
:106D50002E6370700000000070B51D4614460E468C
:106D6000FFF7B6FFA04201D1002D0ED00748234601
:106D70003246C921006811F095FA002805D1BDE816
:106D80007040972102A0FCF713BA70BDF41F0020D9
:106D90002E2E5C2E2E5C44657653747564696F5C90
:106DA0004672616D655C436F72655C4672616D65CC
:106DB000436F72652E6370700000000010B500F51F
:106DC000D76005F0A1F86C3804F0F0FE0C3806F03E
:106DD00059F80C3806F056F82C3812F043FDA0F2A2
:106DE000066001F09BFD801E10BD00002DE9F843F8
:106DF000044640684FF000080168896A8847002609
:106E000007B23546B6E000BF8DF8005060680168F3
:106E1000CA6A69469047E07A20B19DF8001058A0F0
:106E2000FFF7C8FA94F84C01092810D2DFE800F007
:106E30000B0514203244638692009DF800006228FE
:106E400006D084F84C519DF80000B52802D08FE0A0
:106E5000022070E001206EE0032084F84C019DF8D0
:106E6000000084F84D0184F8540184F855017FE056
:106E7000042084F84C0194F854119DF8000094F813
:106E80005521014484F85411114484F8551184F8B3
:106E90004E016DE0052084F84C0194F854119DF8E2
:106EA000000094F85521014484F85411114484F8E9
:106EB0005511A4F850015BE0062084F84C0194F8C9
:106EC00054119DF8000094F85521014484F85411A0
:106ED000114484F85511B4F8501101EB002080B230
:106EE000A4F85001B0F5007F02D9A4F850512EE06B
:106EF000A4F852513CE094F854019DF8001094F825
:106F00005521084484F85401104484F85501B4F81C
:106F100052015C2802D204F10C028154B4F85201EF
:106F2000401C80B2A4F85201B4F8501188421FD11D
:106F300094F84C01401C84F84C0119E0082084F8B6
:106F40004C0194F854119DF80000814210D084F84F
:106F50004C5167E784F84C5194F855019DF80010A6
:106F6000884205D1204600F00DF808B14FF0010825
:106F7000761C36B2BE42FFF647AF4046BDE8F88306
:106F8000256300002DE9F04104462DED028B82B00F
:106F900090F84D1105291AD001270A2604F10C0892
:106FA00006291AD0012936D094F84E21FEA0FEF70A
:106FB000E9F894F86201401E84F862015AD284F81C
:106FC000626194F84E2194F84D1100234FE090F83F
:106FD0004E11FEA0FEF7D6F84CE094F84E0124289E
:106FE000E2D1A17BFCA0FEF7CDF894F90920501C5A
:106FF00040D0A17B91423DD0FEA0FEF7C3F8607A5D
:10700000A0732420A7810246009043460621204613
:1070100000F084FA2EE094F84E110020032202239F
:107020009FEDFE8AFE4D062970D006DC022927D08E
:10703000032960D0042906D16BE0DFEDFA8A072925
:107040007BD012297AD0F8A0FEF79CF894F8620160
:10705000401E84F862010DD284F8626194F84E11EA
:10706000FAA0FEF78FF894F84E2100230121204664
:1070700000F0C1FA002002B0BDEC028BBDE8F08147
:1070800004F19C001C210646F9F756FB1C224146E0
:107090003046F9F7F5FA84F860716E69D4E9280290
:1070A00096F84030D4F8AC1028361B070ED131606A
:1070B000C6E90120304617F06DFC0746304617F050
:1070C00041FC01463A46304617F054FC94ED2C0A38
:1070D0006869F8EE400A603080EE880A17F028FDF3
:1070E00094ED2D0A6869F8EE400A743080EE880A43
:1070F00017F01EFD02E2617C21B1217C032903D03F
:10710000022904D0A072F9E1A272F7E117E0A3729C
:10711000F4E104F1DC0014210646F9F70DFB14221A
:1071200041463046F9F7ACFAB4F8E20000EE100A36
:107130006869B8EE400AB030DAE77DE022E0E17D30
:1071400021B1A17D032919D0022919D0A07204F11F
:10715000680034210646F9F7EFFA342241463046FA
:10716000F9F78EFA94F87210686917F04FFD6869A4
:1071700094F89710143017F049FDBFE1A272E6E7CA
:10718000A372E4E704F1B80024210646F9F7D4FA23
:10719000242241463046F9F773FA94ED2F0A6E69BE
:1071A000B8EEC00A96F85C004436000780EE081A74
:1071B00094ED300AF8EEC00A80EE880AD4ED310A68
:1071C000F8EEE01AC1EE880A11D186ED001A86EDBC
:1071D000010A3046C6ED020A17F0A8FA804630468A
:1071E00017F07CFA01464246304617F08FFA94EDCC
:1071F000330AF8EE400A9FED9E8A686980EE880A9D
:10720000883017F095FC94ED340A6869B8EEC00A2E
:10721000C43020EE280A17F08BFC94ED350A68691B
:10722000F8EE400A9C3080EE880A17F081FC84F862
:107230005E7184F8617161E104F1F0005C21064641
:10724000F9F77AFA5C2241463046F9F719FA6E6985
:10725000D4E9423296F84000D4F8141110F00F002F
:107260004FF0050706F1280601D005280ED1378317
:1072700086E80E00304617F08DFB8046304617F04A
:1072800061FB01464246304617F074FB94F8040156
:1072900038B1012809D002280BD003280DD00428CA
:1072A0000FD00522002168690EE0052201216869DE
:1072B0000AE005220221686906E0052203216869C7
:1072C00002E005220421686917F0B6FC94ED460A35
:1072D00068690521F8EE400A603080EE880A17F0F0
:1072E0003EFC94ED470A68690521F8EE400A7430C7
:1072F00080EE880A17F033FC686994F807110522BC
:10730000143017F099FC94ED4C0AB8EEC00ADFED8A
:10731000590A684620EE200A8DED000AFFF7A2F90F
:10732000686920EE280A0521C43017F018FC94ED96
:107330004D0A68690521F8EE400A9C3080EE880A03
:1073400017F00DFC94ED480A6E69F8EEC00A96F845
:107350005C00443610F00F0080EE880AD4ED490A34
:10736000B8EEE01AC1EE080A94ED4A1AF8EEC11A16
:1073700081EE881A01D005280ED13783304686EC7D
:10738000030A17F0D3F90746304617F0A7F901466C
:107390003A46304617F0BAF994ED4B0A0521F8EE5B
:1073A000C00A80EE880A67E0556E65787065637480
:1073B0006564206D657373616765203078253032B0
:1073C0007820307825303278000000000D0A3E2009
:1073D00041434B20257500000D0A3E20476F742065
:1073E000656E67696E652073657474696E67732076
:1073F00025750A004368616E67696E6720656E6770
:10740000696E652073657474696E672066726F6D4E
:1074100020257520746F2025750A000000007A442D
:107420000494002035FA8E3C0D0A3E20556E657896
:10743000706563746564204E4156206D6573736199
:107440006765203078253032780000000D0A3E2034
:1074500044697361626C696E67204E4156206D65A8
:107460007373616765203078253032780000000042
:107470000000C842ACC527376869883017F06FFB39
:10748000B4F83C0117F036FE9FED1D1B53EC112B99
:1074900017F044FE17F0E6FD00EE100A68690521BA
:1074A000B03017F05CFB6869D4F8F0100522D830D2
:1074B00017F0E2FB94F8040103281FD394F80701A6
:1074C00006281BD3FFF7FAF80646686905223146FD
:1074D000EC3017F0D1FBD4F86C01DFED0B0A301A59
:1074E00000EE100A68690521B8EE400A00F58070C8
:1074F00020EE200A17F033FBC4F86C610120BAE5D6
:107500007B14AE47E17A843F6F12833A13B540682B
:10751000012201680B6901A998471CBDF0B58BB029
:1075200007460020109E8DF824008DF81800B52025
:107530008DF81C0062208DF81D008DF81E101D4670
:107540008DF81F2006AC09ABADF820600422991F0E
:107550003846009400F040F809AB324629463846D8
:10756000009400F039F8142101A8F9F7E5F807981C
:1075700001902946BDF8200001ADADF80800324663
:107580002C46A81DF9F737F8A0199DF82410817131
:107590009DF81810C1717868102201680B6901A963
:1075A000984707A0FDF7EEFD002408A0295DFDF730
:1075B000E9FD641CE4B2102CF7D30BB0F0BD000061
:1075C0000D0A3E2057726974653A200025303278E2
:1075D00020000000C172704730B5039C07E01878A6
:1075E00011F8015B28441870257828442070521E39
:1075F000D2B2F4D230BD3EB5002401948DF804100F
:107600008DF8052008218DF807300091029401AB18
:1076100001220621FFF782FF3EBD000010B50A21BE
:10762000002480F86211FFF749F84FF4E13102A01D
:10763000FDF7A8FD204610BD0D0A3E204F70656E77
:107640002047505320706F7274207769746820252A
:10765000752062707300000010B50446054800688C
:10766000FFF718F9002804D02046BDE81040FFF7C6
:10767000BDBB10BDDC1F00200079002804D14FF4F1
:1076800000510248F9F7B6BF7047000000080240F9
:1076900070B5002282700123027304240371847385
:1076A0004D1E4273032D17D802250526C57046705E
:1076B000012906D0022906D0032906D0042907D0C3
:1076C00008E0437370BD457370BD0321417370BD05
:1076D000447370BD027170BD0529FBD10A21C170D0
:1076E000417070BD2DE9F04704460079002826D08E
:1076F0004FF4005529044E4E00274FF004084FF078
:10770000050A052849D2227863784FF001099A4288
:1077100025D2012802D0022806D012E0B161FEF77E
:10772000CDFFA060022009E0A068FDF75BF92828E2
:1077300007D3B561FEF7C2FFA06003202071BDE84A
:10774000F08720790328FAD1A068FDF74BF92828A3
:10775000F5D384F804902078401C2070EFE70128CE
:1077600015D00428EBD1A068FDF73CF9B0F5FA7FFD
:10777000E5D3277084F80490A078401CC0B2A070B4
:10778000E1788842DBD3A77084F804A0D7E7FEF73E
:1077900095FFA06084F80480D1E705D1B161FEF7C0
:1077A0008DFFA0600620C9E7062802D007281BD05D
:1077B00030E0607BA17B4FF007070842A06805D14D
:1077C000FDF710F96428BAD91AA005E0FDF70AF907
:1077D000B0F5167FB3D919A0FDF7D4FCB561FEF75B
:1077E0006DFFA0602771AAE7A068FDF7FBF8C82825
:1077F00010D984F804A0A07B4008A073207B401C13
:10780000C0B2207303289AD3FEF758FFA060B56179
:10781000082093E72079082891D1A068FDF7E2F8C5
:1078200040F2DC5188428AD9277384F80E80D9E768
:10783000000802400D0A646F742000000D0A6461A4
:1078400068200000334810B5006800224270B1B1D2
:10785000314C012919D0022922D003293CD0042916
:1078600045D0052951D0062951D0072951D12BA344
:10787000062201210020BDE81040FEF735BF01219E
:1078800041702BA306220846F5E731A0FEF792FDD2
:1078900039A3062201210020FEF726FF01212DE059
:1078A0002068022100F5647000F0D6FB012200215F
:1078B0001320FBF70FFD3AA0FEF77CFD20680221A4
:1078C00000F56070FFF7E4FE3FA3062201210020CF
:1078D000FEF70AFF46A3CBE74C48FEF76BFD4CA32F
:1078E000062201210020FEF7FFFE032106E052A33D
:1078F000062201210020FEF7F7FE04212068BDE8E2
:10790000104000F56070FFF7C3BE55A3B0E760A359
:10791000AEE710BDDC1F0020200000205377697403
:10792000636820746F20544F46206D6F64650000BB
:1079300053776974636820746F20636F6E736F6C24
:1079400065206465627567206D6F646500000000E6
:107950000D0A3E2053776974636820746F20647544
:10796000616C2D70696C6F74204D61737465722049
:107970006D6F64652E00000053776974636820742E
:107980006F20746F204475616C2D50696C6F74208A
:107990004D6173746572206D6F64652E0000000088
:1079A0000D0A3E2053776974636820746F206475F4
:1079B000616C2D70696C6F7420536C6176657220F8
:1079C0006D6F64652E0000005377697463682074DE
:1079D0006F20746F204475616C2D50696C6F74203A
:1079E000536C61766572206D6F64652E0000000037
:1079F00044697361626C6520616C6C206661696CBE
:107A00007572652073616665732E0000D8060208E2
:107A100053776974636820746F2041697220746FB2
:107A200020416972206C696E6B204D6173746572C0
:107A3000206D6F64652E000053776974636820744D
:107A40006F2041697220746F20416972206C696EE9
:107A50006B20536C61766572206D6F64652E00003B
:107A600053776974636820746F2041697220746F62
:107A700020416972206C696E6B20506F696E7420B2
:107A8000746F20506F696E74206D6F64652E0000F6
:107A900053776974636820746F204475616C2D544A
:107AA000656C65206D6F64650000000010B50446CC
:107AB0000C48006890F83C10002911D0012907D12A
:107AC00004F108000FF01EFE10B1204600F042FA4B
:107AD00005480068BDE8104000F5C86004F004BF28
:107AE00010BD000034000020DC1F00202DE9F04311
:107AF0008E4D85B00C46286890F83C00012804D0D3
:107B00004FF4AE718AA0FBF753FBE07978281BD0C5
:107B10007A2816D169462046FEF7DEFA9DF80A005B
:107B200002280ED10198C0B202280AD189A30422EA
:107B300001210020FEF7D8FD012211461420FBF799
:107B4000C9FB05B0BDE8F083E7786E46142F00D37B
:107B5000142714213046F8F7EFFD3A4604F10801E6
:107B60003046F8F78DFDBDF9080041F2344100EED2
:107B7000100ABDF90A00A94600EE900ABDF90C00F2
:107B8000B8EEC00AB8EEE01A00EE900A2868794D07
:107B90000144F8EEE00A087E774A04074FF000033C
:107BA0004FF47A7030D181ED000A81ED011AC1EDF8
:107BB000020A1468002C0FD02E68704FA6F101063F
:107BC00006FB07F6B6FBF0F6676AB7FBF0F73E4434
:107BD00004D14FF0000406E01E46F9E7646AB4FBE6
:107BE000F0F700FB1744D1F80CC00F8AA6EB0C0C81
:107BF000A4EB07070CEB4C083FB2C8EBCC1C07EB1F
:107C0000CC074F61CE600C82BDF90E10B2EE041AA3
:107C100000EE101AD9F8001041F25044F8EEC01AE4
:107C2000DDED010A214410EE904A81EE810A0E7DBD
:107C300036072DD10C6081ED010A1468002C0FD09D
:107C40002E684E4FA6F1010606FB07F6B6FBF0F6CE
:107C5000676AB7FBF0F73E4404D14FF0000406E03A
:107C60001E46F9E7646AB4FBF0F700FB1744D1F84D
:107C700008C08F89A6EB0C0CA4EB07070CEB4C0893
:107C80003FB2C8EBCC1C07EBCC070F618E608C8138
:107C9000D9F8001041F268463144BDF810604C46F6
:107CA00000EE106A0E7CF8EE400A360780EE810A7C
:107CB00029D181ED000A1268002A0BD02B682F4DC4
:107CC000A3F1010303FB05F3B3FBF0F3556AB5FB26
:107CD000F0F52B4402D14FF0000004E0526AB2FBF1
:107CE000F0F500FB15204D680A89A3EB0505A0EB14
:107CF000020205EB450612B2C6EBC51502EBC50242
:107D00004B60CA600881BDF81250206841F27C4285
:107D1000C5F3C001104416F08FFE206841F2904276
:107D200005F00701104416F071FF0AE73400002047
:107D30002E2E5C2E2E5C44657653747564696F5CE0
:107D40004672616D655C4D75746950696C6F742E17
:107D5000637070004D61737465722070696C6F742C
:107D600020696E20666C69676874206374726C2E7B
:107D7000000000005C1F0020E41F00200046C32319
:107D8000FEB5334D06460C46286890F83C000228A4
:107D900004D04FF496712FA0FBF70AFAE079772808
:107DA00015D07A2812D169462046FEF795F99DF83C
:107DB0000A0002280AD10198C0B2012806D1012187
:107DC000304600F049F90320FDF70EFAFEBDFEF73C
:107DD00075FC3060307920280FD2401CC0B2307161
:107DE00020280AD1012211461320FBF773FA22A39F
:107DF000042201210020FEF777FCE2786846062A7B
:107E000000D3062200230093ADF8043004F10801EA
:107E1000F8F736FCBDF8040041F2F832C4B2286825
:107E2000C4F3C001104416F007FE286841F20C426A
:107E300004F00701104416F0E9FE2868210900F556
:107E4000A15016F0E3FE304600F0ACF8FEBD000095
:107E5000340000202E2E5C2E2E5C44657653747503
:107E600064696F5C4672616D655C4D7574695069DB
:107E70006C6F742E63707000536C61766572207045
:107E8000696C6F74206D6F6E69746F72204F4E2E27
:107E90000000000010B504460079202832D3FEF718
:107EA0000DFC2168401A40F6C41188422AD91220DC
:107EB000FBF700FA002825D1012211461220FBF71A
:107EC00009FA1020FDF788F90FA3032201210020F1
:107ED000FEF70AFC12A3032201210020FEF704FC96
:107EE0000FA3032201210020FEF7FEFB0121204603
:107EF00000F0B2F806220121BDE810400EA30020D8
:107F0000FEF7F2BB10BD00004D6173746572207006
:107F1000696C6F742066612C696C65642121210095
:107F20004D61737465722070696C6F74206661694D
:107F30006C656421212100005377697463682074A3
:107F40006F20736C6176657220636F6E74726F6CF4
:107F50002E0000001CB5002060F30F240F20FBF75B
:107F6000A9F9E1B260F3C3010C4861F307040068AA
:107F700090F82807082803D260F3020161F3070490
:107F8000FEF79CFB00900648ADF804406946006887
:107F900000F5C86004F0E0F91CBD000034000020CA
:107FA000DC1F002070B586B0FEF788FB00902848E3
:107FB000006890ED550A90ED561AD0ED570ABDEEC7
:107FC000C00A10EE101ABDEEC10AADF8081010EE8E
:107FD000101ABDEEE00AADF80A1010EE101AADF856
:107FE0000C10D0F88C12D0EDA40A00EE101A00F597
:107FF000B9608DED010AB2EE040A60EE800AFDEE72
:10800000E00A10EE901AADF80E10D0ED000A20EE46
:10801000800ABCEEC00A10EE100AADF810000F2066
:10802000FBF748F90B4E2C4660F3C3043068FEF7AB
:1080300015FC60F3020464F30705ADF812503068D4
:10804000694600F5C86004F04FF906B070BD000045
:1080500034000020DC1F0020FEB531480124022539
:108060000068304E90F83C00012802D002281BD056
:108070001FE001291DD101208DF80A5001903068C0
:10808000694600F5C86004F00BFC012200211420B1
:10809000FBF720F90320FDF7A7F823A30322012112
:1080A0000020FEF721FB0FE02A4801290ED002290B
:1080B0001CD00024009128A3032201212046FEF7B2
:1080C00013FB1120FDF788F82046FEBD08218161D1
:1080D0004904816129A3042201210020FEF704FB49
:1080E000012211461420FBF7F5F8EDE74FF40021CB
:1080F000816110218161012200211420FBF7EAF83F
:1081000026A3032201210020FEF7EEFA8DF80A5083
:1081100001953068694600F5C86004F0C1FBD3E7FB
:1081200034000020DC1F00204D61737465722070E4
:10813000696C6F742072656C656173652072696724
:10814000687473206F6620666C6967687420637456
:10815000726C2E00000402404368616E6765206601
:108160006C696768742063747220726967687473DD
:1081700020746F202564206572722E00536C617626
:1081800065722070696C6F7420696E20666C696717
:108190006874206374726C2E00000000536C61766A
:1081A00065722070696C6F742072656C65617365AF
:1081B00020726967687473206F6620666C696768EF
:1081C00074206374726C2E0010B5C82108300FF053
:1081D00094FA01220021BDE810401320FBF77AB881
:1081E00010B508300FF006FB002100F8041C40F821
:1081F000081D10BD70B5044690F800060D4618B174
:10820000B4F80206A84204D84FF4B47105A0FAF7F6
:10821000CFFF2946204600F0D9F80D49C0EB4010A9
:10822000084470BD2E2E5C2E2E5C4465765374750A
:1082300064696F5C4672616D655C436F72655C502A
:108240006172616D657465722E637070000000006C
:108250004800002001207047B0F802067047000077
:108260002DE9F0410746B0F802060E461C461546B9
:10827000B04204D840F27B1108A0FAF799FF3146CA
:10828000384600F0A3F8C0EB40110F48084450F8FE
:10829000171F296040682060BDE8F0812E2E5C2EFB
:1082A0002E5C44657653747564696F5C4672616DCB
:1082B000655C436F72655C506172616D6574657277
:1082C0002E637070000000004800002090F8000647
:1082D00070470000F0B5002587B006462C46234FB6
:1082E0002FE018216846F8F727FA96F801060228C9
:1082F00002D0012808D01EE038686A46214600F204
:10830000347005F045FF06E038686A46214600F5FE
:10831000DE6007F077FE70B104EB440006EB40002E
:1083200004990160BDF8141001F01F01818005203F
:1083300013F0C0FE01E06D1CADB2641CA4B2FF2CB2
:1083400003D8B6F80206A042CBD8012086F8000672
:108350001DB1B12106A0FAF72BFF2A4621460FA036
:10836000FCF710FF07B02046F0BD0000DC1F002026
:108370002E2E5C2E2E5C44657653747564696F5C9A
:108380004672616D655C436F72655C506172616DD0
:10839000657465722E637070000000000D0A3E2047
:1083A000496E69743A204261746368207265616441
:1083B00020256420706172617320746F206D656D7B
:1083C0002E206572723A25640000000070B50546E3
:1083D000B0F802060C46A04203D8E12108A0FAF743
:1083E000E7FE04EB440005EB400080884409FF2CC5
:1083F00003D9E32102A0FAF7DBFE204670BD00009E
:108400002E2E5C2E2E5C44657653747564696F5C09
:108410004672616D655C436F72655C506172616D3F
:10842000657465722E637070000000002DE9F041E4
:10843000054690F80006884620B94FF4A9710FA0B0
:10844000FAF7B6FE0024B5F80266174F09E000BF40
:10845000C4EB4410C1194046F8F796F940B1641CCA
:10846000A4B2B5F80206A042F2D83046BDE8F081C9
:10847000C4EB44103844068AF7E700002E2E5C2E29
:108480002E5C44657653747564696F5C4672616DE9
:10849000655C436F72655C506172616D6574657295
:1084A0002E637070000000004800002070B5044684
:1084B000B0F802064FF6FF7588420AD92046FFF74A
:1084C00085FF00EB400004EB4000007900F01F0541
:1084D00002E002A0FCF756FE284670BD0D0A3E20C1
:1084E0004765745061726150726F70657274792063
:1084F00041535345525420655061726149443A25B5
:10850000640000002DE9F04106464FF0000819A074
:10851000FCF738FE00241E4F24E00025C5EB451073
:10852000C119088AA04217D118B90846F8F744F8CB
:1085300068B104EB440006EB40018888420908D08A
:10854000214614A0FCF71EFE0020804608E0012012
:10855000FBE765F35F1088806D1CADB2FF2DDDD9A0
:10856000641CA4B2B6F80206A042D6D84046BDE8C4
:10857000F08100000D0A3E2047656E207061726137
:1085800020696420746F20506879496E780000007B
:10859000480000200D0A3E205061726120696E691A
:1085A00074206572723A20696420256420726570B7
:1085B00065746974696F6E002DE9F043394EDFF818
:1085C000E8808BB007460025C5EB451030440446D3
:1085D000F7F7F2FF002862D0182104A8F8F7ACF8EA
:1085E0002146102204A8F8F706F8D4F813000890E2
:1085F000A07C00F01F00ADF8240097F801060228C7
:1086000002D0012824D046E0D8F8000004AA294668
:1086100000F2347005F0E8FD8146052013F04AFDB4
:10862000D4F8130016F078FECDE900012246294661
:108630001EA0FDF7BFFEB9F1000F05D005EB450107
:1086400007EB4101089808600A2013F033FD22E08F
:10865000D8F8000004AA294600F5DE6007F02CFDDA
:1086600081460A2013F026FD089816F055FECDE944
:108670000201BDF82400009022464B46294610A076
:10868000FDF798FEB9F1000F05D005EB450107EBAA
:108690004101089808606D1CADB2FF2D94D90BB054
:1086A000BDE8F08348000020DC1F00200D0A3E20BA
:1086B00025642E2573202D20252E32660000000013
:1086C0000D0A3E2025642E2573282564292D307837
:1086D0002530325820252E326600000070B5044641
:1086E00090F800060D4620B940F22F1125A0FAF7A8
:1086F0005FFDB4F80206A8423BD929462046FFF7A1
:1087000065FE00EB400104EB4101096800EE101A20
:1087100010EE101A21F00041C1F1FF422449002A55
:108720000FD5C0EB40120A4452F8173F526800EED2
:10873000103A00EE902A30EE200AF6EE000A20EE03
:10874000200AC0EB40100144D1F81B0000EE900A53
:10875000F4EEC00AF1EE10FA08D3D1F8170000EEDB
:10876000900AF4EEC00AF1EE10FA01DD00EE100AF4
:1087700070BD10480E210068FEF762F9B7EE000ADE
:1087800070BD00002E2E5C2E2E5C446576537475F1
:1087900064696F5C4672616D655C436F72655C50C5
:1087A0006172616D657465722E6370700000000007
:1087B00048000020DC1F00202DE9F04306462DED87
:1087C000028B87B0B0F802069146B0EE408A4FF0B7
:1087D0000108884205D8002007B0BDEC028BBDE837
:1087E000F0833046FFF7F2FD044618EE100A20F041
:1087F0000040C0F1FF412F4800290FD5C4EB4411C0
:10880000014451F8172F496800EE102A00EE901A23
:1088100030EE200AF6EE000A20EE208AC4EB441166
:108820000D18D5F8170000EE100AB4EEC80AF1EEE4
:1088300010FA01DD08EE100AD5F81B0000EE100A50
:10884000B4EEC80AF1EE10FA01D208EE100A04EBF9
:10885000440118EE100A06EB4107B9F1000F386029
:1088600026D018216846F7F767FF29466846F7F7CC
:108870007FFE8DED048A38680490B888ADF8140046
:1088800096F801160C48022902D0012908D00FE001
:1088900000686A46214600F2347005F0A5FC06E047
:1088A00000686A46214600F5DE6007F005FC804658
:1088B000404691E748000020DC1F002070B51446B8
:1088C000054680F8011619B91D2106A0FAF770FCBB
:1088D000FF2C03D91F2103A0FAF76AFCA5F8024672
:1088E00070BD00002E2E5C2E2E5C44657653747590
:1088F00064696F5C4672616D655C436F72655C5064
:108900006172616D657465722E63707000000000A5
:10891000002180F8001680F80116704770470000AB
:108920002DE9FF410189491C89B2018112A0FCF7A0
:1089300029FC154800220068D0F89C0701684B69A3
:1089400003219847D0E90084806816F0E5FC0646CC
:108950000F46204616F0E0FC04460D46404616F051
:10896000DBFC8DE8F00041EC100B08A053EC102B61
:10897000FCF708FCBDE8FF810D0A205465737443C1
:108980006E743A25640000002C0000200D0A3E2081
:10899000477279206F66737420252E336620252E4A
:1089A000336620252E3366002DE9F043DFF8B890BA
:1089B00087B00024D9F800002146801CFFF74AFC4C
:1089C0000646D9F800002146801CFFF713FC054637
:1089D000D9F800002146801CFFF7F8FC02462B4620
:1089E000214622A00096FCF7CDFB0A2013F062FB83
:1089F000D9F800002146801CFFF758FD014623A04E
:108A0000FCF7C0FB0A2013F055FBD9F8000005ABBA
:108A100004AA2146801CFFF723FC059816F07CFC75
:108A200007468846049816F077FC0546D9F80000FA
:108A30000E462146801CFFF751FE10EE100A16F07C
:108A40006BFC8DE8E00141EC100B14A053EC102BF3
:108A5000FCF798FB0A2013F02DFB641CA4B2622CD7
:108A6000A8D307B0BDE8F083DC1F00200D0A3E202C
:108A700049443A256420506879496E783A25642043
:108A8000257309547970653A2564200050726F701F
:108A900020307825303258200000000056616C3AB2
:108AA000252E34662028252E34662D252E34662961
:108AB0000000000008B501890AA3491C89B20181A0
:108AC0000091042201210020FDF70EFE09480AA3AF
:108AD00004220068012190F83C0000900020FDF77E
:108AE00003FE08BD4D61762054657374436E743A7D
:108AF0002564000034000020636F6E736F6C652086
:108B00006D6F64653A202564000000007CB50F4E4F
:108B10003068D0F8AC000EF0E3F910EE100A16F051
:108B2000FBFB044630680D46D0F8AC000EF0F8F9B7
:108B300010EE100A16F0F0FB41EC100B04A053EC01
:108B4000102BCDE90045FCF71DFB7CBD1800002073
:108B50000D0A3E20414443204261747420252E3387
:108B6000662C20426F61726420252E33660000005F
:108B7000017C491C017470472DE9FF470446027CC3
:108B80009A48012A01681ED0022A50D00346032ABF
:108B90001B6803F5237363D0042A79D0052A73D0A8
:108BA000062A72D0072A71D0082A70D00A2A08D162
:108BB0008F48006805F0CEFC8EA0FCF7E3FA002099
:108BC0002074BDE8FF87F1E940848146886816F08B
:108BD000A3FB06460F46204616F09EFB04460D46B4
:108BE000404616F099FB8DE8F00041EC100B87A091
:108BF00053EC102BFCF7C6FAD9F80020F2E93286C4
:108C0000906816F089FB04460D46304616F084FB4A
:108C100006460F46404616F07FFB41EC100B82A043
:108C200053EC102BCDE90245CDE9006715E0F1E9E1
:108C30004E84886816F070FB06460F46204616F0F4
:108C40006BFB04460D46404616F066FB8DE8F000CF
:108C500041EC100B7AA053EC102BFCF793FAB0E721
:108C6000D3E9004016F058FB05460E46204616F0A4
:108C700053FB41EC100BCDE9005653EC102B77A0C1
:108C8000FCF780FA9DE703E03AE049E0A3E0A8E0C2
:108C90008146D1F86434D1F86824D1F86C1476A0F8
:108CA000FCF770FAD9F8008040F2EC4050F8080068
:108CB00016F032FB06464FF496600F4650F8080057
:108CC00016F02AFB044640F29C400D4650F808007E
:108CD00016F022FB8DE8F00041EC100B6EA053EC77
:108CE000102BFCF74FFAD9F800004FF48A610A5CA8
:108CF00090F83C1404B070A0BDE8F047FCF742BA0D
:108D000040F29C60445A4FF4D160435A40F2746080
:108D1000425AB1F860166CA00094FCF733FA50E7A1
:108D200070A0FCF72FFA754C40F24C4201212068EC
:108D3000806C0BF09EF920684FF496620221806CE3
:108D40000BF097F9206840F214520321806C0BF06D
:108D500090F920684FF4AF620421806C0BF089F920
:108D6000206840F2DC520521806C0BF082F920680B
:108D70004FF4C8620621806C0BF07BF9206840F24A
:108D8000A4620721806C0BF074F920684FF4E16253
:108D90000821806C0BF06DF9206840F26C7209219B
:108DA000806C0BF066F920684FF4FA620A21806C3F
:108DB0000BF05FF9206840F27E420B21806C0BF0D3
:108DC00058F9206840F2E2420C21806C04B0BDE802
:108DD000F0470BF04EB904B02046BDE8F047FFF76E
:108DE00095BE2046FFF7E0FD0920E9E634000020AB
:108DF000200000200D0A0D0A3E2053656C66207489
:108E00006573742052657365742E00000D0A3E2050
:108E10004163635261773A252E326620252E3266F1
:108E200020252E3266000000204779725261773A81
:108E3000252E326620252E326620252E3266000031
:108E40000D0A3E204D61675261773A252E32662029
:108E5000252E326620252E32660000000D0A3E20A7
:108E600041627350726573733A252E3166205465E2
:108E70006D70252E316600000D0A3E2047505320AC
:108E80006C6F6E3A2564206C61743A256420616CC5
:108E9000743A256400000000204570683A252E329F
:108EA00066204570763A252E32662050646F703AFF
:108EB000252E326600000000204669783A2564209D
:108EC0005361743A256400000D0A3E2050776D49C5
:108ED0006E28312D34292025642025642025642026
:108EE000256400000D0A3E205365742070776D20C4
:108EF000312D3132206F7574000000001800002001
:108F00007047000010B514300EF074FC203015F0DE
:108F100007F8A0F1340400202081C82104F11400D6
:108F20000EF0EBFBF6EE080A9FED030A04F13400A5
:108F300014F07CFF204610BD0000C842704700219D
:108F4000017370472DE9F0470446FAF7ADF9207B2D
:108F5000424D4FF0DA094FF0010848B928680A235A
:108F60003022806849460AF02EFF08B184F80C8050
:108F700028683022494680680AF0CDFE000709D5EE
:108F800094ED040A84ED010A94ED050A84ED020AC9
:108F9000BDE8F087002020732868062249468068D3
:108FA0000AF0B9FE074628680722494680680AF099
:108FB000B2FE064628680822494680680AF0ABFEE1
:108FC000390401EB06210E182868092249468068F9
:108FD0000AF0A1FE074628680A22494680680AF07E
:108FE0009AFEDFED1F0A00EB0720B6F5000F01D94E
:108FF000A6F1807600EE106A802FB8EE400A20EECF
:10900000200ADFED180A84ED040A01D9A0F58030AA
:1090100000EE100A1449B8EE400A20EE200A84ED52
:10902000050A94ED040AF0EEC00A10EE900A884298
:1090300005DA84ED010A94ED050A84ED020A0A209E
:10904000FDF728FB28680A233022806849460AF089
:10905000BAFE00289CD084F80C8099E71C00002000
:109060000000803C0000803B00401C457FB5054669
:109070000C46684600F062F92146684600F006F8A2
:109080006946284600F06AF97FBD000038B50446FD
:109090000D46084615F0F0FE8DED000A6846FDF716
:1090A000CEF9B7EE001A50B19FED180A84ED001A00
:1090B00084ED030A84ED020A84ED010A38BD9DEDBA
:1090C000000AF5EE000AF2EE081A60EE200A60EEE1
:1090D000800A80EEA10AF6EE001A00EEE11A84ED95
:1090E000001AD5ED000A31EEC00A60EE800AC4ED28
:1090F000010AD5ED010A60EE800AC4ED020AD5ED41
:10910000020A20EE800A84ED030A38BD0000000048
:109110002DE9F04F00F1040B2DED028B83B000F12F
:10912000080A01900C30009091ED000A91ED041AAC
:10913000D1ED080A01F1180770EE011A3D1D3C1F20
:10914000F0EE008A31EEA02AF7EE001AB5EE008AA2
:1091500001F10C09B5EEC02A01F10408F1EE10FA94
:1091600001F1080625DD32EE210A12F029FC20EE7D
:10917000280A019860EE080AC0ED000AD5ED000A41
:1091800094ED001A70EEC10A80EE801A8BED001A81
:10919000D6ED000A97ED001A70EEC10A80EE801A33
:1091A0008AED001AD9ED000A98ED001A70EEC10A96
:1091B00031E0B4EEC10AF1EE10FA36DDB4EEE00AA9
:1091C000F1EE10FA31DD30EE210A30EE410A30EED8
:1091D000600A12F0F5FBD5ED000A94ED001A20EEBE
:1091E000280A019870EEC10A80EE801A60EE080A23
:1091F00080ED001ACBED000AD8ED000A99ED001AB7
:1092000070EE810A80EE801A8AED001AD6ED000A0F
:1092100097ED001A35E080EE801A009880ED001A74
:1092200003B0BDEC028BBDE8F08FB4EEE01AF1EEB6
:1092300010FA29DD31EE211A31EE400A30EE600AD3
:1092400012F0BEFBD6ED000A97ED001A20EE280AB8
:10925000019870EEC10A80EE801A80ED001AD8EDF8
:10926000000A99ED001A70EE810A80EE801A60EE15
:10927000080A8BED001ACAED000AD4ED000A95ED3C
:10928000001A70EE810AC6E770EEA10A30EEC00A3D
:1092900030EE410A12F094FBD9ED000A98ED001A65
:1092A00020EE280A019870EEC10A80EE801A80ED47
:1092B000001AD6ED000A97ED001A70EE810A80EED2
:1092C000801A8BED001AD4ED000A95ED001A70EEAD
:1092D000810A80EE801A20EE080A8AED001A0098B2
:1092E00080ED000A9CE738B5044610F015FB8DEDC3
:1092F000000A6846FDF7A3F800281DD1DDED000A3D
:10930000B7EE001A81EE200AD4ED000A60EE800A62
:10931000C4ED000AD4ED010A60EE800AC4ED010A32
:10932000D4ED020A60EE800AC4ED020AD4ED030A0D
:1093300020EE800A84ED030A38BD0000B7EE000A73
:1093400080ED000A9FED040A80ED030A80ED020A19
:1093500080ED010A704700000000000090ED002A37
:10936000D1ED001A90ED013AD1ED010A22EE214A29
:10937000D0ED022AD1ED023A90ED031A03EE604AD5
:1093800091ED030A02EEE34A01EE404A80ED004A05
:1093900022EE204A03EE214A02EE804A01EE634AA1
:1093A00080ED014A22EE234A03EE404A22EE000AF3
:1093B00003EE230A02EEA14A02EEE00A01EE204A81
:1093C00001EE210A80ED024A80ED030A7047000099
:1093D00008B5002000900A20F9F76CFF8DF8000016
:1093E0000B20F9F767FF8DF801000C20F9F762FFF9
:1093F0008DF802000248694600680BF013FB08BDB7
:109400002000002010B50446D0F89C070022016817
:109410004B69012198470078012802D109A0FBF788
:10942000B1FED4F8A007002201684B6901219847DA
:109430000078012804D1BDE810400AA0FBF7A2BEC5
:1094400010BD00000D0A3E204D61696E20696D75EA
:10945000206163632063616C692073756365737356
:10946000656421000D0A3E20457874656E642069AC
:109470006D75206163632063616C6920737563653A
:10948000737365642100000010B50446C06820B9FC
:1094900040F27F1104A0F9F78BFEE0680168C9680B
:1094A000BDE81040084700002E2E5C2E2E5C44655F
:1094B0007653747564696F5C416C676F7269746828
:1094C0006D735C416C676F726974686D732E637045
:1094D0007000000002480068806B01684968084716
:1094E00018000020D0F888070168C9680847D0F83C
:1094F00094070168C968084710B50446406820B958
:109500004FF4BB7104A0F9F753FE60680168C968A5
:10951000BDE81040084700002E2E5C2E2E5C4465EE
:109520007653747564696F5C416C676F72697468B7
:109530006D735C416C676F726974686D732E6370D4
:109540007000000010B50446006820B94FF4A67101
:1095500004A0F9F72DFE20680168C968BDE8104035
:10956000084700002E2E5C2E2E5C446576537475E1
:1095700064696F5C416C676F726974686D735C419C
:109580006C676F726974686D732E63707000000091
:1095900070B5044620482DED048BB0EE409A00686B
:1095A000801CFEF793FE002832D0D4F89C0710B13F
:1095B0000168C9688847D4F8A00710B10168C96874
:1095C0008847164D286890ED790AD0ED7A8A90ED9B
:1095D0007B8A00F2B47015F0ABFA2868B0EE680A26
:1095E00000F5F96015F0A4FA2868B0EE480A00F218
:1095F000DC7015F09DFAD4F88C07002808D00168BB
:10960000B0EE490AC968BDEC048BBDE8704008475C
:10961000BDEC048B70BD0000DC1F00203400002076
:1096200010B5044600F068F8204600F009F920461D
:1096300000F0ECF9204600F091F9642011F006F8F2
:109640001D49042302C018221C4911F043F8001FD1
:10965000E060016889688847542010F0F7FF1849D6
:109660000968096B416017490160C4F894074FF419
:10967000C67010F0EBFF04F0CFFCC4F88C0718B9EB
:10968000542111A0F9F794FD042010F0DFFF07F03A
:1096900023FCC4F8900718B956210BA0F9F788FDF0
:1096A000282010F0D3FF134902C00EF0A3F8001FCA
:1096B000C4F8980710BD0000700202089D0E010852
:1096C000180000208C0202082E2E5C2E2E5C4465B1
:1096D0007653747564696F5C416C676F7269746806
:1096E0006D735C416C676F726974686D732E637023
:1096F00070000000CC0102082DE9F05F05464FF430
:10970000227B584610F0A2FF4FF4FA6101F078FD79
:10971000C5F89C0718B99F213DA0F9F749FDD5F878
:109720009C07016809698847040003D1A32138A078
:10973000F9F73EFD7020414E20704FF0010A84F889
:1097400001A030684FF0040800F1C801616000F525
:10975000E06100F5B460C4E9021002202074062024
:109760006074A4F812804FF01809A4F81490192717
:10977000E7820521218360830720A0830820E083FE
:10978000092020840A206084D5F89C070168896834
:109790008847584610F05AFF4FF4FA6101F030FD47
:1097A000C5F8A00718B9C02119A0F9F701FDD5F82F
:1097B000A007016809698847040003D1C32114A0E8
:1097C000F9F7F6FC0020207084F801A0306800F55D
:1097D000C871616000F5E06100F2B450C4E90210A4
:1097E000A4F81280A4F81490E78256202083572012
:1097F00060835820A0835920E0835A2020845B2076
:109800006084D5F8A00701688968BDE8F05F084763
:109810002E2E5C2E2E5C44657653747564696F5CE5
:10982000416C676F726974686D735C416C676F72CD
:109830006974686D732E637070000000340000203E
:1098400070B505462DED028B8C2010F0FFFE3549DA
:109850009FED358A016000F12C0100240C7080ED31
:109860000C8AB0EE481AF0EE480AB0EE480A3430DE
:1098700014F05CFDB0EE481AF0EE480AB0EE480A6B
:109880000C3014F053FD80ED038A80ED048A80EDE6
:10989000058AB0EE481AF0EE480AB0EE480A1830D1
:1098A00014F044FD848114300DF0A4FF6C38C5F829
:1098B0008807016809698847040004D14FF485715D
:1098C0001AA0F9F775FC40F22F102080224800689A
:1098D00000F1C801616000F51671A16000F5E0615A
:1098E00000F54060C4E903100B20A0820C20E08248
:1098F0000D2020830E2060830F20A0831020E083A2
:1099000011202084122060841320A084D5F88807B9
:1099100001688A6805F11001BDEC028BBDE870405A
:109920001047000018010208000000002E2E5C2ED7
:109930002E5C44657653747564696F5C416C676F27
:10994000726974686D735C416C676F726974686D7D
:10995000732E6370700000003400002070B505465F
:109960004FF4907010F072FE08F014F9686020B99E
:109970004FF4AB7119A0F9F71BFC68680168096A1C
:109980008847040004D14FF4AD7114A0F9F710FC1E
:109990001D4840F2F9112180026802F536706060BE
:1099A0004C38A06002F23C4020612838E06002F5AB
:1099B000B960606102F5E060A06102F6DC402062FF
:1099C00002F64412C8386262E0615C202085686853
:1099D00002689268BDE87040104700002E2E5C2E91
:1099E0002E5C44657653747564696F5C416C676F77
:1099F000726974686D735C416C676F726974686DCD
:109A0000732E6370700000003400002070B50546AE
:109A1000C42010F01BFE2449016000214175012281
:109A200080F82C209FED210A80F82D1080ED0C0A83
:109A300080ED0D0A80ED0E0A80ED0F0A80ED100A10
:109A400080ED120A80ED130A80ED140A044680EDC1
:109A5000150A174A04F15800A265064684F87810E2
:109A600014F08CFB134830602C6021682046096A92
:109A70008847040004D14FF49C710FA0F9F798FBBC
:109A80004FF4CA7020801748006800F523716160A8
:109A900000F5E06100F62840C4E90210286801687A
:109AA0008968BDE8704008475801020800000000BE
:109AB00060020208400202082E2E5C2E2E5C4465D5
:109AC0007653747564696F5C416C676F7269746812
:109AD0006D735C416C676F726974686D732E63702F
:109AE00070000000340000207CB57D4C06460078F4
:109AF0002268032829D001282BD007282DD0794DA2
:109B0000062832D008283BD009283DD00A283FD06B
:109B100012284DD002285CD00B2879D00C2878D0A0
:109B20000D2877D00E2876D00F2875D0102874D045
:109B3000112873D0172872D0132871D06A491428BD
:109B400009686ED015286DD0C7E010460CF06CFB8C
:109B5000C3E0304600F07EFBBFE06448438EC28B1A
:109B6000418963A0FBF70EFBB7E066A0FBF70AFB99
:109B70002868801CFEF720FD206804F061FBACE043
:109B800010460AF01BFCA8E0304600F0F3FAA4E00F
:109B900066A0FBF7F7FA0122042120680AF0DEFE36
:109BA0006C480068806B0168CA680121904794E0A6
:109BB00069A0FBF7E7FA0122D10320680AF0CEFE84
:109BC0006B480068018D206800F56E7008F065FD37
:109BD00083E068A0FBF7D6FA012012F06BFA6CA0C4
:109BE000FBF7D0FA71A0FBF7CDFA022012F062FA6F
:109BF00028680021801CFEF771FDBCEEC00A6DA034
:109C000010EE101AFBF7BEFA012012F053FA0AE028
:109C10001DE02EE032E035E038E03BE03EE044E09D
:109C20004AE053E056E065A0FBF7ACFA012012F0E1
:109C300041FA6948FBF7A6FA012012F03BFA67A047
:109C4000FBF7A0FA012012F035FA73A02EE0694666
:109C500010460AF0BFFEDDE9002177A0FBF792FA7B
:109C60007D480068FFF7B4FB01467CA0FBF78AFA49
:109C700033E00021104605F0ABFE2EE0104605F063
:109C8000F9FD2AE010460AF07BFF26E0104604F0BA
:109C900061FC22E0104605F0E1FE1EE02868FCF7BA
:109CA0007DFE71A0FBF76EFA17E074A0FBF76AFA6D
:109CB000012012F0FFF910E073A0FBF763FA032311
:109CC0000022194620680AF04DFD06E00846FEF71E
:109CD0006BFE02E00846FEF74BFF002030707CBDB3
:109CE00020000020DC1F002038000020384B00201E
:109CF0000D0A3E20464E533A2025642C25642C251F
:109D0000640000000D0A3E20496E69742070617283
:109D10006120696E20666C6173682C20666F72200A
:109D200066697273742072756E2E00000D0A3E20F3
:109D30005365742067707320646174206469726570
:109D4000637420746F20636F6E736F6C652E0D0AE1
:109D500000000000180000200D0A3E20536574200A
:109D600061646D696E206D6F64652E0D0A000000E0
:109D7000340000200D0A0D0A3E2042726561642005
:109D8000426F6172642050696C6F742C2000000077
:109D900020446576656C6F7020426173652056655E
:109DA00072203230323430383031000028456E298C
:109DB00000000000202D2025640000000D0A3E2038
:109DC000436F6D6D616E6420656E642077697468A1
:109DD00020223B2200000000000602080D0A3E205F
:109DE0007374617274666C746C6F672F73746172D4
:109DF0007468696C6C6F672F656E646C6F672F6534
:109E000072617365636869702F68696C73696D2F1F
:109E10006C6F67696E666F000D0A3E20636F6E732C
:109E20006F6C657561762F657272636C6561722FF8
:109E300065786974000000000D0A3E205374617457
:109E4000757328312D30293A203078253038782D17
:109E500025303878000000002C0000200D0A3E203C
:109E60004770733A202564000D0A3E20436C6561FB
:109E700072207761726E696E670000002045727211
:109E80006F7220636D640000205265736574206DED
:109E900065737361676520646F776E2072617465A6
:109EA0000000000070B50D4604466DA12846F6F787
:109EB0006BFC00287BD06CA12846F6F765FC0028D7
:109EC0007BD06CA12846F6F75FFC002877D06AA10A
:109ED0002846F6F759FC002871D069A12846F6F704
:109EE00053FC00286DD068A12846F6F74DFC0028E9
:109EF00069D068A12846F6F747FC002865D068A11C
:109F00002846F6F741FC002861D068A12846F6F7FC
:109F10003BFC002860D068A12846F6F735FC0028F5
:109F20005CD067A12846F6F72FFC002858D066A120
:109F30002846F6F729FC002854D067A12846F6F7F2
:109F400023FC002850D066A12846F6F71DFC002807
:109F50004CD065A12846F6F717FC002849D065A12A
:109F60002846F6F711FC38B365A12846F6F70CFC35
:109F700078B366A12846F6F707FC58B366A12846D1
:109F8000F6F702FC38B366A12846F6F7FDFB78B376
:109F900065A12846F6F7F8FB00285FD0172020704F
:109FA000634829460068BDE870400DF01AB90320E7
:109FB000F5E702E003E004E01DE00120EFE7022006
:109FC000EDE71220EBE70620E9E70720E7E70820A6
:109FD000E5E712E013E014E00920E0E70A20DEE7FD
:109FE0000B20DCE70C20DAE70D20D8E70E20D6E7BF
:109FF00009E00F20D3E71020D1E71120CFE714208C
:10A00000CDE71520CBE74B4E1620207030684A4C28
:10A01000008D41070FD50022042120680AF09EFC24
:10A0200046A0FBF7AFF84D480068806B0168CA682E
:10A0300000219047B4E70004B2D500224FF400415C
:10A0400020680AF08BFC3068018D206800F56E7086
:10A0500008F023FB42A0FBF795F8A1E713209EE749
:10A0600064656275673B0000737973696E666F3B68
:10A07000000000003F3B000068656C703B00000082
:10A0800061646D696E3B0000696E69746673747219
:10A09000756E3B00667265656D656D3B0000000086
:10A0A00061636363616C693B000000006D6167631D
:10A0B000616C693B000000006770736461743B0071
:10A0C0007374617475733B007374617274666C743D
:10A0D0006C6F673B00000000656E646C6F673B004F
:10A0E00068696C73696D3B006C6F67696E666F3B86
:10A0F000000000006572617365636869703B000071
:10A10000657272636C6561723B0000006765747014
:10A110006172613B00000000746573743B000000D5
:10A12000657869743B00000072657365743B0000DC
:10A130003000002034000020200000200D0A3E20C6
:10A140004578697420677073206469726563742050
:10A15000746F20636F6E736F6C65000018000020D1
:10A160000D0A3E20457869742061646D696E206D2A
:10A170006F64650070B51EA0FBF704F8224801214A
:10A18000006890F8682200F5167012072FD1017050
:10A190001E490B684FF47A71002B10D01C4A1D4CDD
:10A1A0001268A2F1010202FB04F2B2FBF1F25C6A56
:10A1B000B4FBF1F4224405D14FF0000107E04FF069
:10A1C0000002F8E75B6AB3FBF1F401FB1431446869
:10A1D0000389A2EB0404A1EB030304EB44051BB2C7
:10A1E000C5EBC41403EBC403C3604260018170BDBE
:10A1F0000D0A3E205374617274206D6167206361A3
:10A200006C6962726174650034000020E41F0020F4
:10A210005C1F00200046C3232DE9F84100251646A7
:10A220000F4680468DF800502C460BE08DF800500C
:10A230006946404600F0DDF940B19DF80000385510
:10A24000641CA4B2B44201D2202CEFD32046BDE856
:10A25000F881000070B550A0FAF794FF012011F0CA
:10A2600029FF54A0FAF78EFF56A0FAF78BFF40F2B1
:10A27000E97157A0FAF786FF012158A0FAF782FF8B
:10A28000042156A0FAF77EFF564C2068801CFDF78B
:10A29000E3FF054620680021801CFEF71FFABCEE94
:10A2A000C00A2A4610EE100A81B24FA0FAF76AFFE0
:10A2B000206800F5C1600FF0C5F9014651A0FAF71A
:10A2C00061FF20680221801CFEF708FABCEEC00A7C
:10A2D0004FA010EE101AFAF755FF012011F0EAFE18
:10A2E0004FF4807211024EA0FAF74CFF564B042235
:10A2F000402156A0FAF746FF62A0FAF743FF694CE7
:10A3000069A0A38D228BA188FAF73CFF20890A213E
:10A31000B0FBF1F1238E6420A28B434342436AA039
:10A32000FAF730FF218E42F21070B0FBF1F3A18BEF
:10A33000B0FBF1F220896D49B1FBF0F16CA0FAF7A6
:10A3400021FF638EE28B618972A0FAF71BFF012067
:10A3500011F0B0FE774C2068828A018876A0FAF767
:10A3600011FF012011F0A6FE2068048D7BA0FAF7F2
:10A3700009FFA00702D57DA0FAF704FF200402D54B
:10A380007EA0FAF7FFFE600704D5BDE870407EA00E
:10A39000FAF7F8BE70BD00000D0A3E2042726561FA
:10A3A0006420426F6172642050696C6F74202D20AC
:10A3B00000000000446576656C6F70204261736533
:10A3C0002000000028456E636F64652920000000AE
:10A3D0000D0A3E2056657220256425002E25303258
:10A3E00064000000DC1F00200D0A3E2052756E2024
:10A3F000436F756E74733A25642050617261733ACD
:10A4000025640000205750733A25642000000000A6
:10A410000D0A3E2054656C65426175643A256400FE
:10A420000D0A3E20466C6173683A202564207061F5
:10A430006765732C202564206279746520706572CD
:10A440002070616765000000FCFF03000D0A3E20DC
:10A450002564206279746520706572206C6F672CAA
:10A46000202564206C6F67732070657220706167AF
:10A47000652C20746F74616C202564206C6F677389
:10A48000000000000D0A3E20466173742F4E6F726B
:10A490006D616C2F536C6F77207468726561643ADC
:10A4A00000000000384B00200D0A202020205469B5
:10A4B0006D65207573616765287573293A25642C6D
:10A4C00025642C25640000000D0A20202020417600
:10A4D00067206C6F6F702074696D65287573293AF9
:10A4E00025642C25642C25640000000080969800CB
:10A4F0000D0A20202020417667206C6F6F70206647
:10A50000726571756E63653A25642C25642C25642B
:10A51000000000000D0A202020204672656520738F
:10A520007461636B2862797465293A25642C25640B
:10A530002C256400340000200D0A3E204D73674C2A
:10A540006F6F7020546D3A256475732C207261749E
:10A55000653A25642F6C6F6F700000000D0A3E2075
:10A56000576F726B206D6F64653A20000D0A2020D2
:10A570002D526C6561736520000000000D0A2020DB
:10A580002D41646D696E20000D0A20202D47505327
:10A5900020446972656374696F6E00000448006846
:10A5A000008D042801D00020704701207047000072
:10A5B000340000200021C184818441842021801C3A
:10A5C000F6F798B8C28C202A01D300207047C28CBD
:10A5D00012B1428C521C4284428C202A01D30022A8
:10A5E000428493B2821C9954C18C491CC1840120BD
:10A5F000704710B500230B70C28CA2B1848C821CF2
:10A60000A45C0C70818C8B54C18C491EC184818CDC
:10A61000428C914201D0491C818489B2202900D307
:10A620008384012010BD002010BD00002DE9F04101
:10A630008CB0254D002680468DF8006028680168A2
:10A64000896A884707B2002434E000BF8DF80060B3
:10A6500028680168CA6A6946904748B34046FFF7D0
:10A660009DFF38B119480068806B01688A689DF8C1
:10A67000001090479DF800104046FFF7A3FFF0B18F
:10A680009DF800003B2813D1202103A8F6F754F8C9
:10A69000202203A94046FFF7BFFD03A90CA0FAF74B
:10A6A00071FD03A94046FFF7FDFB4046FFF782FF1F
:10A6B000641C24B2BC42C9DB0CB0BDE8F08140464A
:10A6C00088F80060F2E70000E01F0020180000207A
:10A6D0000D0A0D0A3E20434D443A202725732700DA
:10A6E00010B50446002060702070E084A08460846F
:10A6F0002021A01CF5F7FEFF204610BD704700206A
:10A7000070470000064909680A6912F0010F05D078
:10A710006FF001020A614168491C41607047000006
:10A72000E41F002010B5084C206818B90E2107A0BE
:10A73000F8F73EFD2068C16841F00101C160016881
:10A7400041F00101016010BDE41F00202E2E5C2E9F
:10A750002E5C44657653747564696F5C4273705CFB
:10A7600054696D65725C506854696D65722E6370D2
:10A770007000000000214160014901607047000045
:10A78000DC00020870B50446808818B92F2123A088
:10A79000F8F70EFD2E4D15212868801CFDF79EFF51
:10A7A000A088F0EE400A00EE100A04F19000B8EE26
:10A7B000400A13F0C1FB28681421801CFDF78EFFAE
:10A7C000A088F0EE400A00EE100A04F15C00B8EE3A
:10A7D000400A13F0B1FB28681621801CFDF77EFFAC
:10A7E000A088F0EE400A00EE100A04F59070B8EE72
:10A7F000400A13F0BBFA28681721801CFDF76EFF92
:10A80000A088F0EE400A00EE100A04F59A70BDE848
:10A810007040B8EE400A13F0A9BA00002E2E5C2E4C
:10A820002E5C44657653747564696F5C416C676F28
:10A83000726974686D735C53656E736F725C536597
:10A840006E736F725F494D552E637070000000008B
:10A85000DC1F00202DE9F0410446406900268CB041
:10A860000078411E062931D294F8181104F5A47518
:10A8700041F0080184F8181194F82412814218D08C
:10A8800084F82402012811D1284608F019FDB6EEFB
:10A89000000A06220021284608F016FD207A012130
:10A8A000009053A306220846FBF71EFF284608F037
:10A8B00004FD94ED0C0A04F13801284608F0CEFBA3
:10A8C00094F85801042802D0032812D08BE0207A93
:10A8D000012100904EA303220846FBF705FF2846FE
:10A8E00008F0EEFC0A2184F82412606913F070FE6F
:10A8F00079E008A813F01EFD08AA04F50A7128469D
:10A900000FF01EFD04F50D700EF02CFA9DED080AF7
:10A91000284684ED8D0A9DED090A84ED910A9DED8E
:10A920000A0A84ED950A08F0CBFC0B2184F8241266
:10A9300094F8180120F0080084F81801606913F0F9
:10A9400047FED4F8300214F0E7FC05460E46D4F872
:10A950002C0214F0E1FC07468846D4F8280214F0D3
:10A96000DBFC02AA2FA382E88301CDE90656207AF8
:10A970000121009006220846FBF7B6FE324D94ED09
:10A980008A0A218C28680122801CFDF715FF28689F
:10A9900094ED8B0A618C0122801CFDF70DFF286865
:10A9A00094ED8C0AA18C0122801CFDF705FF01208B
:10A9B00011F080FB286894ED8D0AE18C0122801C47
:10A9C000FDF7FAFE286894ED910A218D0122801C82
:10A9D000FDF7F2FE286894ED950A618D0122801C36
:10A9E000FDF7EAFE01260CB03046BDE8F08100001C
:10A9F00043616C6962726174696F6E206F66204991
:10AA00004D55256420697320737461727465640008
:10AA1000494D5525642043616C69206661696C6508
:10AA200064210000494D553A307825303258206F66
:10AA300066667365743A20252E336620252E3366AC
:10AA400020252E33662E0000DC1F00202DE9F0416A
:10AA500004462DED028B90B00069007800285AD191
:10AA600094F81801810756D4000754D400259FEDAF
:10AA7000B88AD4F8C40058BBFBF720FEC4F8C40061
:10AA800084ED378A84ED368A84ED358AA4F8E05067
:10AA9000BFEE000A84ED3C0A84ED3F8A84ED3E8AD5
:10AAA00084ED3D8A84ED428A84ED418A84ED408ABA
:10AAB00084ED348A84ED338A84ED328A94F8180167
:10AAC00020F0040084F81801217AA2A0FBF772FCA0
:10AAD000B4F8E00020B3C8282AD200BF94ED350AAC
:10AAE000D4ED140A30EE200A84ED350A94ED360ACE
:10AAF000D4ED150A30EE200A84ED360A94ED370ABB
:10AB0000D4ED160A30EE200A84ED370AB4F8E000DE
:10AB1000401CA4F8E00010B0BDEC028BBDE8F08151
:10AB200004F1440004F1E40307C883E80700D5E713
:10AB300004F1E40104F1440014F0BBF90AA90AA8E5
:10AB400081EC030A14F098F910EE100A8849884243
:10AB500002DDA4F8E050DEE704A813F0EBFB07A841
:10AB600013F0E8FBB4F8E00018B9D32181A0F8F79E
:10AB70001FFBB4F8E00094ED352A00EE100A684699
:10AB8000F8EE401A94ED370A80EE211A94ED360A59
:10AB9000C0EE210A82EE210A13F0C8FB90EC030AF2
:10ABA00004AA04F1F40004A9064682EC030A14F096
:10ABB00080F907A907A881EC030A14F05DF9D4ED28
:10ABC0003C0A04F58077F5EEC00AF1EE10FA0BD2DC
:10ABD00084ED3C0A04AB04F5867493E8070084E82E
:10ABE0000700A4F5867459E010EE100A6E498842F9
:10ABF00036DAB6EE000A304614F0D3F90DA880EC30
:10AC0000030AB6EE000A04A814F0CBF90DA96846B1
:10AC10008DEC030A14F0EBF904F1F40080EC030A64
:10AC200094F8180140070CD5304614F025F9F0EEE1
:10AC3000408A384614F020F9F4EEC08AF1EE10FA9A
:10AC400005D2F43407CC84E80700A4F5807494F8A6
:10AC50001801410722D440F0040084F818011DE0D7
:10AC6000F4EEC00AF1EE10FA18DD84ED3C0AB6EEFF
:10AC7000000A304614F095F90DA880EC030AB6EEF0
:10AC8000000A04A814F08DF90DA968468DEC030A9A
:10AC900014F0ADF904F5867080EC030A04ABF434CB
:10ACA00093E8070084E8070094F82400F43C410787
:10ACB00009D504F5807440F0020094E80E00383C99
:10ACC00084E80E0016E0FBF7F9FCD4F8C410401A33
:10ACD00047F23051884211D934A0FBF76BFB04F5E1
:10ACE000867494E80700443C84E8070094F8500018
:10ACF00040F0020084F85000C83C07E084ED378A39
:10AD000084ED368A84ED358AA4F8E05094F8180171
:10AD100080077FF520AF217A2AA05434FBF74AFB45
:10AD2000E06F14F0F9FA07468846A06F14F0F4FAC1
:10AD300005460E46606F14F0EFFA8DE8E00141EC35
:10AD4000100B28A053EC102BFBF734FBE3E60000BC
:10AD5000000000000D0A3E20496E69742047797298
:10AD60006F203078253032582E2E2E203E4900009C
:10AD7000CDCC4C3E2E2E5C2E2E5C446576537475E5
:10AD800064696F5C416C676F726974686D735C5362
:10AD9000656E736F725C53656E736F725F494D556C
:10ADA0002E6370700000000089D2DE3A54696D6530
:10ADB000206F7574206F66204779726F20696E6905
:10ADC000740000000D0A3E20496E697420477972B4
:10ADD0006F20307825303278205375636573736542
:10ADE000642100002047797220626961733A252E40
:10ADF000336620252E336620252E336600000000A2
:10AE00000830704730B53C4D0446818B286887B0C8
:10AE1000801CFDF763FCD4ED0E1AF0EEE10AF4EEAF
:10AE2000C00AF1EE10FA11DCD4ED0F0AF0EEE00AE0
:10AE3000F4EEC00AF1EE10FA08DCD4ED100AF0EEE0
:10AE4000E00AF4EEC00AF1EE10FA04DDD4F81C01B9
:10AE5000401CC4F81C0194ED101AD4ED0F0AB0EE9A
:10AE6000610A04F5907012F0B5FF03AA03A904F17A
:10AE7000380082EC030A14F01CF820EE000A60EEA1
:10AE8000A00A21EE011A04F59A7012F0A3FF684699
:10AE90008DEC030AFBF7D0FC8DED000A01A8FBF74F
:10AEA000CBFC8DED010A02A8FBF7C6FC8DED020A72
:10AEB0002868E18B801CFDF711FCDDED000AF4EE43
:10AEC000C00AF1EE10FA0FD2DDED010AF4EEC00A6D
:10AED000F1EE10FA08D2DDED020AF4EEC00AF1EE4E
:10AEE00010FA01D2012200E00022617E00232868CE
:10AEF000FBF700FF07B030BDDC1F002010B5044693
:10AF0000407A18B91D2114A0F8F752F9E06818B971
:10AF10001F2111A0F8F74CF9606918B920210EA083
:10AF2000F8F746F9206918B921210BA0F8F740F984
:10AF3000207E3F2803D3232107A0F8F739F9607E4C
:10AF40003F2803D3242104A0F8F732F92046BDE8B6
:10AF50001040FFF717BC00002E2E5C2E2E5C4465BF
:10AF60007653747564696F5C416C676F726974685D
:10AF70006D735C53656E736F725C53656E736F7245
:10AF80005F494D552E6370700000000010B50446F7
:10AF9000407A002837D094F81801C10706D140F054
:10AFA000010084F818012046FFF7ECFBF8F7D6FC07
:10AFB000D4ED0D0A9FED141A204670EE600AC0EE23
:10AFC000811AC4ED0C1A84ED0D0A00F04DF8207AB8
:10AFD000702801D0472802D12046FFF737FD2046D0
:10AFE000FFF710FF94F81801810703D5000701D47B
:10AFF000012200E000220548217E00230068BDE810
:10B000001040FBF777BE10BD00007A44DC1F002023
:10B0100070B50446002004F12C05012915D0022941
:10B0200019D004F1C80203290DD004290CD1B7EEC0
:10B03000000A84ED320AB0EE000A84ED330AB0EE65
:10B04000080A84ED340A104670BD2046FFF702FC62
:10B0500084F82C0006E007CAC83484E80700012001
:10B0600004F89C0C284670BD2DE9F041614E044661
:10B07000418B306886B0801CFDF730FBBCEEC00A07
:10B0800004F13801884610EE100AC7B2E068383083
:10B0900090EC030A3846FAF7F3F9E06804F150013E
:10B0A0000D4690EC030A3846FAF7EAF99FED520A8A
:10B0B00003A8B0EE401AF0EE400A13F037F9B7EEED
:10B0C000001AF7EE000AB7EE000A684613F02EF9F0
:10B0D0003068218C801CFDF701FB8DED030A306880
:10B0E000618C801CFDF7FAFA8DED040A3068A18CA2
:10B0F000801CFDF7F3FA8DED050A3068E18C801CA9
:10B10000FDF7ECFA8DED000A3068218D801CFDF70B
:10B11000E5FA8DED010A3068618D801CFDF7DEFADD
:10B120008DED020A03A9404613F0C3FEC4ED120AD6
:10B1300084ED131ADDED001A04F1440104F19000CE
:10B1400020EE210A84ED110A9DED010A20EE800A0D
:10B1500084ED120A9DED020A21EE000A84ED130A25
:10B1600012F0ECFE04F14400294680EC030A18308A
:10B170009FED220AD5ED000A60EE800AC5ED000AB7
:10B18000D5ED010A60EE800AC5ED010AD5ED020A8F
:10B1900020EE800A85ED020A12F0D0FEC4ED150AF9
:10B1A00084ED161AD4ED320A04F1440130EE600A3F
:10B1B00085ED000A95ED010AD4ED330A30EE600A00
:10B1C00085ED010A95ED020AD4ED340A30EE600AED
:10B1D00085ED020AE06891EC030A543013F0B4FAEA
:10B1E000E06850341C3094EC030A13F0ADFA06B05A
:10B1F000BDE8F081DC1F00200000000035FA8E3C25
:10B200003EB581802F4940F8381B13F093F80C307D
:10B2100013F090F80C3013F08DF80C3012F092FE11
:10B22000343012F08FFE383013F084F80C3013F005
:10B2300081F8103013F07EF8103013F07BF80C30EA
:10B2400013F078F80C3013F075F8143012F0DEFDBE
:10B25000143012F0DBFD143008F0FAF9E03013F08E
:10B2600069F80C3013F066F80C3013F063F80C300A
:10B2700013F060F8A0F51374002084F81801C4F8E6
:10B28000C400A4F8E000BFEE000A84ED3C0A9FED84
:10B290000E0A684684ED0C0A84ED0D0AB0EE401AE1
:10B2A000F0EE400A13F042F89DE8070004F138037D
:10B2B00083E807009DE80700183383E8070020466D
:10B2C0003EBD0000F80002080000000010B5044672
:10B2D0002DED028B8CB09FED2F8A6846B0EE481A98
:10B2E000F0EE480AB0EE480A13F020F8B0EE481A23
:10B2F000F0EE480AB0EE480A03A813F017F8A06869
:10B300000421703090EC030A23488DEC030A006896
:10B31000801CFDF7E3F9BCEEC00A03A910EE100A89
:10B320009DEC030AC0B2FAF7ABF804F1500104F146
:10B330002C000BF0C0F9002827D094ED141A9FEDD3
:10B34000170A1749C1EE000A10EE900AC4ED140A5C
:10B3500088421ADBDDED050ADDED031A09A820EEAF
:10B36000801ADDED040A60EE800A21EE800A12F0F8
:10B37000DDFF90EC030A06A880EC030A9FED090AA2
:10B3800013F082FD343484EC030A0CB0BDEC028B64
:10B3900010BD000000000000DC1F002000007A4407
:10B3A0006F12833A004088442DE9F04104462DEDA8
:10B3B000048B406D3549884263DBB4F86400002893
:10B3C0005FD000EE100A04F15800B8EE400A13F006
:10B3D0005BFD2F48F0EE408AB0EE608AB0EE419AF5
:10B3E0000068FBF757FA50B1A0680821B0EE491A7F
:10B3F000F0EE480AB0EE680A8C3013F00DFA60697E
:10B4000001214FF00005027C12072ED10170214965
:10B410000B684FF47A71002B10D01F4A1F4E126830
:10B42000A2F1010202FB06F2B2FBF1F25E6AB6FB88
:10B43000F1F6324404D14FF0000106E02A46F9E764
:10B440005B6AB3FBF1F601FB163146680389A2EB98
:10B450000606A1EB030306EB46071BB2C7EBC616B5
:10B4600003EBC603C360426001819FED0D0A84EDCA
:10B47000150A84ED180A84ED170A84ED160AA4F85B
:10B480006450BDEC048BBDE8F0810000CDCCCC3D18
:10B49000DC1F0020E41F00205C1F00200046C323A7
:10B4A0000000000010B5044600F02AF9002841D041
:10B4B00094ED150AD4ED140A04F1580030EE200A78
:10B4C00084ED150A94ED160AD4ED100A30EE200A28
:10B4D00084ED160A94ED170AD4ED110A30EE200A15
:10B4E00084ED170A94ED180AD4ED120A30EE200A02
:10B4F00084ED180AB4F86410491C89B2A4F86410E9
:10B50000082917D3D0ED000AB0EE000A80EE801AA9
:10B5100080ED001AD0ED010A80EE801A80ED011A4C
:10B52000D0ED020A80EE801A80ED021A34F8640F22
:10B530004008208010BD000070B50D00044603D106
:10B540000F210CA0F7F734FEA08818B9102109A02C
:10B55000F7F72EFEA06818B9112106A0F7F728FE0C
:10B5600004F16C00A566BDE870404FF47A710CF0F0
:10B57000C4B800002E2E5C2E2E5C44657653747584
:10B5800064696F5C416C676F726974686D735C535A
:10B59000656E736F725C53656E736F725F4D61673A
:10B5A0002E6370700000000010B50446FFF78EFE99
:10B5B000204600F009F82046FFF774FF2046BDE85A
:10B5C0001040FFF7F1BE000030B504462DED068BAC
:10B5D00095B006A812F0AEFE684612F0ABFE03A8C6
:10B5E00012F0A8FE454D218B2868801CFDF776F8E7
:10B5F0008DED060A2868618B801CFDF76FF88DEDD4
:10B60000070A2868A18B801CFDF768F88DED080AF1
:10B610002868E18B801CFDF761F88DED000A286831
:10B62000218C801CFDF75AF88DED010A2868618C89
:10B63000801CFDF753F88DED020A2868A18C801C50
:10B64000FDF74CF88DED030A2868E18C801CFDF7AE
:10B6500045F88DED040A2868218D801CFDF73EF821
:10B660008DED050A94ED0F0ADDED080ADDED061AF1
:10B6700012A830EE201A94ED0E0ADDED070A70EEE6
:10B68000200A94ED0D0A30EE210A12F04FFE90ECE4
:10B69000030A04F1400109A881EC030ADDED030A65
:10B6A0009DED041A9DED000AB0EE609ADDED019A61
:10B6B000DDED058AB0EE418A9DED02AA12F036FE5C
:10B6C000B0EE681AF0EE690AB0EE490A0C3012F0DA
:10B6D0002DFEB0EE4A1AF0EE680AB0EE480A0C30C1
:10B6E00012F024FE04F1400109A80EF0DEFE403401
:10B6F00084EC030A15B0BDEC068B30BDDC1F0020C6
:10B7000010B504462DED028B006C0EF0C6FF98B903
:10B71000606C0EF0C2FF78B9A06C0EF0BEFF58B995
:10B72000206C0EF0D1FF38B9606C0EF0CDFF18B967
:10B73000A06C0EF0C9FF18B10020BDEC028B10BD4B
:10B7400028481A210068801CFCF7C8FFF0EE408AE8
:10B75000F5EEC08AF1EE10FA01D80120EDE794ED84
:10B76000100AD4ED110A20EE000A00EEA00AD4ED72
:10B77000120A00EEA00A10F023F9B0EE408A04F19C
:10B780004C00FAF75CFE10B184ED138AE5E7D4EDC6
:10B79000130A012030EEC80A70EE881AB0EEC00A13
:10B7A00080EE211ADFED111A9FED0F0A61EE211ACA
:10B7B000F4EEE81AF1EE10FA08DDF2EE041A0020B9
:10B7C00061EE211A80EE211AB0EE410AB7EE001A9E
:10B7D00031EE401A60EE810A48EE000AC4ED130A09
:10B7E000ABE70000DC1F0020CDCCCC3D000048437F
:10B7F0002DE9F043044687B0806E211D00F076FCF1
:10B8000004F16C000BF07EFF002824D0E268107871
:10B81000012810D0022821D003281CD101213EA3E9
:10B8200003220846FAF760FFE06807B00021BDE890
:10B83000F04312F013BFD2E905010A0CC9B2030CA0
:10B8400003920091C0B2CDE90103012138A3062281
:10B850000846FAF749FF07B0BDE8F083002110461B
:10B8600012F0FCFEDFF8EC90A18BD9F80000801CF0
:10B87000FCF734FF10EE100A13F04EFD0746D9F81E
:10B8800000008846618B801CFCF728FF10EE100A30
:10B8900013F042FD0546D9F800000E46218B801CAE
:10B8A000FCF71CFF10EE100A13F036FD8DE8E301E3
:10B8B000012129A306220846FAF716FFD9F800004D
:10B8C000618C801CFCF70AFF10EE100A13F024FDB7
:10B8D0000546D9F800000E46218C801CFCF7FEFEC0
:10B8E00010EE100A13F018FD0746D9F8000088463C
:10B8F000E18B801CFCF7F2FE10EE100A13F00CFD39
:10B900008DE88301CDE9045601211BA306220846D8
:10B91000FAF7EAFE9FE7000043616C6920666169FF
:10B920006C6564212054696D65206F75740000009A
:10B930004D61672063616C693A2564252520417457
:10B9400074656D70743A25642053616D706C657315
:10B950003A256400DC1F002043616C692073756325
:10B9600021204F6673743A252E316620252E3166CC
:10B9700020252E31660000005363616C653A252E48
:10B98000316620252E316620252E3166000000000C
:10B9900070B588B00024029403940494CDE9054264
:10B9A000064610480094019400680D462346042280
:10B9B00006A900F5D76000F0FBF8DDF818000022BA
:10B9C00002EB820131440B7AAB4204D149688142D7
:10B9D00001D1012403E0521CD2B2142AF0D308B0E2
:10B9E000204670BDDC1F002070B5044690F868004A
:10B9F00015460E46142803D34D210DA0F7F7D8FBAA
:10BA000094F8680000EB80002044067294F8680007
:10BA100000EB80002044456094F86800401CC0B2F0
:10BA200084F86800142802D3002084F8680070BDF0
:10BA30002E2E5C2E2E5C44657653747564696F5CA3
:10BA40004672616D655C436F72655C4365727469D3
:10BA50006669636174652E637070000038B50446D2
:10BA6000F9F73AFD009006486946006800F2346034
:10BA700000F086FF01462046009AFFF7B5FF38BD6B
:10BA8000DC1F0020F0B50646CA7901208BB00C46B9
:10BA900001F10805572A1FD00021522A32D0512A1D
:10BAA00046D0542A2ED0532A58D0562A3ED100913F
:10BAB00001910291E4786F460B2C00D30B240B21EB
:10BAC0003846F4F739FE224629463846F4F7D8FDC1
:10BAD0009DF80A10019A26E028216846F4F72CFE0A
:10BAE000E4786F46262C00D3262426213846F4F726
:10BAF00023FE224629463846F4F7C2FD9DF825105C
:10BB0000079A10E000910191E2786846072A00D375
:10BB10000722ADF804108DF806102946F4F7B0FDA1
:10BB20009DF80610009A3046FFF732FF0BB0F0BDCB
:10BB30001C216846F4F700FEE4786F461C2C00D305
:10BB40001C241C213846F4F7F7FD224629463846C6
:10BB5000F4F796FD9DF81B10019AE4E7009101911E
:10BB60000291E4786F46092C00D309240921384654
:10BB7000F4F7E2FD224629463846F4F781FD9DF8A8
:10BB80000810009ACFE7000007490160002280F802
:10BB90006820114601EB81030344491C5A60C9B275
:10BBA0001A721429F6D37047380102087047000052
:10BBB0002DE9FF4F81B08B460446DDE91165DDE9D3
:10BBC0000F9704990E9890464FF0010A884203D9C6
:10BBD000002005B0BDE8F08FB9F1100F05DA102F85
:10BBE00003DA102E01DA102D03DB662185A0F7F7AA
:10BBF000DFFA049808EB00010091FDE013990022A0
:10BC000011B10123964605E002234FF0000E06E035
:10BC1000139921B11BF800102E39C9B208E01BF8A6
:10BC20000010BAF1000F01D0090901E001F00F0185
:10BC300010297DD24944102900DB1039C9B204EB28
:10BC4000010C9CF8048008EB010CBCF1100F02D32E
:10BC5000103908EB010C0CF0FF013944102900DB0E
:10BC60001039C9B204EB010C9CF8048008EB010CFC
:10BC7000BCF1100F02D3103908EB010C0CF0FF01DE
:10BC80003144102900DB1039C9B204EB010C9CF8D7
:10BC9000148008EB010CBCF1100F02D3103908EB33
:10BCA000010C0CF0FF012944102900DB1039C9B246
:10BCB00004EB010C9CF8048008EB010CBCF1100FA4
:10BCC00002D3103908EB010C0CF0FF0104EB010C5E
:10BCD0009CF8248008EB010CBCF1100F02D3103942
:10BCE00008EB010C0CF0FF0104EB010C9CF8148034
:10BCF00008EB010CBCF1100F02D3103908EB010C5A
:10BD00000CF0FF01491B00D51031C9B204EB010C46
:10BD10009CF8048008EB010CBCF1100F02D3103921
:10BD200008EB010C0CF0FF01891B00D5103100E07D
:10BD30005AE0C9B204EB010C9CF8148008EB010C2A
:10BD4000BCF1100F02D3103908EB010C0CF0FF010D
:10BD5000C91B00D51031C9B204EB010C9CF814804A
:10BD600008EB010CBCF1100F02D3103908EB010CE9
:10BD70000CF0FF01B1EB090100D51031DDF84CC02A
:10BD8000C9B2BCF1000F02D02E31CAB208E0BAF13C
:10BD9000000F02D009070A0E00E00A438AF0010AE8
:10BDA00009F101010FFA81F9B9F1100F15DB7F1CC0
:10BDB000A9F110013FB20FFA81F9102F0DDB103FEE
:10BDC000761C36B23FB2102E07DB103E6D1E2DB230
:10BDD00036B2002D01DA10352DB20EF1010101F05D
:10BDE000FF0E9E45FFF414AF0499431A0E99401CB0
:10BDF0000B440BF80320009981423FF7FFAE01206E
:10BE0000E7E600002E2E5C2E2E5C4465765374759A
:10BE100064696F5C4672616D655C436F72655C441A
:10BE200061746150726F6353746D33322E6370703E
:10BE3000000000002DE9F04F32490160092505712D
:10BE40000221417185714FF0030A80F807A0042296
:10BE500002724FF00F0980F80990062282724FF0AB
:10BE60000B0E80F80BE0072606730827477380F84F
:10BE70000EA00A23C3730E2404744374817480F8E3
:10BE80001390047547754FF0050B80F816B0C47514
:10BE90000127077642764FF00D0C80F81AC0C27663
:10BEA0004FF00C0880F81C8046778177C67780F8C1
:10BEB000203080F821C080F8227080F8235080F86C
:10BEC000245080F8257080F8269080F8273080F87C
:10BED00028A080F8293080F82AB080F82BC080F89C
:10BEE0002C1080F82D6080F82E4080F82FE080F82C
:10BEF000301080F8312080F8324080F83320BDE8DF
:10BF0000F08F0000480102087047007928B104282A
:10BF100003D0052801D001207047002070470000A1
:10BF20009FED050A012180ED060A40F2E242B1EEE2
:10BF3000040A001D04F08BBE0000004230B5054627
:10BF4000007989B020B1042804D0002009B030BDA8
:10BF50000120FBE7684612F0EDF903A812F0EAF9B8
:10BF600006A812F0E7F906AB03AA6946281D04F0FB
:10BF7000C2FC294C9DED000A012220680B21801C87
:10BF8000FCF71AFC20689DED010A01220C21801C9F
:10BF9000FCF712FC20689DED020A01220D21801C95
:10BFA000FCF70AFC20689DED030A01220E21801C8B
:10BFB000FCF702FC20689DED040A01220F21801C81
:10BFC000FCF7FAFB20689DED050A01221021801C78
:10BFD000FCF7F2FB20689DED060A01221121801C6E
:10BFE000FCF7EAFB20689DED070A01221221801C64
:10BFF000FCF7E2FB20689DED080A01221321801C5A
:10C00000FCF7DAFB28680221806812F027FB281D64
:10C0100004F01AFE9CE70000DC1F00201FB5044658
:10C020000068DFED1B0A406890ED210A7030B8EE21
:10C03000400A80EE201ABCEEC10A10EE101A002948
:10C0400024D090EC030A6946201D8DEC030A04F00D
:10C0500089F803A9201D04F011FE201D04F05AFCEC
:10C0600038B120680321806812F0F8FA201D04F02E
:10C07000EBFD201D0DF014FF28B92079042802D112
:10C080002046FFF75BFF204600F004F81FBD0000CC
:10C0900000007A447FB5044600798DF80000207FC7
:10C0A000ADF80200201D0DF071FEBCEEC00A04F5D3
:10C0B000EB6510EE100A8DF80400B4F86C07ADF8CB
:10C0C000060095ED000A04F204450FF079FC8DEDB1
:10C0D000020A95EDD60A0FF073FC8DED030A206875
:10C0E00069468068143012F0AFF97FBD70B5044620
:10C0F00000680D46002812D11DB916211BA0F7F7C4
:10C1000057F82560686818B9192118A0F7F750F892
:10C110002068806818B91A2114A0F7F749F8206838
:10C12000C068007810B92046FFF778FF2068806863
:10C13000007884F8740794F87517814214D020466B
:10C14000FFF7E3FE002894F8740704D040B9201DDF
:10C1500004F07AFD04E0012802D12046FFF7E0FE5A
:10C1600094F8740784F8750770BD00002E2E5C2EBD
:10C170002E5C44657653747564696F5C416C676FBF
:10C18000726974686D735C53656E736F725C53652E
:10C190006E736F725F4D616743616C694374726C5B
:10C1A0002E6370700000000010B5001D04F0CCFD7F
:10C1B000002180F8701780F8711740F8041D10BD39
:10C1C00040680168896A08472DE9F043A3B04FF041
:10C1D00000065FEA010881468DF87860374604D191
:10C1E0004FF4FE7118A0F6F7E3FF4846FFF7E8FFAB
:10C1F0000546002422E000BF8DF87860D9F80400DD
:10C200000168CA6A1EA99047B0B11FAB6A469DF883
:10C21000781000200FF0A2FE70B10127782140466F
:10C22000F4F78AFA782269464046F4F729FA0022A0
:10C230004146484600F0C4FC641CA4B2AC42DBD3C7
:10C2400023B03846BDE8F0832E2E5C2E2E5C44656C
:10C250007653747564696F5C4672616D655C436F9B
:10C2600072655C4D61766C696E6B577261702E639E
:10C270007070000001214172704708B5ADF80010E0
:10C280008DF80220694600F0EAF908BDF0B50746CE
:10C2900091EC070AA7B00DF1780E01268A7FC87FBE
:10C2A000B1F81CC091F8203035468EEC070A6C4678
:10C2B0001EA9ADF894C08DF896208DF897008DF8E2
:10C2C0009830212202A8F4F7DBF94C208DF8070002
:10C2D00021232A46314620460FF0F4FD69463846B0
:10C2E00000F0FEF827B0F0BD2DE9F0438146A3B081
:10C2F000B1F808C04F898B89D1F8008091ED010A0F
:10C30000CA89088A498ACDF878808DED1F0AADF870
:10C310008800ADF8843001266C46ADF880C0ADF8D9
:10C320008620ADF88A103546ADF8827014221EA919
:10C3300004F10800F4F7A4F978208DF8070014231D
:10C340002A46314620460FF0BDFD6946484600F0BA
:10C35000C7F823B0BDE8F08330B50B46A1B01D6827
:10C360009B88ADF87C309BB2ADF80C307723044647
:10C3700001218DF807300A4668461E95029506236E
:10C380000FF0A0FD6946204600F0AAF821B030BDAC
:10C39000F0B5074601C9A9B091EC0A0A1FAB012606
:10C3A00035466C462C221E901EA902A883EC0A0A70
:10C3B000F4F766F9F7208DF807002C232A4631465A
:10C3C00020460FF07FFD6946384600F089F829B015
:10C3D000F0BDF0B5074601C9A9B091EC0A0A1FAB40
:10C3E000012635466C462C221E901EA902A883EC1D
:10C3F0000A0AF4F745F9F8208DF807002C232A469D
:10C40000314620460FF05EFD6946384600F068F878
:10C4100029B0F0BD2DE9F34FB5B0D1E90002B1F874
:10C4200008B0B1F80AA0B1F80C80B1F80E90CDF8C0
:10C43000C090B1F810E0B1F812C08F8ACB8A098B96
:10C44000CDE91E02ADF8848001266C46ADF880B0BF
:10C45000DDF8C090ADF888E0ADF88C70ADF89010C4
:10C460003546ADF882A0ADF88690ADF88AC0ADF83B
:10C470008E301A221EA904F10800F4F701F91B20DE
:10C480008DF807001A232A46314620460FF01AFD80
:10C490006946359800F024F837B0BDE8F08FF0B564
:10C4A000074601C9A5B091EC060A1FAB0126354627
:10C4B0001E906C461C221EA983EC060A02A8F4F703
:10C4C000DFF81E208DF807001C232A46314620463F
:10C4D0000FF0F8FC6946384600F002F825B0F0BDD0
:10C4E00070B50D469CB00646C97900F039F80028B1
:10C4F0001DD070216846F4F71FF925B940F2AD212F
:10C500000CA0F6F755FE00222946304600F0D2FB7B
:10C51000EC782946684608340FF016FD706822460C
:10C520000168CB6969469847002800D020461CB0B6
:10C5300070BD00002E2E5C2E2E5C44657653747503
:10C5400064696F5C4672616D655C436F72655C4DDA
:10C5500061766C696E6B577261702E63707000004B
:10C5600002460120127A012A08D1752906D07429C1
:10C5700004D0762902D0FD2900D000207047F0B504
:10C58000074691EC020AA5B0D1E9020291F816E043
:10C59000B1F810C04B8A898A8DED1E0ACDED1F0AB5
:10C5A000CDE92002ADF88C1001266C46ADF888C0AC
:10C5B0003546ADF88A308DF88EE017221EA904F1B9
:10C5C0000800F4F75DF86F208DF8070017232A465E
:10C5D000314620460FF076FC69463846FFF780FF6B
:10C5E00025B0F0BD2DE9F34FB5B0D1E900020B7FC6
:10C5F0002D93D1E903A9CE46B1F814B0B1F816C015
:10C600000F8B4B8BD1F808800DF19009497F89E899
:10C610000545ADF8A870ADF8AA302D9B8DF8AC306B
:10C6200001266C46ADF8A4B08DF8AD103546ADF8D6
:10C63000A6C01E2224A904F10800F4F721F818204E
:10C640008DF807001E232A46314620460FF03AFC9B
:10C6500069463598FFF744FF37B0BDE8F08F30B535
:10C660000B469FB01D889B78ADF87850ADB2ADF801
:10C6700008508DF80A304D23044601218DF807300B
:10C680000A46684603230FF01DFC69462046FFF763
:10C6900027FF1FB030BD30B59FB00023BE258DF8F9
:10C6A00078308DF87950BDF87850ADF808508DF895
:10C6B0000A302F23044601218DF807300A466846C8
:10C6C00003230FF0FFFB69462046FFF709FF1FB069
:10C6D00030BDF0B5A5B00C46074678216846F4F7A2
:10C6E0002BF8214601221646144601F1080091ED6F
:10C6F000000A0A7E8B88C9888DED1E0AADF87C3051
:10C70000ADF87E108DF8902001466D46102220A8CD
:10C71000F8F7B1FE19221EA905F10800F3F7B0FFE2
:10C7200016208DF8070019233246214628460FF0BF
:10C73000C9FB69463846FFF7D3FE25B0F0BD2DE9A9
:10C74000F041BCB080468DF80020174632220DF132
:10C750000100F3F750FF012635460EAC8DF8B0709E
:10C7600032220DF1B1000DF10101F8F784FE332200
:10C770002CA904F10800F3F783FFFD208DF83F009A
:10C7800033232A46314620460FF09CFB0EA9404633
:10C79000FFF7A6FE3CB0BDE8F0812DE9F047A2B05E
:10C7A000824691F80A9091F80B8091F80CC04F7B6B
:10C7B0008B7B0A89D1E90001ADF88020CDE91E010B
:10C7C0008DF884C001266C468DF882908DF88570B6
:10C7D00035468DF883808DF886300F221EA904F12E
:10C7E0000800F3F74DFF6E208DF807000F232A464F
:10C7F000314620460FF066FB69465046FFF770FE53
:10C8000022B0BDE8F08710B50B469EB0044601216A
:10C810006A460846F9F79EFB69462046FFF760FE28
:10C820001EB010BD2DE9F047A8B091EC070A824672
:10C830000DF1780E012691F8209091F8218091F861
:10C84000227091F82320B1F81CC0CB8B91F8240002
:10C850006C468EEC070A35461EA98DF898908DF827
:10C8600099808DF89A70ADF894C08DF89B208DF862
:10C870009C00ADF89630252204F10800F3F700FF84
:10C8800027208DF8070025232A46314620460FF041
:10C8900019FB69465046FFF723FE28B0BDE8F08734
:10C8A000F0B50746D1E90003A1B08A7A0989CDE93C
:10C8B0001E03ADF8801001268DF8822035466C46A7
:10C8C0000B221EA902A8F3F7DBFE7A208DF80700E1
:10C8D0000B232A46314620460FF0F4FA69463846C3
:10C8E000FFF7FEFD21B0F0BD40680168496A0847C6
:10C8F000F0B591F800C04F788E78CB7891F804E0CD
:10C900006CF3070167F30F219FB066F3174163F3E0
:10C910001F6102910125032104468DF807102A4664
:10C9200068468DF80CE0052329460FF0CBFA607AB3
:10C9300069460028204603D0FFF7D2FD1FB0F0BDA6
:10C9400000F056FAFAE7F0B50B469FB01F889E78C4
:10C95000DD7867F30F0366F3174365F31F630293F4
:10C960002C23044601218DF807300A46684604232B
:10C970000FF0A8FA69462046FFF7B2FD1FB0F0BDE0
:10C9800010B50B469EB01B6802935023044601214C
:10C990008DF807300A46684604230FF093FA69467B
:10C9A0002046FFF79DFD9DF804001EB010BD2DE947
:10C9B000F34FB9B0B1F80CC0D1F80080CDF8D0C0B9
:10C9C000B1F80EB0B1F810C0CDF8C8C091F818C0D9
:10C9D000CDF8BCC0D1E901C9CA46B1F81290CDF872
:10C9E000C490B1F81490CDF8C090B1F816E04F7E25
:10C9F0008B7ECA7E087F497FCDE91E8CCDF880A052
:10CA0000DDF8D0C0ADF884C0DDF8C8C0ADF888C08E
:10CA1000DDF8BCC0DDF8C4908DF890C0ADF886B0EC
:10CA2000ADF88A908DF891708DF89400DDF8C09083
:10CA30008DF8923001266C46ADF88C908DF89320DD
:10CA40008DF895103546ADF88EE01E221EA904F132
:10CA50000800F3F715FE79208DF807001E232A46FB
:10CA6000314620460FF02EFA69463998FFF738FD17
:10CA70003BB0BDE8F08FF0B59FB00C46054678217D
:10CA80006846F3F759FEA778E3782488012664F313
:10CA90000F0167F3174163F31F61029128218DF89D
:10CAA000071032466846042331460FF00BFA6946F8
:10CAB0002846FFF715FD1FB0F0BD10B50B469EB020
:10CAC000044601216A460846F9F719FB69462046E3
:10CAD000FFF706FD1EB010BD2DE9F34FD1E901B9F6
:10CAE000B1B0CC4691F80CA04F7B91F80E90D1F8E4
:10CAF0000080CDF8AC9091F80FE00B7C4A7C887CEC
:10CB00000DF17809C97C89E800198DF888308DF815
:10CB100089208DF884A08DF885708DF88A00DDF865
:10CB2000AC9001266C468DF886908DF88B103546BA
:10CB30008DF887E014221EA904F10800F3F7A0FD88
:10CB400073208DF8070014232A46314620460FF043
:10CB5000B9F969463198FFF7C3FC33B0BDE8F08FEF
:10CB600010B50B469EB0044601216A460846F9F707
:10CB70009DFB69462046FFF7B3FC1EB010BD0000C8
:10CB800070B50C00054603D11F2102A0F6F710FB7B
:10CB90006C6070BD2E2E5C2E2E5C446576537475D1
:10CBA00064696F5C4672616D655C436F72655C4D74
:10CBB00061766C696E6B577261702E6370700000E5
:10CBC0002DE9F04108790D460726B0FBF6F19046B5
:10CBD00006FB11020521B0FBF1F301FB1301114427
:10CBE0000D274930B0FBF7F207FB12000C1886B096
:10CBF0000F2C04D90F20B4FBF0F100FB1144102CD2
:10CC000004D340F252211FA0F6F7D2FA2879132359
:10CC1000B0FBF7F1B0FBF6F207FB110106FB1202C5
:10CC20000A4400F13B01B1FBF3F603FB1611561861
:10CC30000F2E04D90B21B0FBF1F201FB1206102ECE
:10CC400004D340F257210FA0F6F7B2FA4746B8F1E5
:10CC5000100F04D340F25A210AA0F6F7A9FA0020D7
:10CC6000CDE9037005908DE8510003461048EA783D
:10CC700005F10801006800F5D760FEF799FF06B0DE
:10CC8000BDE8F0812E2E5C2E2E5C446576537475C3
:10CC900064696F5C4672616D655C436F72655C4D83
:10CCA00061766C696E6B577261702E6370700000F4
:10CCB000DC1F00202DE9F04186B090460C0004D125
:10CCC00040F22F213EA0F6F773FA20790726B0FB39
:10CCD000F6F106FB11020521B0FBF1F301FB130194
:10CCE00011440D274930B0FBF7F207FB12000D1875
:10CCF0000F2D04D90F20B5FBF0F100FB1155102DBD
:10CD000004D340F236212EA0F6F752FA20791323ED
:10CD1000B0FBF7F1B0FBF6F207FB110106FB1202C4
:10CD20000A4400F13B01B1FBF3F603FB1611561860
:10CD30000F2E04D90B21B0FBF1F201FB1206102ECD
:10CD400004D340F23B211EA0F6F732FA4746B8F171
:10CD5000100F04D340F23E2119A0F6F729FA002063
:10CD6000CDE9037005908DE8610003461F4804F18A
:10CD70000801E27800680D4600F5D760FEF718FF5D
:10CD8000E178E21C0B464FF6FF70491D0DE000BF35
:10CD900012F8016B464086EA0616F6B2000A80EAEF
:10CDA000062080EAC60080EA1610491E89B2EFD23A
:10CDB0005855000AE1780934085506B0BDE8F081FD
:10CDC0002E2E5C2E2E5C44657653747564696F5C00
:10CDD0004672616D655C436F72655C4D61766C692E
:10CDE0006E6B577261702E6370700000DC1F002044
:10CDF00070B50C469CB00646C979FFF7B1FB002818
:10CE000020D070216846F3F797FC24B940F27221D4
:10CE10000DA0F6F7CDF9002221463046FFF74AFF74
:10CE2000E5782146684608350FF08EF8707A0028BC
:10CE30007068016801D04B6900E00B692A466946B9
:10CE4000984728461CB070BD2E2E5C2E2E5C446583
:10CE50007653747564696F5C4672616D655C436F8F
:10CE600072655C4D61766C696E6B577261702E6392
:10CE700070700000002101224160427203220272A0
:10CE800001707047704790F82C2000212AB1027D74
:10CE900022F00302027580F82C1090F82D20002A51
:10CEA0000ED0027D130703D590ED0C0A80ED130A16
:10CEB000D20603D590ED0D0A80ED120A80F82D10F0
:10CEC0007047000030B504462DED028B81B0C0687C
:10CED000007800284CD1207DC10749D1010747D5F2
:10CEE000C00645D59FED6D8AD4F89C00E8B9F9F7E6
:10CEF000E5FBC4F89C0084ED288A94ED0C0A84EDCF
:10CF00002C0ABFEE000A84ED2D0A84ED2A8A207DCA
:10CF100020F02000207584ED298A84ED2E8A94ED7E
:10CF20000D0A84ED300A84ED2F8A94ED2E0AD4ED9B
:10CF30000D0A5B4970EE202AB7EE000AC4ED2E2AD6
:10CF4000D4ED2F0A30EE802A84ED2F2AD4ED290A61
:10CF500094ED281A10EE900A88420DDAD4ED0C1ADE
:10CF600030EE800A31EE211A84ED281A84ED290A68
:10CF700001B0BDEC028B30BD81EE200AD4ED2A1A3F
:10CF800094ED2D3AB5EEC03A71EEC00AF0EEE00A2B
:10CF9000F1EE10FA04D2C4ED2D0A84ED2B0A22E042
:10CFA00010EE900A3F49B6EE001A88420EDA60EEA3
:10CFB000010A41EE810AC4ED2A0A207D810612D4BD
:10CFC000C4ED2C0A40F0200020750CE0B4EEE03AED
:10CFD000F1EE10FA07DDC4ED2D0A60EE010A41EE14
:10CFE000810AC4ED2B0A84ED2A0A217DDFED2E8A09
:10CFF0008A0604F1C0050BD594ED2C0A41F001001E
:10D0000084ED130A82EE820A207584ED300A18E05E
:10D01000F9F754FBD4F89C10401A47F2305188427B
:10D020001CD994ED2B0A84ED130A207D40F00100F9
:10D03000207594ED2E0AD4ED2F0A80EE201A84ED8F
:10D04000301ACDED008A69462846F9F7B0F884ED2C
:10D05000120A207D40F00200207503E084ED288A4A
:10D0600084ED298A207DC00782D0E06C12F054F94B
:10D0700041EC100B0DA053EC102BF8F783F8A06CCB
:10D0800012F04AF901B041EC100BBDEC028B53ECED
:10D09000102BBDE830400DA0F8F774B80000000078
:10D0A0000000A0400000C84100000C420D0A3E20D4
:10D0B00070726573732063616C6962726174656418
:10D0C0003A20252E31662E203E4E00000D0A3E20CD
:10D0D00074656D702063616C696272617465643A35
:10D0E00020252E31662E000038B590ED0E0AD0EDC9
:10D0F000140A04461A4930EE600AB0EEC00A10EE77
:10D10000100A884204DA04F15400F9F798F918B3C8
:10D1100094ED120ADFED130A9FED131A684630EE04
:10D12000200AD4ED0E0A00EEC10A9FED101AD4EDCC
:10D130000C0A20EE011A80EE810ADFED0D0A80EE66
:10D14000801A8DED001AF9F777FB84ED150AD4EDFE
:10D150000E0AC4ED140A38BD94ED150A38BD00005E
:10D160000000C84233938843F4FDD43B48A18F4369
:10D17000CDCC9C3F9FED0A0A82ED000A81ED000AAA
:10D18000037DDB0709D090ED130A81ED000A90EDD5
:10D19000120A012082ED000A70470020704700004B
:10D1A00000000000017D41F00101017580ED130ACE
:10D1B000C0ED120A7047000070B504462DED028BD9
:10D1C00090ED100AD0ED0F0A5B4930EE601AB0EE18
:10D1D000C11A11EE100A88420ADD9FED581A60EE5E
:10D1E000810A9FED571A40EE010AC4ED0F0A01E0D3
:10D1F00084ED0F0AA1692163E0696063227D002349
:10D2000022F00402227563754E4B984202DC4E4BAD
:10D21000984202D922F0100001E042F0100020757F
:10D220004A4808444A498842207D02D320F0080039
:10D2300001E040F008002075C0B2C10774D081073A
:10D2400072D5010770D5C0066ED504F14C000546B5
:10D25000F9F7F5F818B194ED0C0A84ED130A04F10E
:10D260003002294620460CF077FBB0EE408A18EEDB
:10D27000100A0DF029FAE8B918EE100A0DF00DFAAF
:10D28000C0B994ED0F0A30EE080A84ED0E0A84ED61
:10D29000080A10EE100A0DF017FA18B9A06B0DF07D
:10D2A000FCF918B1207D20F0040002E0207D40F060
:10D2B00004002075207D400736D5A06894ED0E0A45
:10D2C000816804F15800054610F00AFF284610F066
:10D2D00045FEDFED200A204620EE200A84ED110AEB
:10D2E000FFF702FF84ED150A606C0DF0EDF918B937
:10D2F000606C0DF0D2F908B1002504E094ED110A3C
:10D30000012584ED090A606D0DF0DEF918B9606D34
:10D310000DF0C3F908B1002004E094ED150A0120D6
:10D3200084ED0A0A05406575617D2069BDEC028BBC
:10D33000BDE8704011F080BB0AD7233C3333733F04
:10D34000CDCC4C3D0000AA42000020C2000086BBAC
:10D350000160700300007A4410B50446808818B953
:10D360000E2106A0F5F724FFA068002805D1BDE82E
:10D3700010400F2101A0F5F71BBF10BD2E2E5C2E13
:10D380002E5C44657653747564696F5C416C676F9D
:10D39000726974686D735C53656E736F725C53650C
:10D3A0006E736F725F4261726F2E63707000000067
:10D3B00010B50446806890EC020A204684ED060A07
:10D3C000C4ED070AFFF7F8FE2046FFF75CFD204694
:10D3D000FFF778FDA06804F120010822BDE81040A5
:10D3E000303011F065BA000030B504462DED028BE7
:10D3F00089B090F85000C0077ED1524D286818B906
:10D400002B2151A0F5F7D4FE686918B92C214EA044
:10D41000F5F7CEFEA86818B92D214BA0F5F7C8FE88
:10D4200094F8500081079FED538A0BD584ED1D8A37
:10D4300084ED1C8A84ED1B8A84ED1E8A20F0020094
:10D4400084F85000400709D50021204600F0AEF9CD
:10D4500094F8500020F0040084F8500094F8500034
:10D46000810704D4410702D440F0010001E020F01C
:10D47000010084F8500000F001023F480023012120
:10D480000068F9F737FC94F85000C00755D02868B9
:10D4900018B948212CA0F5F78BFE286804F58C718B
:10D4A0001C3090EC030A68468DEC030A11F09FFDD6
:10D4B00004F1FC0003AA80EC030A04F13801286897
:10D4C000543090EC030A03A882EC030A11F08FFD9C
:10D4D00004F5847204F12C0104F1240082EC030AA7
:10D4E00009F0E9F838B194ED0B0ADFED240A80EE7B
:10D4F000201A84ED0B1A00E01FE094ED0B0A04F5EE
:10D50000847011F04EFD06AA06A904F1CC0082EC4D
:10D51000030A0CF0CAFF84ED568A84ED558A84ED27
:10D52000548A04F17C01002081EC030AC4F85C01F8
:10D5300084ED588A204600F0C7FB09B0BDEC028B91
:10D5400030BD0000049400202E2E5C2E2E5C44651D
:10D550007653747564696F5C416C676F7269746847
:10D560006D735C41747469436F72655F4563662EC9
:10D570006370700000000000DC1F002000007A448F
:10D58000F0B504462DED028B89B09FED808A804E68
:10D590008DED008A07213068F9F774FB0100DFED9B
:10D5A0007D8A7D4F04F1CC0504F13000694666D0D8
:10D5B00009F081F8002847D09DED000A04AA04A9CB
:10D5C000C0EE280ACDED000A38688C3090EC030AD2
:10D5D000284682EC030A0CF02EFF84ED2A0A04F19F
:10D5E000A800C4ED2B0A054611F0D4FBD5ED000AC6
:10D5F000284680EE801A85ED001AD5ED010A80EEEE
:10D60000801A85ED011A11F0C5FB10EE100AB0F179
:10D61000505F13DBD4F8A8000DF03FF870B9D4F8D0
:10D62000AC000DF03AF848B9D4F8A8000DF04CF869
:10D6300020B9D4F8AC000DF047F848B19FED570A77
:10D6400004F1600010F089FE09B0BDEC028BF0BD62
:10D6500094ED490A0DF0D8FA84ED280A94ED490AB0
:10D660000EF0E6F884ED290AD4ED2A0A94ED281A82
:10D6700020EE800AD4ED2B0A00EEC10A33E009F057
:10D680001AF80028E0D09DED000AC0EE280ACDED82
:10D69000000A786990ED310A04A88DED010AD4EDF5
:10D6A0003E0A30EE600A8DED040AF8F70BFF0EF02B
:10D6B000BFF83B490098884206DCF0EEC00A10EE45
:10D6C000900A384988420EDB04F1F40201AB111FC5
:10D6D00028460BF025FAB0EE480A84ED1A0A84EDCC
:10D6E000190A84ED180AD4ED3B0A02208DF81C00BB
:10D6F00020EE808A07A9204600F004FC60EE088A2C
:10D70000204600F065FC306868EE808A1E21801C8F
:10D71000FAF7E4FF28EE800A84ED1A0A0098B0F1C7
:10D72000804F91DA204894ED450AD0ED000AB4EE1E
:10D73000E00AF1EE10FA87D230682021801CFAF757
:10D74000CDFFDDED000A1F2120EE200A8DED010A3C
:10D750003068801CFAF7C2FF20EE080ADDED000AEF
:10D7600001AA04A920EE200A02A88DED020A9DED6F
:10D77000010AB1EE400A8DED040AF7F7BEFCD4EDC4
:10D780001D0A30EE200A84ED1D0A5DE7000000004E
:10D79000DC1F002000007A4404940020EC51783F04
:10D7A000000020411904863F08200020F0B59FEDBD
:10D7B000280A87B080ED170A80ED160A80ED150A59
:10D7C00080ED1A0A80ED190A044680ED180A00F16E
:10D7D000F00600F1CC0519B1304611F03CFB18B150
:10D7E0001C4F386828B108E0314628460BF034F960
:10D7F00026E0A12118A0F5F7DBFC39680846543172
:10D800008C3091EC030A03A98DEC030A90EC030A17
:10D81000684681EC030A11F004FB03A88DEC030AAF
:10D8200011F0FFFA03A98C4604F592736A46284664
:10D830008CEC030A0BF0DCF9314628460CF01AFE9A
:10D8400007B0294604F1BC00BDE8F040FBF760BC1E
:10D8500000000000049400202E2E5C2E2E5C4465F7
:10D860007653747564696F5C416C676F7269746834
:10D870006D735C41747469436F72655F4563662EB6
:10D880006370700070B50446CC3005460BF082FA28
:10D89000B8B9D4F8E400B0F17E5F02DA10F1814F3C
:10D8A00015D328460BF088FA28460BF073FA40B9D6
:10D8B00094ED390A0649B0EEC00A10EE100A88420B
:10D8C00005DD2046BDE870400121FFF76FBF70BD48
:10D8D00000002041F0B5424D0446D0F85C112868A4
:10D8E00095B061B99FED3F0A84ED560A84ED550A63
:10D8F00084ED540A016EC4F85C1184ED580A1C30A2
:10D9000007AA90EC030A04F58C7107A882EC030ABD
:10D9100011F06DFB04F1FC000146064681EC030AA0
:10D9200011F0AAFA84ED450A04F15401304611F0D1
:10D930005EFB0DAA04F160010DA882EC030A11F050
:10D9400056FB0AA90AA881EC030A94ED0B0A11F010
:10D9500028FB10AA04F1BC0010A9074682EC030AB8
:10D96000FBF784FB3846FBF7BEFC04F1CC010E4606
:10D9700038460BF078FF04F1F00130460CF07AFDE8
:10D98000286801AA543004F1380190EC030A01A878
:10D9900082EC030A11F02BFB04F58471084681EC3C
:10D9A000030A94ED0B0A11F0FCFA04AA04A930460C
:10D9B00082EC030A0CF079FD04F17C010A4604F5BF
:10D9C000A87082EC030A10F0DBFC94ED580AD4ED49
:10D9D0000B0A30EE200A84ED580A15B0F0BD0000A5
:10D9E00004940020000000002DE9F04304462DEDD2
:10D9F000028B00F5B07590ED580AAB4910EE100A95
:10DA00008BB088427EDBB5EEC00AF1EE10FA79D910
:10DA100010EE100A0026C4F85C61B0F17C5F7EDC79
:10DA2000DFF88882D4ED131AD8F80800383090EC6B
:10DA3000030A04A831EE611AD4ED121A70EEE10A5D
:10DA4000D4ED111A30EE610A10F070FC90EC030A6C
:10DA500004F194000146074681EC030A11F00CFA28
:10DA6000D7ED000A384680EE801A87ED001AD7ED10
:10DA7000010A80EE801A87ED011AD7ED020A80EEC6
:10DA8000801A87ED021A11F0D5F9002847D13846DF
:10DA900011F0E1F9002842D194ED253A94ED232AC2
:10DAA00094ED260AD4ED220A23EE021AD4ED271AA9
:10DAB000D4ED242A04A800EE601A61EEA00A20EE3C
:10DAC000220A43EE620A01EEC20A10F02FFC90EC2B
:10DAD000030A04F1B000764F072180EC030A38688E
:10DAE000F9F7D0F89FED738A08B184ED2E8A04F11E
:10DAF000B001894604F1CC000CF06CFC484604F1FE
:10DB0000B00100E00BE081EC030A11F093F918B9C1
:10DB1000484611F0A0F938B12046FFF7B3FE0BB02C
:10DB2000BDEC028BBDE8F0838DF80C6003A92046A4
:10DB300000F0E8F9D4ED2C0A38681B2160EE208A49
:10DB4000801CFAF7CBFD28EE800A012003A984EDA2
:10DB5000150A8DF80C00204600F0D4F9D4ED2D0AFA
:10DB600038681C2160EE208A801CFAF7B7FD28EE89
:10DB7000800A022003A984ED160A8DF80C002046C5
:10DB800000F0C0F9D4ED2E0A38681B2160EE208A1F
:10DB9000801CFAF7A3FD28EE800A474984ED170A96
:10DBA000D8F80800C06988420EDB94ED3D0A43496D
:10DBB000B0EEC00A10EE100A884205DAB6EE000A8E
:10DBC00004F1540010F0C9FB3D4894ED450A04F1FE
:10DBD0006C06D0ED000AB4EEE00AF1EE10FA1DD2A8
:10DBE00038681D21801CFAF779FD484611F0D9F9F3
:10DBF00007A880EC030A95ED000A11F0D2F904AAF7
:10DC000004A9304682EC030A10F0BAFB94ED1E0A18
:10DC1000D5ED000A30EE200A84ED1E0A2949A06FD6
:10DC20008842FFF67CAF38682021801CFAF756FD49
:10DC3000D4ED1E0A6A4602A920EE200A30468DED78
:10DC4000000AB1EE400A8DED020AF7F756FA84EDAC
:10DC50001B0A9DED000A6A4602A9B1EE400A8DED4D
:10DC6000020A04F17000F7F748FA84ED1C0A9DEDF2
:10DC7000000A6A4602A9B1EE400A8DED020A04F1DB
:10DC80007400F7F73AFA84ED1D0A314604F58C70FA
:10DC900010F076FB84ED1D8A84ED1C8A84ED1B8ACE
:10DCA00084ED1E8A3BE70000CDCC4C3E049400205E
:10DCB000DC1F0020000000000000E040A60A063F34
:10DCC000082000200000A040F0B55A4D89B004465D
:10DCD000AE6800F1CC012422684606F58476F2F79E
:10DCE000CFFC96F83000000733D124226946304635
:10DCF000F2F7C6FC504802684FF47A70002A10D040
:10DD00004E494F4B0968A1F1010101FB03F1B1FB41
:10DD1000F0F1536AB3FBF0F3194405D14FF0000062
:10DD200007E04FF00001F8E7526AB2FBF0F300FBA6
:10DD30001320736A328DA1EB0303A0EB020203EB05
:10DD4000430712B2C7EBC31302EBC302F262716264
:10DD50003085A86894ED3C0A00F1540010F0E8FE0C
:10DD6000A86894ED3D0A683010F0E2FEA86894EDD2
:10DD70003E0A7C3010F0DCFE94ED3C0A0DF058FDBC
:10DD8000A8680821903010F0EAFE94ED3C0A0CF0EF
:10DD90003BFFA8680821CC3010F0E1FE94ED3D0A6D
:10DDA0000DF046FDA8680821A43010F0D8FE94EDCF
:10DDB0003D0A0CF029FFA8680821E03010F0CFFEE2
:10DDC00094ED3E0A0DF034FDA8680821B83010F03B
:10DDD000C6FE94ED3E0A0CF017FFA8680821F43047
:10DDE00010F0BDFEFC34A86894EC030AFC3C10F073
:10DDF000ABFC04F58474A86894EC030A1C30A4F509
:10DE0000847410F0A1FC04F12C00F8F718FB20B189
:10DE10004FF49C710BA0F5F7CBF994ED0B0A04F1CC
:10DE20007C0011F031F8A86809B03830BDE8F04046
:10DE300010F08ABC04940020E41F00205C1F002026
:10DE40000046C3232E2E5C2E2E5C446576537475DB
:10DE500064696F5C416C676F726974686D735C4173
:10DE6000747469436F72655F4563662E63707000FA
:10DE7000DFED200A70B580EE201A044680ED0B1A03
:10DE800000F068F81C4D03212868F8F7FBFE002815
:10DE90001AD002212868F8F7F5FE002814D094F86B
:10DEA0005000C00711D01549E06A884213DD0020F8
:10DEB0009FED130A84ED560A84ED550A84ED540A49
:10DEC000C4F85C0184ED580A70BD20688168204662
:10DED000BDE8704008472046FFF7FCFC2046FFF7EE
:10DEE000F3FE2046FFF74CFB2046BDE87040FFF7ED
:10DEF0007BBD000000007A44DC1F0020CDCC4C3EEE
:10DF0000000000000978FC30032901D3083001E04B
:10DF100000EB81000C4990ED000AF0EEC00A10EE13
:10DF2000900A884202DAB7EE000A704710EE900AB3
:10DF30000649884202DDB2EE040A70479FED041ADA
:10DF400080EE810A70470000A5665F3F27A00B4165
:10DF5000A5665F3F3EB504461A48194D0068F8F7BC
:10DF60007DFC012827D96A69174D283207CA8DE838
:10DF7000070094F85000010709D5694604F5A2701E
:10DF8000F6F75EF910EE100AA84204DC3EBD40F040
:10DF9000080084F8500004F594716846F5F7C0FD58
:10DFA0009DE8070004F5A27484E8070014ED040A54
:10DFB00004ED080A3EBD9FED050A84ED490A3EBD09
:10DFC00004940020DC1F002000007A4400000000C0
:10DFD0000EB50E4801A98068383090EC030A6846F7
:10DFE0008DEC030AF8F7BEF910EE100AB0F1814F7C
:10DFF00008DCF1EE020A30EEC00ADFED050A20EE81
:10E00000200A0EBD9FED030A0EBD000004940020FF
:10E01000CDCC4C3ECDCCCC3D70B547492DED028BDF
:10E0200002C009F0E7FB00F1200100250D709FED13
:10E03000438A0C3180ED098A80ED0A8A0D7080EDEB
:10E040000C8A343010F076F90C3010F073F910307F
:10E0500010F070F90C3010F06DF90C3010F06AF916
:10E0600080ED038A103010F065F9BFEE001AF0EE73
:10E07000480AB0EE480A0C3010F058F90C3010F095
:10E0800059F980ED038A80ED048A80ED058A80EDE0
:10E09000068A1C3010F04EF9B7EE000A80ED030A34
:10E0A00080ED068A80ED058A80ED048A1C3010F030
:10E0B00041F90C3010F03EF90C3010F03BF90C3007
:10E0C00010F038F90C3010F035F90C3010F032F94E
:10E0D000103010F02FF980ED038AC56205634563A7
:10E0E000383010F027F9143009F084FBA0F5B27431
:10E0F00000F8205F4FF4FA7180ED018A94F8500027
:10E1000020F0090040F0060084F8500084ED568AA3
:10E1100084ED558A84ED548AC4F85C5184ED588AA4
:10E12000201D09F0EAFA142104F5B27009F0E5FAAD
:10E13000BDEC028B204670BD940102080000000077
:10E1400038B50C00054603D10B2106A0F5F730F8D1
:10E1500001202C600023009021461A46281D0FF054
:10E160009DFB38BD2E2E5C2E2E5C44657653747557
:10E1700064696F5C4672616D655C436F72655C4695
:10E180006C61736853746F726167652E63707000A1
:10E1900070B514000D46064603D11E2107A0F5F701
:10E1A00007F80B2D03D31F2104A0F5F701F8224631
:10E1B0002946301DBDE870400FF0ACBB2E2E5C2E02
:10E1C0002E5C44657653747564696F5C4672616D4C
:10E1D000655C436F72655C466C61736853746F7203
:10E1E0006167652E6370700070B514000D460646B9
:10E1F00003D1282107A0F4F7DBFF0B2D03D329213E
:10E2000004A0F4F7D5FF22462946301DBDE8704032
:10E210000FF0DABB2E2E5C2E2E5C4465765374759F
:10E2200064696F5C4672616D655C436F72655C46E4
:10E230006C61736853746F726167652E63707000F0
:10E2400009F0D4BE10B5044690F86803012816D131
:10E250000B480068C06B0168496B884750B10020CB
:10E2600084F8680304220121BDE8104005A3084694
:10E27000F8F73ABABDE8104006A0F6F783BF10BD24
:10E2800018000020457261736520636F6D706C65C6
:10E29000746521003D00000030B50C460878AC499B
:10E2A0009FB00A280D6805F2346560D00B287CD039
:10E2B0000C285AD13A22A11D10A8F2F79CF9D4F8E3
:10E2C0000200694600EE100ABCEEC00A8DED000A9D
:10E2D0001098019011980290129803909DF84C00AC
:10E2E0008DF838009DF84D008DF83900BDF84E00CE
:10E2F000ADF81000BDF85000ADF81200BDF85200A6
:10E30000ADF81400BDF85400ADF81600BDF8560085
:10E31000ADF81800BDF85800ADF81A00BDF85A0065
:10E32000ADF81C00BDF85C00ADF81E00BDF85E0045
:10E33000ADF82000BDF86000ADF82200BDF8730014
:10E34000ADF83400BDF87800ADF836009DF87500E2
:10E350008DF83B009DF876008DF83C009DF8770025
:10E360008DF83D002846FEF74EFA1FB030BD3A2228
:10E37000A11D10A8F2F73FF9D4F8020000EE100A30
:10E38000BCEEC00A8DED000ABDF84000ADF81800E3
:10E39000BDF84200ADF81A00BDF84400ADF81C000D
:10E3A000BDF84600ADF81E0000E05BE0BDF8480097
:10E3B000ADF82000BDF84A00ADF82200BDF84C00D1
:10E3C000ADF82400BDF84E00ADF82600BDF85000B1
:10E3D000ADF82800BDF85200ADF82A00BDF8540091
:10E3E000ADF82C00BDF85600ADF82E00BDF8580071
:10E3F000ADF83000DDF85A000190BDF85E00ADF8D0
:10E400003200BDF86000ADF834009DF863008DF86F
:10E4100039009DF862008DF838009DF864008DF891
:10E420003A009DF865008DF83B00DDF8660002902B
:10E43000DDF86A0003909DF86E008DF83C009DF8B1
:10E440006F008DF83D00BDF87000ADF83600DDF8C6
:10E4500072000490DDF87600059069462846FEF7C4
:10E460002CFB82E73A22A11D10A8F2F7C4F8D4F8D9
:10E470000200694600EE100ABCEEC00A8DED000AEB
:10E48000BDF84000ADF80400BDF84200ADF806004C
:10E49000BDF84400ADF80800BDF84600ADF80A002C
:10E4A000BDF84800ADF80C00BDF84A00ADF80E000C
:10E4B000BDF84C00ADF81000BDF84E00ADF81200EC
:10E4C000BDF85000ADF81400BDF85200ADF81600CC
:10E4D000BDF85400ADF81800BDF85600ADF81A00AC
:10E4E000BDF85800ADF81C00BDF85A00ADF81E008C
:10E4F0009DF85C008DF83C00BDF85D00ADF8200093
:10E50000BDF85F00ADF82200BDF86100ADF8240051
:10E510009DF863008DF83D00BDF86400ADF826005D
:10E52000BDF86600ADF82800BDF86800ADF82A0017
:10E53000BDF86A00ADF82C00BDF86C00ADF82E00F7
:10E54000BDF86E00ADF830002846FEF709FB0CE779
:10E55000DC1F00202DE9F041AAB000240546264624
:10E56000159416941794402119A81894F2F7E4F81A
:10E57000402105A8F2F7E0F805A9284600F06CF95B
:10E58000002862D033494020CDE9000183009DF886
:10E59000141001223048F6F7F5FD9DF814202FA144
:10E5A00019A8F7F7FDFE324F042219A9386800F2C6
:10E5B0003460FEF7C4F80DF1140804EB840108EB95
:10E5C000410515961696179618966878410738D023
:10E5D00000F00700012836D026A228A115A8F7F7D9
:10E5E000DFFE402119A8F2F7A7F8A878D5F80710A0
:10E5F000D5F803206D7800F03F03ED08C0F38010DC
:10E60000CDE90232CDE90005049115AB22461CA1EB
:10E6100019A8F7F7C5FE19A922A0F6F7B3FD9DF8D2
:10E620001400A04206D13868012219A900F2346012
:10E63000FEF785F8641CE4B2062CBED32AB0BDE810
:10E64000F0811AA2C9E71CA2C7E71DA0F6F79AFD40
:10E65000F4E70000FCFF03007006020843757272C5
:10E6600020666C69676874206E756D3A25640000D9
:10E67000DC1F0020556E6B6E6F776E0025730000F7
:10E680004C6F672025642D257320523A25643A206B
:10E69000253032643A253032642825642D256429DA
:10E6A000000000000D0A20202573000046697865EF
:10E6B0006457696E67000000436F707465720000F4
:10E6C0000D0A3E20496E69743A204C6F67206865D8
:10E6D000616420696E666F206572726F722E000031
:10E6E00070B50D460446062904D340F22E3110A021
:10E6F000F4F75EFD84F826520020C4F82C02294667
:10E7000004F50572204609F09FF9D4F81602C4F802
:10E710002802204609F00AFDD4F81A3294F826128D
:10E72000D4F82822BDE870400BA0F6F72BBD0000FE
:10E730002E2E5C2E2E5C44657653747564696F5C76
:10E740004672616D655C4C6F674F7065726174698C
:10E750006F6E2E63707000000D0A3E20537461725C
:10E760007420656E756D2C466C6967687425642C21
:10E7700066726F6D20256420746F20256400000090
:10E7800030B5054690F8250291B0032804D04FF427
:10E7900017711EA0F4F70CFD0024402101A8F1F729
:10E7A000CBFF01A9284601F09DF8012810D00228CE
:10E7B00017D020B140F27A2114A0F4F7F9FC9DF8AB
:10E7C00004000A2802D1641C022CE6DB11B030BD23
:10E7D000DDF8060001A900EE100A284600F05CF9F9
:10E7E000EDE7284609F09EFC002085F82502114837
:10E7F0004421006807F0F6FCD5F82C0201210090B6
:10E800000DA304220846F7F76FFFD8E72E2E5C2EE3
:10E810002E5C44657653747564696F5C4672616DF5
:10E82000655C4C6F674F7065726174696F6E2E63C3
:10E8300070700000200000200D0A3E202564206C2E
:10E840006F67732073696D756C61746520636F6D9C
:10E85000706C6574652E000009F052BC09F042B975
:10E8600090F82502704730B585B00D4604466A46DB
:10E8700009F0EAF894F8250210B1002005B030BD87
:10E88000032084F8250229462046FFF729FF0120AE
:10E89000F4E710B590F8253200222BB9022280F857
:10E8A0002522FFF71DFF0122104610BD10B50446BA
:10E8B00090F82502012804D04FF4B0715FA0F4F75E
:10E8C00077FC6848026802F264400BC8C4F8E4327E
:10E8D000C4E9BA1040F23C40805C84F8F0024FF486
:10E8E0008A60805C84F8F10202F29C40D0ED000A5C
:10E8F0009FED5D0A60EE800AFCEEE00A10EE900AE1
:10E90000A4F8F20202F59660D0ED000A60EE800AEB
:10E91000FCEEE00A10EE900AA4F8F40202F59B6007
:10E92000D0ED000ADFED511A04F5397160EEA10A4D
:10E93000FCEEE00A10EE900AA4F8F60202F2EC40B7
:10E94000D0ED000A60EE800AFCEEE00A10EE900ABC
:10E95000A4F8F80202F2C440D0ED000A60EE800A8A
:10E96000FDEEE00A10EE900AA4F8FA0202F59060BB
:10E9700090ED002A90ED011AD0ED020A22EE002A55
:10E9800021EE001A60EE800ABDEEC22ABDEEC11A69
:10E99000FDEEE00A12EE100AA4F8FC0211EE100AD5
:10E9A000A4F8FE0210EE900AA4F8000302F5A0609D
:10E9B00002F20462D0ED000A20EE800ABCEEC00A2A
:10E9C00010EE100AA4F8020392ED000A3A2220EE9B
:10E9D000210ABCEEC00A10EE100AA4F8040304F5E4
:10E9E000ED70F1F708FE204609F03AFB84F8D501F6
:10E9F0000C2084F8D401F4F7B1FFD4EDD90A04F562
:10EA0000EA71F8EE600A30EE600A10EE100AC4F8FF
:10EA1000D601204609F094F9012808D1012114A358
:10EA200003220846F7F760FE204600F023FF204649
:10EA3000BDE81040002109F065B900002E2E5C2EC3
:10EA40002E5C44657653747564696F5C4672616DC3
:10EA5000655C4C6F674F7065726174696F6E2E6391
:10EA600070700000340000200000C84200007A44AA
:10EA70004E6F20737061636520666F72206C6F67E4
:10EA80002077726974652C206C6F672073746F70C7
:10EA90002E00000009F0E4BA2DE9F04F04462DEDF8
:10EAA000028B9DB0FF48F0EE408A0D46006806F0EC
:10EAB000E1FD00287ED004A80FF03CFC2878DFF8A8
:10EAC000E8934FF000080D2875D0DFF8E0B39FED14
:10EAD000F88ADFF8E0A34FF47A760A286CD00C2885
:10EAE00068D104F539703A210746F1F725FE3A223C
:10EAF000A91D3846F1F77FFDCDF82C80CDF8308088
:10EB0000D4F8E4020C90D4F8E8020B90D4F8EC02AC
:10EB10000A90D9F80000474605220AA94D4600F29E
:10EB2000644004F539740FF043FF2868217B052207
:10EB300000F23C4010F080F82868617B052200F567
:10EB40008A6010F079F8E089052100EE100A286843
:10EB5000F8EE400A00F29C4080EE880A0FF0FFFFBA
:10EB6000208A052100EE100A2868F8EE400A00F518
:10EB7000966080EE880A0FF0F2FF608A00EE100ABD
:10EB8000F8EE400ADFEDCC8A2868052180EEA80A5D
:10EB900000F59B600FF0E3FFA08A052100EE100A4C
:10EBA0002868F8EE400A00F2EC4080EE880A0FF088
:10EBB000D6FF02E002E140E00CE1B4F916000521C5
:10EBC00000EE100A2868F8EEC00A00F2C44080EE99
:10EBD000880A0FF0C4FF07A80FF0ACFBB4F91800C7
:10EBE00000EE100AB8EEC00AC0EE080ACDED070A22
:10EBF000B4F91A0000EE100AB8EEC00AC0EE080A16
:10EC0000CDED080AB4F91C00A4F5397400EE100A21
:10EC1000B8EEC00AC0EE080ACDED090A286810EE69
:10EC200090CA90F89814DDE9072300F5906011F080
:10EC30000F0101D005297CD1F7E13C2107A8F1F7AC
:10EC40007BFD3A22A91D07A8F1F7D5FC099810F021
:10EC500063FB06460F46089810F05EFB04460D461F
:10EC6000079810F059FB8DE8F00041EC100B93A0D1
:10EC700053EC102BF6F786FAA04C9DED070A20689E
:10EC800040680168496988472068DDED090A9DED03
:10EC9000080A00680168C969884716A80FF04AFB8E
:10ECA0009DED0A0A16AA8DED160A9DED0B0A8DED53
:10ECB000170A9DED0C0A8DED180A2068D0F89C0704
:10ECC00001684B6902219847189810F025FB064609
:10ECD0000F46179810F020FB04460D46169810F0CA
:10ECE0001BFB8DE8F00041EC100B85A053EC102BC2
:10ECF000F6F748FA9DED0D0AB8EEC00A9FED888A36
:10ED0000D9F800004C4620EE080A00F5AF600FF07D
:10ED10000FFF9DED0E0A2068B8EEC00A00F28C507D
:10ED200020EE080A0FF004FF9DED0F0AB8EEC00AAE
:10ED300000E099E1DFED7B0A206820EE200A00F573
:10ED4000AA600FF0F5FE20689DED100A00F26450F5
:10ED50000FF0EEFECDF86480CDF86880CDF86C80C1
:10ED6000CDF87080206819AA00F5AF6100F5AA609F
:10ED700091ED000A14318DED190A91ED000A002180
:10ED80008DED1A0AADF86C8090ED000ABCEEC00A59
:10ED900010EE100AADF86E006348006800F5C1601F
:10EDA0000AF020FD78B10DAB93E807008DE807006D
:10EDB00001215EA305220846F7F796FC1DB0BDECC5
:10EDC000028BBDE8F08F01215EA303220846F7F70E
:10EDD0008BFCF3E704F51C703A210746F1F7ACFC15
:10EDE0003A22A91D3846F1F706FCB4F970024D46E7
:10EDF00000EE100AF8EEC00A80EE880A8DED040AD3
:10EE0000B4F9720200EE900AB8EEE01AC1EE080AF8
:10EE1000CDED050AB4F9740204F51C7401EE100A74
:10EE2000F8EEC11A81EE881AF0EE681A8DED061A16
:10EE3000D9F8000000F580700FF0C6FCB4F90600A8
:10EE400000EE100AF8EEC00A80EE880A8DED040A82
:10EE5000B4F9080000EE900AB8EEE01AC1EE080A14
:10EE6000CDED050AB4F90A0001EE100AF8EEC11A58
:10EE700081EE881AF0EE681A8DED061A2868C830FF
:10EE80000FF0A2FCB4F90C00B2EE048A00EE100AF6
:10EE9000F8EEC00A80EE880A8DED040AB4F90E007F
:10EEA0005CE0000020000020340000205C1F0020F7
:10EEB0000000C842E41F002000007A440D0A3E20F2
:10EEC00048696C3A2041746D732063616C692073EA
:10EED00065742C204469666650726573733A252EFA
:10EEE00031662041627350726573733A252E316624
:10EEF0002C2054656D703A252E3166002C000020C0
:10EF00000D0A3E204779726F206F66667365743A0A
:10EF100020252E33662C252E33662C252E336600B5
:10EF200095BFD6336F12833ADC1F002048696C20EE
:10EF300073657420686F6D6528256420256420251D
:10EF40006429000048696C2073657420686F6D65E2
:10EF5000206661696C65642E0000000000EE900A76
:10EF6000B8EEE01AC1EE080ACDED050AB4F91000BA
:10EF700001EE100AF8EEC11A81EE881AF0EE681A56
:10EF80008DED061A286800F5AA700FF01DFCB4F983
:10EF90001E00D4F81A1000EE100A2868A4F51C749C
:10EFA000F8EEC00A90F8A02200F52370120780EE58
:10EFB000880A2ED1016080ED010ADAF80020002ACB
:10EFC00010D0DBF80010384BA1F1010101FB03F177
:10EFD000B1FBF6F1536AB3FBF6F3194404D14FF0D9
:10EFE000000206E04146F9E7526AB2FBF6F306FB7F
:10EFF000132286688389A1EB0606A2EB030306EBC6
:10F0000046071BB2C7EBC61603EBC603036181605C
:10F010008281B4F9900200EE100A2868F8EEC00A66
:10F0200000F5B96080EE880A37E039464FF00507F1
:10F03000078380E80C10DAF80030002B30D05A6AD1
:10F04000B2FBF6F706FB17220CD0DBF80010164FC8
:10F05000A1F1010101FB07F1B1FBF6F15B6AB3FB22
:10F06000F6F319440FF052FBB4F80203052100EE49
:10F07000100A2868F8EE400A00F5A06080EE880AC1
:10F080000FF06DFDB4F8040300EE100A2868F8EEE6
:10F09000400A00F2046080EEA80A0FF049FD8DE6F8
:10F0A0004FF00002D0E700000046C32330B591B016
:10F0B0000C46054606290CD2694609F021F88DF860
:10F0C00000406946284609F0BDF82146284608F068
:10F0D000CAFF11B030BD00002DE9F041044690F8A0
:10F0E000250286B0012804D040F2A5114BA0F4F708
:10F0F0005FF8544D2868406801688969884710EEB8
:10F10000100A05AAC4F81E032868006801688B6904
:10F1100004A9984728B10498C4F822030598C4F8B4
:10F12000260328680022D0F89C0701684B69032158
:10F13000984707C8C4F82A034348C4F82E13C4F8F4
:10F140003223006800F5AF61D1ED000A9FED3F0A60
:10F150003A2260EE800AFDEEE00A10EE901AC4F842
:10F16000361300F28C51D1ED000A20EE800ADFED5B
:10F17000380ABDEEC00A10EE101AC4F83A1300F5B2
:10F18000AA6191ED000A20EE200ABDEEC00A10EE41
:10F19000101AC4F83E13D0F86405C4F8420304F210
:10F1A0001E3104F5ED70F1F726FA204608F058FFFD
:10F1B00084F8D5010D2084F8D401F4F7CFFBD4ED09
:10F1C000D90AF8EE600A30EE600A10EE100AC4F8B0
:10F1D000D601D4F8260310F09FF807468846D4F8E5
:10F1E000220310F099F805460E46D4F81E0310F0DD
:10F1F00093F88DE8E00141EC100B16A053EC102BB6
:10F20000F5F7C0FF04F5EA71204608F099FD0021EA
:10F21000204608F077FD06B0BDE8F0812E2E5C2E6A
:10F220002E5C44657653747564696F5C4672616DDB
:10F23000655C4C6F674F7065726174696F6E2E63A9
:10F24000707000002C000020340000208096184BC5
:10F2500000007A440D0A3E20577269746520696E79
:10F26000697420696E666F3A20252E31662C252E32
:10F2700031662C252E316600F0B5064690F8250241
:10F2800091B0022804D04FF40D711DA0F3F790FF48
:10F29000002440F2532740216846F1F74DFA6946B1
:10F2A000304600F01FFB054601200CF003FF012D46
:10F2B0000CD0022D0FD0FDB1394611A0F3F778FF25
:10F2C000641CE4B2032CE6D311B0F0BD69463046AD
:10F2D000FEF7E2FFF4E7304608F024FF002086F84E
:10F2E000250211484321006806F07CFF0FA0D6F8E4
:10F2F0002C12F5F747FFE7E716A0F5F743FFDFE726
:10F300002E2E5C2E2E5C44657653747564696F5C9A
:10F310004672616D655C4C6F674F706572617469B0
:10F320006F6E2E6370700000200000200D0A3E20DA
:10F330004C6F6720646F776E20636F6D706C6574BF
:10F34000652E202564206C6F677320646F776E2EA6
:10F35000000000004C00000070B504462DED028B4B
:10F3600090F8250201287DD1464D286890EDCB0A02
:10F37000F7F70EF8B2EE048A20EE080ABDEEC00AD6
:10F3800010EE100AA4F8AA02286804F52A7490ED79
:10F39000D00AF6F7FDFF20EE080ABDEEC00A10EE17
:10F3A000100AA080286890EDD50AF6F7F1FF20EE4C
:10F3B000080ABDEEC00A10EE100AE080286800F5C9
:10F3C000367090EC030A04F1B00080EC030AF6F703
:10F3D000DFFF20EE080ABDEEC00A10EE100A208101
:10F3E00094ED2D0AF6F7D4FF20EE080ABDEEC00A10
:10F3F00010EE100A608194ED2E0AF6F7C9FF20EE98
:10F40000080A3A22BDEEC00A10EE100A24F80C0FCA
:10F41000A4F10A01A4F1DA00A4F52D74F1F7EBF8D8
:10F42000204608F01DFE84F8D5010B2084F8D40195
:10F43000F4F794FAD4EDD90A04F5EA71F8EE600A0B
:10F4400030EE600A10EE100AC4F8D601204608F02B
:10F4500077FC01280AD101210BA303220846F7F704
:10F4600043F900E00AE0204600F004FABDEC028B0C
:10F470002046BDE87040002108F044BCBDEC028B82
:10F4800070BD0000340000204E6F20737061636512
:10F4900020666F72206C6F672077726974652C200C
:10F4A0006C6F672073746F702E0000007CB504468B
:10F4B00090F8250201287CD18F4D04F5407229680F
:10F4C0000846D1ED401AD1ED410A91ED421AC4ED42
:10F4D000D61AC4EDD70A84EDD81A9FED880A61EEDA
:10F4E000801A60EE800AFDEEE11AFDEEE00A11EEF0
:10F4F000901AA4F8701210EE901A61EE000AA4F8A7
:10F500007212FDEEE00A10EE901AA4F87412D0ED1B
:10F51000720AD0ED731A90ED741AB0EEE02A12EE72
:10F52000103AC2ED160A7649C2ED171A82ED181A82
:10F530008B4207DD60EE800AFDEEE00A10EE903AA5
:10F54000A4F87032F0EEE10A10EE903A8B4207DD3B
:10F5500061EE800AFDEEE00A10EE903AA4F87232F5
:10F56000F0EEC10A10EE903A8B4207DD61EE000A20
:10F57000FDEEE00A10EE901AA4F87412D0ED321AE3
:10F5800090ED331AD0ED340AC4EDD61A61EE801A2C
:10F5900084EDD71A21EE001AC4EDD80AFDEEE11A67
:10F5A000BDEEC11A11EE901AA4F8761211EE101ADF
:10F5B00000E0A0E020EE800AA4F87812BDEEC00AB8
:10F5C00010EE101AB2EE040AA4F87A12D0ED550A21
:10F5D000D0ED561A90ED571AC2ED160A60EE800A69
:10F5E000C2ED171A82ED181A00F52372FDEEE00A3B
:10F5F00010EE901A61EE800AA4F87C12FDEEE00A8B
:10F6000010EE901A61EE000AA4F87E12FDEEE00AF8
:10F6100010EE901AA4F88012D0EDA40A1168C4F874
:10F620008A1260EE800A00F5B960FDEEE00A10EE85
:10F63000901AA4F88E12D0ED000A694620EE800AD6
:10F64000BDEEC00A10EE100AA4F890022D4804F591
:10F650001D74006805F0BEF90098C4F822000198F6
:10F66000C4F82600286841F244313A22415C84F80B
:10F670002A1041F25831415C84F82B104FF4EF61AD
:10F68000095AA18540F28C710958C4F82E10D0F89F
:10F69000680844F8320FA4F13601A4F1CC00A4F2BA
:10F6A000A624F0F7A8FF204608F0DAFC84F8D5017C
:10F6B0000A2084F8D401F4F751F9D4EDD90A04F5FD
:10F6C000EA71F8EE600A30EE600A10EE100AC4F833
:10F6D000D601204608F034FB012808D101210AA3F5
:10F6E00003220846F7F700F8204600F0C3F800218F
:10F6F000204608F007FB7CBD340000200000C84213
:10F700000AE89C41200000204E6F20737061636501
:10F7100020666F72206C6F672077726974652C2089
:10F720006C6F672073746F702E00000010B5044674
:10F730003A2100F51C70F0F7FFFF3A2104F2AA20ED
:10F74000F0F7D8FF3A2104F53970F0F7F5FF1121F1
:10F7500004F50570F0F7F0FF05480068C16B20461E
:10F7600008F088FCF6F7AAFFC4F8640310BD000097
:10F77000180000207CB5044690F8250200284FD0E0
:10F78000012809D002283BD0032844D0BDE87C40A2
:10F79000A72124A0F3F70CBD2046FFF787FE2046E3
:10F7A000FFF7DAFD04F50C7007F0ACFFE0B120467E
:10F7B000FFF77CF8254D204608F043F9281A64210C
:10F7C0004843B0FBF5F5D4F87C03401B05280BD368
:10F7D0001F4801211FA300680622CDE900500846FA
:10F7E000F6F782FFC4F87C5394F86903052817D212
:10F7F000401C84F869032046BDE87C40FFF76CBCE0
:10F8000004F5147007F07EFF002809D02046BDE8FB
:10F810007C40FFF731BD2046BDE87C40FEF7B0BF1D
:10F820007CBD00002E2E5C2E2E5C446576537475D4
:10F8300064696F5C4672616D655C4C6F674F7065A3
:10F84000726174696F6E2E6370700000FCFF0300BC
:10F850003C00002025642525204672656520666CE5
:10F86000617368207370616365207769746820250F
:10F870007300000010B586B0044608F08BFC2046EB
:10F8800008F0EEFB014601AA204608F0DDF820460C
:10F8900008F0E6FB0146DDF80A000090DDF80630CE
:10F8A00094F8252203A0F5F76DFC002084F82502CA
:10F8B00006B010BD0D0A3E2053746F70206C6F6748
:10F8C00020496E783A2564205479703A25642C20BA
:10F8D00066726F6D2072656320256420746F202529
:10F8E000642E00002DE9FF410F00044604D140F2D0
:10F8F000453126A0F3F75CFC01263A462046D4F8B1
:10F90000281208F01FF9D4F828526D1CC4F82852A8
:10F91000787894F82612884203D0002004B0BDE81D
:10F92000F081D4F82C02401CC821B0FBF1F201FB9D
:10F930001201C4F82C02F9B900EE100AD4F8210221
:10F94000F8EE400A00EE100AB8EE401A80EE810A86
:10F95000DFED180A20EE200A10EE100A0FF0DCFC92
:10F96000154A16A31268CDE90001CDE90252012122
:10F9700006220846F6F7B8FED4F82802D4F81A1280
:10F98000884200D302263046C8E700002E2E5C2EA7
:10F990002E5C44657653747564696F5C4672616D64
:10F9A000655C4C6F674F7065726174696F6E2E6332
:10F9B000707000000000C8423C000020456E756D6C
:10F9C000202525252E31662D25642D257300000068
:10F9D0007FB5044690F82502002829D184F86903F0
:10F9E000144D012084F82502286890F84C3690F8D0
:10F9F0003826204608F01EF8F6F760FEC4F86403C7
:10FA00000021204607F000FF286890F84C6690F827
:10FA10003856204608F024FB074908A30622096847
:10FA2000CDE90005CDE9026101210846F6F75CFE4B
:10FA30007FBD0000340000203C0000205374617240
:10FA400074206C6F672025642061742025643A253A
:10FA500064207769746820256400000010B50121D6
:10FA600080F8681308F0C2FA012108A304220846AE
:10FA7000F6F73AFE01200CF01DFB0F480068C06B42
:10FA80000168896ABDE8104008470000457261734B
:10FA90006520573235513132382E2E2E4974207759
:10FAA000696C6C206C61737420666F7220343073E3
:10FAB0000D0A2020000000001800002070B508F09A
:10FAC000D3FB00F50C7007F095FE203007F092FE96
:10FAD00000F584700EF02EFCA0F55674002500F899
:10FAE000145F9FED0F0A642180ED010A04F55D703B
:10FAF000057084EDDE0A84F8265284F8255204F558
:10FB00000C7007F0FAFD84F86853142104F51470A2
:10FB100007F0F3FD84F869532046C4F87C5370BDA8
:10FB20000000000008F0B3BBFEB5054600681646AD
:10FB30000F46002418B9412113A0F3F739FB1EB971
:10FB4000422111A0F3F734FB0022684629680CF02B
:10FB5000F7FADDE90001202806D098B1014615A08A
:10FB6000F5F710FB2046FEBD0C4611F8080B387067
:10FB700078223046F0F784FD214628680CF0DAFA46
:10FB80000224EFE70124EDE72E2E5C2E2E5C446567
:10FB90007653747564696F5C4672616D655C436F22
:10FBA00072655C4D73674D61696C51756575652E45
:10FBB000637070000D0A3E20434D73674D61696E9E
:10FBC00051756575652E506F702829206661696CC6
:10FBD00065643A30782558001FB509490446D1E9D3
:10FBE0000001CDE9000103A80290002168460CF055
:10FBF00073FA2060002800D0012004B010BD00007E
:10FC0000CCF501082DE9F0410546006817460E467F
:10FC100018B9212110A0F3F7CBFA002128680CF0C5
:10FC200055FA040012D026707822394604F10800F3
:10FC3000F0F726FD214628680CF0CAFA010009D029
:10FC400010A0F5F79FFA0020BDE8F08116A0F5F7A7
:10FC500099FAF8E70120F7E72E2E5C2E2E5C44651A
:10FC60007653747564696F5C4672616D655C436F51
:10FC700072655C4D73674D61696C51756575652E74
:10FC8000637070000D0A3E2020434D73674D61691B
:10FC90006E51756575652E507573682829206661EB
:10FCA000696C6564202564000D0A3E20434D73672E
:10FCB0004D61696E51756575652E5075736828299B
:10FCC000206661696C65642C204E6F206D656D0047
:10FCD000704700002DE9F0410E4604464021001D0A
:10FCE000F0F72AFD2068402518B9742106A0F3F723
:10FCF0005FFA20680223221D01684F692946B84730
:10FD0000A1883180BDE8F0812E2E5C2E2E5C4465EA
:10FD10007653747564696F5C4672616D655C436FA0
:10FD200072655C454570726F6D53746F7261676583
:10FD30002E637070000000002DE9F0410E4604466D
:10FD40004021001DF0F7F8FC2068802518B9CF216C
:10FD500009A0F3F72DFA20683D23221D01684F69A1
:10FD60002946B84705463D22211D3046F0F743FCA1
:10FD70002846BDE8F08100002E2E5C2E2E5C4465E6
:10FD80007653747564696F5C4672616D655C436F30
:10FD900072655C454570726F6D53746F7261676513
:10FDA0002E637070000000002DE9F04704464FF408
:10FDB0002B7000EB811087B247F6EC7091468742BA
:10FDC00003D38F2114A0F3F7F3F94021201DF0F79E
:10FDD000B3FC206818B992210FA0F3F7E9F9DFF816
:10FDE0006880002520681023221D01684E6939466D
:10FDF000B047060008D10B21D8F80000F6F720FE26
:10FE00006D1CEDB2032DEDD31022211D4846F0F7F5
:10FE1000F2FB3046BDE8F0872E2E5C2E2E5C44654A
:10FE20007653747564696F5C4672616D655C436F8F
:10FE300072655C454570726F6D53746F7261676572
:10FE40002E63707000000000DC1F002070B50D46AE
:10FE500004464021001DF0F76FFC2888A080206830
:10FE6000402518B9822106A0F3F7A2F920680223E1
:10FE7000221D0168CE692946B446BDE8704060473E
:10FE80002E2E5C2E2E5C44657653747564696F5C0F
:10FE90004672616D655C436F72655C454570726F5B
:10FEA0006D53746F726167652E637070000000009F
:10FEB00070B50D4604464021001DF0F73DFC3D2283
:10FEC0002946201DF0F797FB2068802518B9F321FB
:10FED00006A0F3F76DF920683D23221D0168CE6965
:10FEE0002946B446BDE87040604700002E2E5C2EC7
:10FEF0002E5C44657653747564696F5C4672616DFF
:10FF0000655C436F72655C454570726F6D53746FCD
:10FF1000726167652E637070000000002DE9F0418A
:10FF200004464FF42B7000EB811087B247F6EC705B
:10FF30001546874203D3AD2114A0F3F739F94021C8
:10FF4000201DF0F7F9FB10222946201DF0F753FB86
:10FF5000206818B9B2210DA0F3F72AF9DFF85C8008
:10FF6000002520681023221D0168CE693946B0475C
:10FF7000060008D10C21D8F80000F6F761FD6D1CD1
:10FF8000EDB2032DEDD33046BDE8F0812E2E5C2E70
:10FF90002E5C44657653747564696F5C4672616D5E
:10FFA000655C436F72655C454570726F6D53746F2D
:10FFB000726167652E63707000000000DC1F002016
:10FFC00070B50C00054603D1152102A0F3F7F0F837
:10FFD0002C6070BD2E2E5C2E2E5C4465765374759D
:10FFE00064696F5C4672616D655C436F72655C4508
:10FFF0004570726F6D53746F726167652E637070B8
:020000040801F1
:10000000000000002DE9F04704464808914601F041
:100010000101800101EB410202EBC10100F52070FA
:1000200000EB410087B247F6EA70874203D33B21D9
:1000300014A0F3F7BDF84021201DF0F77DFB2068E8
:1000400018B93E210FA0F3F7B3F8DFF86880002558
:1000500020681623221D01684E693946B047060004
:1000600008D10921D8F80000F6F7EAFC6D1CEDB2C2
:10007000032DEDD31622211D4846F0F7BCFA304679
:10008000BDE8F0872E2E5C2E2E5C44657653747589
:1000900064696F5C4672616D655C436F72655C4557
:1000A0004570726F6D53746F726167652E63707007
:1000B00000000000DC1F00202DE9F04104460A206A
:1000C00000EB5100154601F0010101EB41028001F6
:1000D00002EBC10100EB41001FFA80F84021201D16
:1000E000F0F72AFB16222946201DF0F784FA206833
:1000F00018B95B210DA0F3F75BF8184F00252068B5
:100100001623221D0168CE694146B04706000AD178
:100110000A213868F6F794FC11A0F5F733F86D1C46
:10012000EDB2032DEBD33046BDE8F0812E2E5C2ED0
:100130002E5C44657653747564696F5C4672616DBC
:10014000655C436F72655C454570726F6D53746F8B
:10015000726167652E63707000000000DC1F002074
:100160002300000070B50D460446F6F7A7FA60605C
:100170002078012803D10221204600F021F82046F2
:1001800009F08EFE002819D0B4F86807B0F5967F04
:1001900014D22946204600F05FF900280ED0B4F8AA
:1001A0006807294600EB400004EB4000463000F0B1
:1001B000F5F8B4F86807401CA4F8680770BD0000A3
:1001C00070B50D00044609D02078A84254D0062D01
:1001D00040D2DFE805F0030812333D43204600F02B
:1001E0004FF8002028E0204600F04AF80120207057
:1001F00002212046FFF7E4FF3EE001282AD1207EBD
:10020000012812D1F6F75AFAE168DFED1C0A401A0C
:1002100000EE100AB8EE400A20EE200AD4ED020AE1
:10022000B4EEE00AF1EE10FA14D314F1460012D045
:10023000204600F00BFA022020701DE0022809D1B0
:10024000204600F053F8204600F000FA0320F3E7C0
:10025000032801D0002070BD0420EDE70028FAD06B
:10026000207C40B101212046FFF7AAFF18B1207E73
:10027000401C207600E02570012070BD6F12833A8B
:1002800010B504462DED028B84B00020A4F8680759
:10029000A4F86A079FED130A9FED138A84ED070AFD
:1002A00084ED0A8A84ED098A84ED088AB7EE001A83
:1002B000F7EE000AB7EE000A68460EF037F807C8F6
:1002C00004F12C0383E8070084ED108A84ED0F8A83
:1002D00084ED0E8A204600F0B9F904B0BDEC028B23
:1002E00010BD000000004843000000007CB504463B
:1002F00010F1460F50D00020A4F86A07B4F8680740
:10030000401E85B21FE000BFF3F7C0FF691CB0FBC1
:10031000F1F201FB120105EB450004EB400201EB99
:10032000410152F8460F0090908804EB4101ADF86E
:10033000040051F8463F13608B889380009A0A604E
:100340006D1E8880ADB2002DDED121E005EB4500A9
:1003500004EB400606F14601204600F0EFF8A8B98C
:10036000B4F8680700EB400004EB4000016C46F86D
:10037000461FB0F84400B080B4F86807401EA4F8E7
:100380006807B4F86A07401CA4F86A076D1CADB290
:10039000B4F86807A842D9D87CBD000030B505463E
:1003A0002DED048BB2EE008A85B091ED000A0C466B
:1003B00001A820EE080A8DED010AF3F79FFB9FEDDF
:1003C000249A8DED000ADFED238A8DED029ACDEDA2
:1003D000038A03AA02A96846F4F78FFEBDEEC00A9D
:1003E00010EE100A288094ED010A02A820EE080AF7
:1003F0008DED020AF3F782FB8DED030A8DED019A74
:10040000CDED008A6A4601A903A8F4F776FEBDEE99
:10041000C00A10EE100A688094ED020A02A820EECD
:10042000080A8DED020AF3F769FB8DED030A6A46AF
:1004300001A903A8CDEC028AF4F75FFEBDEEC00A65
:1004400010EE100AA88005B0BDEC048B30BD000092
:10045000000000C700FEFF4670B5364C05462DED86
:10046000048B86B00E462078B6EE008AC0071ED1F7
:1004700020460AF041F9D0B19FED2F9AB0EE490A1B
:100480000AF0C2FBF0EE408AB0EE490A0AF0BCFB6B
:10049000F7EE000A70EEC00A88EEA00A0AF034F9FE
:1004A00020EE080A204684ED010AAFF3008015F122
:1004B000460032D094ED010A20EE080A0BF0B8F99C
:1004C000D5ED070AB0EE001A002460EE810A20EE96
:1004D000208A28E004EB440005EB4000463009F098
:1004E00065FAD6ED021A03A831EEC11AD6ED011A4B
:1004F00071EEE00AD6ED001A31EEC00A0DF016FFDB
:1005000090EC030A68468DEC030A0EF0B5FCB4EEDD
:10051000C80AF1EE10FA04D2002006B0BDEC048B3C
:1005200070BD641CA4B2B5F86807A042D2D80120FF
:10053000F3E7000014200020DFF0863F3EB50446BC
:10054000084609F033FA694620468DEC030AFFF7A6
:1005500083FF3EBD70B5044600F58065D0F85007B6
:100560000AF0B2F8F0BB3549E069884264DD3449ED
:10057000884261DA94ED080A608BF0EEC00A00EE62
:10058000100AB8EE400AF4EEC00AF1EE10FA53D2A7
:1005900094ED090AF0EEC00A00EE100AB8EE400A27
:1005A000F4EEC00AF1EE10FA46D294ED0A0AF0EE2B
:1005B000C00A00EE100AB8EE400AF4EEC00AF1EEEE
:1005C00010FA39D21F48E26A824235DD1E498A425A
:1005D00032DA226B82422FDD8A422DDA626B82424E
:1005E0002ADD00E028E08A4226DA94ED0E0A4FF078
:1005F0007E50B0EEC00A10EE101A81421CDA94ED63
:100600000F0AB0EEC00A10EE101A814214DA94ED0F
:10061000100AB0EEC00A10EE101A81420CDA04F192
:100620001400F5F76BFCD5EDD40AB4EEE00AF1EE58
:1006300010FA01DB012070BD002070BD00001643E0
:1006400000806D44CDCC4C3E0000A04070B5054606
:10065000B0F8680705F5806428B105F11C0128464B
:1006600009F0D2FB01E09FED090A002084EDD40AD5
:10067000B7EE000A84EDD90A84EDD80A94EDD40AC5
:1006800084EDD70AA5F8440070BD0000CAF2497194
:100690002DE9F04F05462DED048BC9B010F1460F42
:1006A0007DD005F58064F2EE049A94EDD48A20A8FA
:1006B00000F03EFB2BA800F03BFB05F11C012822BB
:1006C0002BA84091EFF7DCFF28222BA920A8EFF7F9
:1006D000D7FF40216846F0F72FF8402110A8F0F727
:1006E0002BF80020389039903A9007460DF1400AD7
:1006F0000DF1E00B3B9046E007EB470005EB4000B7
:10070000463009F053F941AE3CAB20AA41A9284636
:1007100086EC030A09F09BF900263CA901EB860947
:10072000002099ED000A6A4600EB860302EB830C79
:1007300001EB80089CED001AD8ED000A0AEB830358
:10074000401C00EE201AC0B204288CED001A93ED74
:10075000001A00EE201A83ED001AE5D320AA41A961
:10076000284609F044F90BEB860099ED001AD0ED0C
:10077000000A761CF6B241EE000A042EC0ED000A13
:10078000CBD37F1CBFB2B5F86807B842B4D80020FD
:100790006E46574600EB800106EB810200E09DE0CB
:1007A00092ED000AD4EDD80A07EB8101401C30EE2F
:1007B000200AC0B2042882ED000A94EDD80AC0EEE7
:1007C000290A91ED000A30EE800A81ED000AE1D39A
:1007D000314604220846F5F727FE00287ED010A9EE
:1007E00004220846F5F720FE00287FD0B9460020F5
:1007F0005F4620AA02EB80032BAA002102EB8002B5
:1008000007EB810CD3ED000A9CED000A01EB800C94
:1008100006EB8C0809EB8C0C98ED001A491CC9B248
:1008200040EE410A0429C3ED000AD2ED000A9CED16
:10083000001A40EE410AC2ED000AE1D3401CC0B2EA
:100840000428D6D320A9284609F0DEFAB0EE409A53
:100850002BA9284609F0D8FAF0EE408A94EDD40A84
:10086000B4EEC90AF1EE10FA0BD2B4EEE80AF1EEDA
:1008700010FA06D294EDD80A20EE290A84EDD80A9F
:100880001EE0B4EEE80AF1EE10FA12DDF4EEC98AC9
:10089000F1EE10FA0DD294EDD80A28222BA9C0EE61
:1008A000290A20A8C4EDD80AEFF7EAFEB0EE688A5C
:1008B00006E0B4EEC90AF1EE10FA01DDB0EE498AA5
:1008C00018EE100A09F000FF00280FD194EDD40AA9
:1008D000B4EEC80AF1EE10FA08DD00E006E084ED9F
:1008E000D48A282220A94098EFF7CAFE49B0BDEC6F
:1008F000048BBDE8F08F70B50478042C09D120304A
:1009000070C881E8700032C882E8320007C883E806
:10091000070070BD10B50446F5F7D0FE2178022916
:1009200001D003290CD16168401AB0F57A7F07D94C
:100930000020207405212046FFF742FC012010BD55
:10094000002010BD2DE9F04F05462DED068BADF5CD
:10095000557D10F1460F7DD005F58064B2EE04AAF6
:1009600094EDD49AA2A800F0E3F9B7A800F0E0F95A
:1009700005F11C012822B7A8CC91EFF781FE2822AF
:10098000B7A9A2A8EFF77CFE4FF4A27631466846DD
:10099000EFF7D2FE314651A8EFF7CEFE2421ACA8E6
:1009A000EFF7CAFE00270DF5A27BEA464AE000BF3A
:1009B00007EB470005EB4000463008F0F7FFCDAEEF
:1009C000C1ABA2AACDA9284686EC030A09F0E0F83B
:1009D0000026C1A901EB8609002099ED000A06EB6B
:1009E000C60C00BF0CEB00020AEB820301EB80088F
:1009F00093ED001AD8ED000A0BEB8202401C00EECA
:100A0000201AC0B2092883ED001A92ED001A00EEF8
:100A1000201A82ED001AE5D3A2AACDA9284608F033
:100A2000E6FFACA800EB860099ED001AD0ED000AB5
:100A3000761CF6B241EE000A092EC0ED000AC8D3BA
:100A40007F1CBFB2B5F86807B842B1D8002056463F
:100A50005F4600E095E000EB800106EBC102D4EDBB
:100A6000D90A92ED000A07EBC101401C30EE200AC2
:100A7000C0B2092882ED000A94EDD90AC0EE0A0A34
:100A800091ED000A30EE800A81ED000AE1D369465B
:100A900009220846F5F7C8FC002872D051A909229E
:100AA0000846F5F7C1FC00287FD0A3A90020BB466B
:100AB0000DF52C7A0DF5387EC491C49A002102EB15
:100AC00080030EEB800200EBC00900BF09EB0107B9
:100AD0000AEB810C06EB870893ED000ADCED000AB7
:100AE00098ED001A0BEB8707491C00EEC10AC9B24A
:100AF000092983ED000A92ED000ADCED000A97ED6A
:100B0000001A00EEC10A82ED000ADFD3401CC0B219
:100B10000928D2D3A2A9284609F076F9F0EE408A36
:100B2000B7A9284609F070F9D4EDD49AB0EE408AFE
:100B3000F4EEE89AF1EE10FA0BD2F4EEC89AF1EE68
:100B400010FA06D294EDD90A20EE0A0A84EDD90AE9
:100B50001FE0F4EEC89AF1EE10FA13DDB4EEE88A65
:100B6000F1EE10FA0ED294EDD90A2822B7A9C0EE00
:100B70000A0AA2A8C4EDD90AEFF782FDB0EE489A9E
:100B800007E012E0F4EEE89AF1EE10FA01DDB0EEC3
:100B9000689AF4EEC99AF1EE10FA06DD84EDD49A63
:100BA0002822A2A9CC98EFF76BFD0DF5557DBDEC81
:100BB000068BBDE8F08F000070B59FED220A054658
:100BC00080ED0A0A80ED090A80ED080A002600F18E
:100BD00020041AE006EB460005EB4000463008F022
:100BE000E5FED4ED001A761CB6B231EEC00A84EDF3
:100BF000000A94ED010A30EE600A84ED010A94EDDA
:100C0000020A30EE410A84ED020AB5F86807B042E4
:100C1000E0D880B200EE100AD4ED000AB8EE400A27
:100C200080EE801A84ED001AD4ED010A80EE801A5D
:100C300084ED011AD4ED020A80EE801A84ED021AC6
:100C400070BD0000000000000021FFF7B9BA10B528
:100C500004460078022810D003280ED062830120B9
:100C60002076217484ED020AF5F728FDE060204625
:100C7000BDE810400121FFF7A3BA10BD2DE9F041F6
:100C80000446002008700E46204609F0FBF80028B4
:100C900036D02078012704F5806502280FD003287C
:100CA0002ED1B4F8440023282CD32046FFF752FC61
:100CB00008B304212046BDE8F041FFF781BAB4F83B
:100CC00044000A2812D304F25C7104F5EA60F5F7D7
:100CD0009FFC20B9D5F8500309F0F6FC20B105219E
:100CE0002046FFF76DFA37700321E3E760B920462D
:100CF000FFF762FF08E005212046FFF761FA377031
:100D0000BDE8F0810F2807D22046FFF7C1FC95ED22
:100D1000D40A85EDD50A06E02046FFF713FE95EDCF
:100D2000D40A85EDD60A34F8440F401C2080E7E74A
:100D300010B5001D0DF0FEFA0C300DF0FBFA0C3072
:100D40000DF0F8FA1C3810BD10B5B1EE040A80EDB4
:100D5000050A1C30FFF7ECFF1C380446FFF774FF50
:100D6000204610BD4A8802800A8842808A88828094
:100D7000CA88C2804A7A02720A7A427291ED030AE4
:100D800080ED030A704710B504460182407A0028BE
:100D9000204602D000F006F801E000F049F894ED9A
:100DA000050A10BD3EB50446008AADF80000608813
:100DB000ADF804002088ADF8080002AA01A9684631
:100DC000F4F7BFF9A388E1889FED180A5A18591A59
:100DD000237A12B209B223B12388181A63881844FF
:100DE00000B2904209DD2388934206D0801A00EEBB
:100DF000100A981AF8EEC00A0AE088420EDA6288F1
:100E00008A420BD0401A00EE100A881AF8EEC00A87
:100E100000EE100AB8EEC01A80EE810AD4ED030A83
:100E200020EE800A84ED050A3EBD000000000000AF
:100E30003EB50446008AADF800006088ADF80400B5
:100E40002088ADF8080002AA01A96846F4F779F9EC
:100E5000217A21B12188081A6188084400B261888A
:100E6000E288114409B2884211DD401A00EE100AEE
:100E70002088F8EEC00A401A00EE100AB8EEC00A48
:100E800080EE801A94ED030A21EE000A01E09FED46
:100E9000020A84ED050A3EBD000000004FF4FA612D
:100EA00001804910418040F2DC5181803222C280B1
:100EB0000022027201229FED050A427280ED030AB0
:100EC0009FED030A018280ED050A7047000034425D
:100ED00000000000704700000149016070470000F9
:100EE000B00102082DE9F04F4B4C02212DED028B91
:100EF0008DB02068801CF7F7F1FB10EE100A0EF0A1
:100F00000BFA064620680F460121801CF7F7E6FB26
:100F100010EE100A0EF000FA0D460446F2F71EFD20
:100F200010EE100A0EF0F8F98DE8F00041EC100B0D
:100F30003AA053EC102BF4F725F943480268114608
:100F4000D2F800010890D2F80401009051F8C84F7F
:100F5000D2F80881D1E901500EF0DEF906460F46BD
:100F600028460EF0D9F9CDE9060120460EF0D4F955
:100F700082468B4640460EF0CFF98046894600985F
:100F80000EF0CAF904460D4608980EF0C5F98DE832
:100F9000300F41EC100B2DA053EC102BCDE908675E
:100FA000F4F7F0F828480068B0F81021D0F81431B0
:100FB000D0F80C1130A0F4F7E5F823489FED378AFC
:100FC000D0F8008098EDD50A20EE080A10EE100A3D
:100FD0000EF0A2F998EDD00A06460F4620EE080A58
:100FE00010EE100A0EF098F998EDCB0A04460D4663
:100FF00020EE080A10EE100A0EF08EF98DE8F000CF
:1010000041EC100B26A053EC102BF4F7BBF80DB0FD
:10101000BDEC028BBDE8F08FDC1F00200D0A0D0A2D
:101020003E20252E3366202D204669726D77617231
:10103000653A252E30662054656C652062617564C2
:101040003A252E3066000000340000200D0A3E20B4
:1010500041636320252E326620252E326620252E00
:1010600032663B2047797220252E326620252E32AB
:101070006620252E326600000D0A3E204163635231
:1010800061772074696D655461673A25642E256423
:101090006D732064743A256475730000E02E654218
:1010A0000D0A3E20526F6C6C20252E31662050694F
:1010B00074636820252E31662059617720252E31F2
:1010C000660000002DE9FF47DFF878904FF42472A6
:1010D000D9F800001458D0F88C82D0F8BC020EF079
:1010E0001BF906460F4620460EF016F904460D463B
:1010F00040460EF011F98DE8F00041EC100B12A003
:1011000053EC102BF4F73EF8D9F80000D0F87C0827
:101110000EF002F941EC100B14A053EC102BF4F775
:1011200031F817480D210068F5F7ACFD044606209C
:10113000F2F7C0F804B02246BDE8F047014611A01E
:10114000F4F720B8340000200D0A3E205072657379
:10115000733A252E31662054656D703A252E31661E
:1011600020416C743A252E32660000000D0A3E20A4
:1011700061724462675B305D3D252E316600000080
:10118000DC1F00200D0A3E20476C6F62616C2073EB
:101190007461747573202D20496D755374696C6C7E
:1011A0003A2564205263416C6976653A25640000F3
:1011B00070B5354C88B000212068806C02F0F6FFD5
:1011C000ADF8040020680121806C02F0EFFFADF85B
:1011D000080020680221806C02F0E8FFADF80C00E6
:1011E00020680321806C02F0E1FF00B2ADF810002E
:1011F0000090BDF90C30BDF90820BDF9041023A002
:10120000F3F7C0FF4FF47A756E00ADF81450ADF8E7
:10121000186006AA05A901A8F3F793FF82B2206817
:101220000021806C02F025FFADF81850ADF8146075
:1012300005AA06A902A8F3F784FF82B2206801215B
:10124000806C02F016FFADF81850ADF8146005AAD6
:1012500006A903A8F3F775FF82B220680221806C0B
:1012600002F007FFADF81850ADF8146005AA06A902
:1012700004A8F3F766FF82B220680321806C02F0B5
:10128000F8FE08B070BD0000180000200D0A3E20D6
:10129000506D7720696E3A202564202564202564EE
:1012A0002025640010B58CB0F5F708FA024612A1AB
:1012B0006846F5F775F8154C06226946206800F275
:1012C0003460FBF73CFA1248006890ED4E0AA52006
:1012D0008DF82A00BDEEC00A10EE100AADF8280005
:1012E000F5F7ECF90990206808A900F23460FBF7E3
:1012F000D7FA0CB010BD0000537472696E67207489
:101300006F2047435320617420256400DC1F0020B8
:101310003400002030B504462DED028B81B0F2F789
:101320001DFB10EE100A0DF0F7FF41EC100B23A08F
:1013300053EC102BF3F726FFF2F710FB10EE100A18
:101340000DF0EAFF41EC100B23A053EC102BF5F746
:1013500031F801200AF0AEFEF1F7A6FF0546F2F7DC
:10136000FDFA10EE100A0DF0D7FF41EC180BF5F75F
:10137000A5F9014653EC182B1FA00095F3F702FFC7
:10138000F1F792FF0546C820F5F784F92846F3F7F0
:101390002FFB014622A0F3F7F5FE284800680178EC
:1013A00027A0F3F7EFFE01B0201DBDEC028B4FF438
:1013B0007A71BDE8304006F0A0B900000D0A6465FE
:1013C0006D6F3E20312E20545241434520617420E0
:1013D000252E33666D7300000D0A64656D6F3E2027
:1013E000322E20675072696E746620617420252E3B
:1013F00033666D73000000000D0A64656D6F3E205A
:10140000332E2054524143452061742025646D736E
:1014100020252E33666D732025647573000000004F
:101420000D0A64656D6F3E20342E2054696D652071
:101430007573616765A3BA2564757300DC1F0020AE
:101440000D0A64656D6F3E20352E205048343720DC
:10145000696E6974207374617475733A2564000051
:101460001CB50446001D06F04DF9C8B194F82410CF
:10147000012906D0022908D004290AD006290CD057
:101480000EE02046FFF72EFD0AE02046FFF71AFE89
:1014900006E02046FFF706FF02E02046FFF788FE41
:1014A0000A484621006802F0DFFF00280DD0F2F75D
:1014B00055FA10EE100A0DF02FFFCDE900010121C1
:1014C00003A304220846F5F70FF91CBD20000020F5
:1014D000476574206D65737361676520505F4D5378
:1014E000475F555345525F4445465F44454D4F2045
:1014F000617420252E33660090ED110A704780ED4F
:10150000110A7047F0B504462DED028B8DB0806C4A
:10151000B0EE408A00285BD0F5F7D0F8A16C401AF5
:1015200040F6B831884257D3B4F84C00B0F5967FF6
:1015300052D900EE100A012184F85410B8EE401A76
:10154000D4ED140A4FF0000780EE810A84ED110AF1
:10155000A56A95F89C0005F18C0510F00F0001D0EC
:1015600008280FD10820288285ED000A28460DF0B2
:10157000D1FA064628460DF0A5FA0146324628461D
:101580000DF0B8FA606C0DF0C7FECDE90201B4F8B9
:101590004C10208ECDE90001012115A3052208463B
:1015A000F5F7A2F82720ADF82C00208E04A900EE54
:1015B000100A1948B8EE400A8DED040A94ED110A9C
:1015C0008DED050A006800F23460FAF75FFEA7644B
:1015D0000DB0BDEC028BF0BD34F84C0F401C2080E8
:1015E00094ED010A30EE080A84ED010AF0E70000EC
:1015F000417370642073656E736F723A25642C5367
:10160000616D706C65733A25642C4F666673657402
:101610003A252E3166000000DC1F002010B504467C
:101620001B485D212DED028B84B00068B0EE408A2E
:10163000801CF7F753F8B5EEC00AF1EE10FA24DD7E
:1016400060690178022920D394ED1D1AD0ED220A99
:1016500002AA21EE081A01A968468DED001A30EEA3
:10166000C01A30EE800A8DED011A8DED020AF3F7F3
:1016700044FD8DED000A94ED1D1AF0EE400A80EE57
:10168000810A04B0BDEC028B10BDB0EE480AF8E749
:10169000DC1F00202DE9F04104462DED028B8CB0BB
:1016A000806DA64D04F1E40678B1F3F79BF94FF491
:1016B0007A77B84221D3F5F701F8A065606A002176
:1016C0008846027C12074AD11CE0F4F7F7FFA065B8
:1016D0002868A18D801CF7F701F884ED0F0A3046C9
:1016E00002F020F994ED0F0A84ED170AA0693C304E
:1016F0000DF01EFA92A0F3F745FD0CB0BDEC028B85
:10170000BDE8F081017093490B68002B10D092491D
:10171000924A0968A1F1010101FB02F1B1FBF7F165
:101720005A6AB2FBF7F20A4404D14FF0000106E016
:101730004246F9E7596AB1FBF7F307FB1311476813
:101740000389A2EB0707A1EB030307EB470C1BB2CE
:10175000CCEBC71703EBC703C3604260018194F869
:1017600054000028C9D0606901780329C5D3D0F896
:101770008800B0F1814FC0DB20692E2190ED008AF6
:101780002868801CF6F7AAFFB4EEC08AF1EE10FAC2
:101790000CD260692E2190ED228A2868801CF6F711
:1017A0009DFFB4EEC08AF1EE10FAA6D3A0683021F6
:1017B00090ED150A2868F0EEC08A801CF6F78EFFBF
:1017C0009FED678A20EE080AF4EEC08AF1EE10FA67
:1017D00093DCA0683121D0ED1A8A2868801CF6F7C6
:1017E0007DFF20EE080AF4EEC08AF1EE10FA84DCE8
:1017F000A0683221D0ED1A8A2868801CF6F76EFFA7
:10180000B1EE400A20EE080AF4EEC08AF1EE10FABA
:10181000ACD36069B7EE008A443005AF90EC030AA0
:1018200008AA8DED098A09A904F13C0087EC030A96
:10183000B1EE000A8DED080AF3F75FFC0AF0C0F87C
:10184000C8EE000AC4ED460A9FED460A8DED080A6F
:10185000D4ED1A0AF4EEC00AF1EE10FA01DDB0EE92
:10186000600A0AF0ADF8D4ED1D0A28682F2160EE59
:10187000208A801CF6F732FFF0EE400A3946B0EEBF
:10188000680A304602F05AF810EE100A8DED020A8E
:1018900020F00040C0F1FF40C00F7FF42EAF10EEEB
:1018A000100A4FF07F41B1EB400F3FF426AFB6EE88
:1018B000000A8DED080A46468DED098A09AA08A995
:1018C00002A8F3F71AFC8DED020A02A8F4F716FB42
:1018D000F0EE400A88EE200A84ED0F0A94F86000CA
:1018E0003C2827D9D4ED170A9FED1F1A20EE011AC4
:1018F000F4EEC10AF1EE10FA09DC9FED1C1A20EE9D
:10190000011AF4EEC10AF1EE10FABFF4F6AE28683F
:10191000A18D0122801CF6F74FFF002301220E212A
:101920002868F5F7E7F994ED0F0A84ED170A84F8B3
:101930006060E2E6401C84F86000DEE6DC1F002008
:101940000D0A3E20617370642063616C6920696ECA
:1019500069740000E41F00205C1F00200046C323C0
:1019600035FA8E3C000000006666863F3333733FD5
:1019700010B504460186B7EE000AB8300CF052FAF2
:10198000B0EE040A04F1D8000CF04CFAB1EE040AEF
:1019900004F1CC000CF046FAA06918B9152107A093
:1019A000F1F706FCA08D08B1622805D3BDE8104010
:1019B000162102A0F1F7FCBB10BD00002E2E5C2EFC
:1019C0002E5C44657653747564696F5C416C676F17
:1019D000726974686D735C53656E736F725C536586
:1019E0006E736F725F41697273706565642E6370A8
:1019F0007000000010B5044606A0F3F7C3FB0020FA
:101A0000A06484F8540004F18800BDE810400CF094
:101A1000A5B900000D0A3E20417370642052654351
:101A2000616C690010B504462DED028B82B0008E0A
:101A300018B9822145A0F1F7BBFB9FED528A694698
:101A40008DED008A04F1340004F035FE002878D0D2
:101A50009DED000ADFED4C0A4C48002380EE201A71
:101A600004218DED001A94F854200068F5F742F92E
:101A7000206C10B9F4F722FE2064F2F7B3FF42F2B3
:101A8000107188425DD3A06901A990ED000A04F1AC
:101A9000C40084ED190A8DED018A04F00CFE68B1D2
:101AA0009DED010ADFED3A0A04F1B80060EE200A6C
:101AB00094ED190A0CF0EEF984ED1C0AA06C58B9EB
:101AC00094F8540088B9F4F7F9FD0021A064A4F853
:101AD0004C1084ED148A20B194ED1C0A2046FFF7C7
:101AE00011FD94F8540000282BD094ED1C0AD4ED7D
:101AF000110A04F1880030EE600A84ED1A0A0CF035
:101B0000FFF884ED1B0AD4ED0F0AB0EEC00A20EEF8
:101B1000200A09F055FF84ED1E0A20690DF008F82F
:101B200094ED1E0A2046FFF779FD206914300CF071
:101B3000FFFFE06890ED0E0A204684ED1D0AFFF7D6
:101B4000A9FD02B0BDEC028B10BD00002E2E5C2E54
:101B50002E5C44657653747564696F5C416C676F85
:101B6000726974686D735C53656E736F725C5365F4
:101B70006E736F725F41697273706565642E637016
:101B8000700000000000000000007A44DC1F00200C
:101B90006F12833A70B504462DED028B0025224862
:101BA000206004F13400258605709FED208A9FEDAA
:101BB000200A84ED0E8A84ED0F0A256484ED118AD3
:101BC00084F85450B7EE000AA56584ED170A84F82E
:101BD000605084ED198A84ED1A8A84ED1C8A84EDA4
:101BE0001D8A144984ED208AC4E9215154300646E7
:101BF00084F8B4500CF09EFA0F48306086F82D50EF
